{
  "address": "0x2e6E1B66DA3dd61F118a6d03c12C451F39CDe0fb",
  "abi": [
    {
      "inputs": [
        {
          "internalType": "uint96",
          "name": "_royaltyFeesInBips",
          "type": "uint96"
        },
        {
          "internalType": "string",
          "name": "_contractURI",
          "type": "string"
        },
        {
          "internalType": "bytes32",
          "name": "_whiteList_root",
          "type": "bytes32"
        },
        {
          "internalType": "bytes32",
          "name": "_skull_root",
          "type": "bytes32"
        }
      ],
      "stateMutability": "nonpayable",
      "type": "constructor"
    },
    {
      "inputs": [],
      "name": "ApprovalCallerNotOwnerNorApproved",
      "type": "error"
    },
    {
      "inputs": [],
      "name": "ApprovalQueryForNonexistentToken",
      "type": "error"
    },
    {
      "inputs": [],
      "name": "BalanceQueryForZeroAddress",
      "type": "error"
    },
    {
      "inputs": [],
      "name": "MintERC2309QuantityExceedsLimit",
      "type": "error"
    },
    {
      "inputs": [],
      "name": "MintToZeroAddress",
      "type": "error"
    },
    {
      "inputs": [],
      "name": "MintZeroQuantity",
      "type": "error"
    },
    {
      "inputs": [],
      "name": "OwnerQueryForNonexistentToken",
      "type": "error"
    },
    {
      "inputs": [],
      "name": "OwnershipNotInitializedForExtraData",
      "type": "error"
    },
    {
      "inputs": [],
      "name": "TransferCallerNotOwnerNorApproved",
      "type": "error"
    },
    {
      "inputs": [],
      "name": "TransferFromIncorrectOwner",
      "type": "error"
    },
    {
      "inputs": [],
      "name": "TransferToNonERC721ReceiverImplementer",
      "type": "error"
    },
    {
      "inputs": [],
      "name": "TransferToZeroAddress",
      "type": "error"
    },
    {
      "inputs": [],
      "name": "URIQueryForNonexistentToken",
      "type": "error"
    },
    {
      "anonymous": false,
      "inputs": [
        {
          "indexed": true,
          "internalType": "address",
          "name": "owner",
          "type": "address"
        },
        {
          "indexed": true,
          "internalType": "address",
          "name": "approved",
          "type": "address"
        },
        {
          "indexed": true,
          "internalType": "uint256",
          "name": "tokenId",
          "type": "uint256"
        }
      ],
      "name": "Approval",
      "type": "event"
    },
    {
      "anonymous": false,
      "inputs": [
        {
          "indexed": true,
          "internalType": "address",
          "name": "owner",
          "type": "address"
        },
        {
          "indexed": true,
          "internalType": "address",
          "name": "operator",
          "type": "address"
        },
        {
          "indexed": false,
          "internalType": "bool",
          "name": "approved",
          "type": "bool"
        }
      ],
      "name": "ApprovalForAll",
      "type": "event"
    },
    {
      "anonymous": false,
      "inputs": [
        {
          "indexed": true,
          "internalType": "uint256",
          "name": "fromTokenId",
          "type": "uint256"
        },
        {
          "indexed": false,
          "internalType": "uint256",
          "name": "toTokenId",
          "type": "uint256"
        },
        {
          "indexed": true,
          "internalType": "address",
          "name": "from",
          "type": "address"
        },
        {
          "indexed": true,
          "internalType": "address",
          "name": "to",
          "type": "address"
        }
      ],
      "name": "ConsecutiveTransfer",
      "type": "event"
    },
    {
      "anonymous": false,
      "inputs": [
        {
          "indexed": true,
          "internalType": "address",
          "name": "previousOwner",
          "type": "address"
        },
        {
          "indexed": true,
          "internalType": "address",
          "name": "newOwner",
          "type": "address"
        }
      ],
      "name": "OwnershipTransferred",
      "type": "event"
    },
    {
      "anonymous": false,
      "inputs": [
        {
          "indexed": true,
          "internalType": "address",
          "name": "from",
          "type": "address"
        },
        {
          "indexed": true,
          "internalType": "address",
          "name": "to",
          "type": "address"
        },
        {
          "indexed": true,
          "internalType": "uint256",
          "name": "tokenId",
          "type": "uint256"
        }
      ],
      "name": "Transfer",
      "type": "event"
    },
    {
      "inputs": [
        {
          "internalType": "address",
          "name": "_OwnerAddress",
          "type": "address"
        }
      ],
      "name": "ChangeOwner",
      "outputs": [],
      "stateMutability": "nonpayable",
      "type": "function"
    },
    {
      "inputs": [
        {
          "internalType": "bytes32",
          "name": "_root",
          "type": "bytes32"
        }
      ],
      "name": "add_WhiteList_Hash",
      "outputs": [],
      "stateMutability": "nonpayable",
      "type": "function"
    },
    {
      "inputs": [
        {
          "internalType": "bytes32",
          "name": "_root",
          "type": "bytes32"
        }
      ],
      "name": "add_skullList_Hash",
      "outputs": [],
      "stateMutability": "nonpayable",
      "type": "function"
    },
    {
      "inputs": [
        {
          "internalType": "address",
          "name": "to",
          "type": "address"
        },
        {
          "internalType": "uint256",
          "name": "tokenId",
          "type": "uint256"
        }
      ],
      "name": "approve",
      "outputs": [],
      "stateMutability": "payable",
      "type": "function"
    },
    {
      "inputs": [
        {
          "internalType": "address",
          "name": "owner",
          "type": "address"
        }
      ],
      "name": "balanceOf",
      "outputs": [
        {
          "internalType": "uint256",
          "name": "",
          "type": "uint256"
        }
      ],
      "stateMutability": "view",
      "type": "function"
    },
    {
      "inputs": [
        {
          "internalType": "uint256",
          "name": "_salePrice",
          "type": "uint256"
        }
      ],
      "name": "calculateRoyalty",
      "outputs": [
        {
          "internalType": "uint256",
          "name": "",
          "type": "uint256"
        }
      ],
      "stateMutability": "view",
      "type": "function"
    },
    {
      "inputs": [
        {
          "internalType": "uint256",
          "name": "_mintPrice",
          "type": "uint256"
        },
        {
          "internalType": "uint256",
          "name": "_skullListPrice",
          "type": "uint256"
        }
      ],
      "name": "changePrices",
      "outputs": [],
      "stateMutability": "nonpayable",
      "type": "function"
    },
    {
      "inputs": [
        {
          "internalType": "uint256",
          "name": "tokenId",
          "type": "uint256"
        }
      ],
      "name": "getApproved",
      "outputs": [
        {
          "internalType": "address",
          "name": "",
          "type": "address"
        }
      ],
      "stateMutability": "view",
      "type": "function"
    },
    {
      "inputs": [
        {
          "internalType": "address",
          "name": "owner",
          "type": "address"
        },
        {
          "internalType": "address",
          "name": "operator",
          "type": "address"
        }
      ],
      "name": "isApprovedForAll",
      "outputs": [
        {
          "internalType": "bool",
          "name": "",
          "type": "bool"
        }
      ],
      "stateMutability": "view",
      "type": "function"
    },
    {
      "inputs": [
        {
          "internalType": "uint256",
          "name": "quantity",
          "type": "uint256"
        },
        {
          "internalType": "bytes32[]",
          "name": "proof",
          "type": "bytes32[]"
        },
        {
          "internalType": "bytes32",
          "name": "leaf",
          "type": "bytes32"
        }
      ],
      "name": "mint",
      "outputs": [],
      "stateMutability": "payable",
      "type": "function"
    },
    {
      "inputs": [],
      "name": "name",
      "outputs": [
        {
          "internalType": "string",
          "name": "",
          "type": "string"
        }
      ],
      "stateMutability": "view",
      "type": "function"
    },
    {
      "inputs": [],
      "name": "owner",
      "outputs": [
        {
          "internalType": "address",
          "name": "",
          "type": "address"
        }
      ],
      "stateMutability": "view",
      "type": "function"
    },
    {
      "inputs": [
        {
          "internalType": "uint256",
          "name": "tokenId",
          "type": "uint256"
        }
      ],
      "name": "ownerOf",
      "outputs": [
        {
          "internalType": "address",
          "name": "",
          "type": "address"
        }
      ],
      "stateMutability": "view",
      "type": "function"
    },
    {
      "inputs": [],
      "name": "renounceOwnership",
      "outputs": [],
      "stateMutability": "nonpayable",
      "type": "function"
    },
    {
      "inputs": [
        {
          "internalType": "uint256",
          "name": "",
          "type": "uint256"
        },
        {
          "internalType": "uint256",
          "name": "_salePrice",
          "type": "uint256"
        }
      ],
      "name": "royaltyInfo",
      "outputs": [
        {
          "internalType": "address",
          "name": "receiver",
          "type": "address"
        },
        {
          "internalType": "uint256",
          "name": "royaltyAmount",
          "type": "uint256"
        }
      ],
      "stateMutability": "view",
      "type": "function"
    },
    {
      "inputs": [
        {
          "internalType": "address",
          "name": "from",
          "type": "address"
        },
        {
          "internalType": "address",
          "name": "to",
          "type": "address"
        },
        {
          "internalType": "uint256",
          "name": "tokenId",
          "type": "uint256"
        }
      ],
      "name": "safeTransferFrom",
      "outputs": [],
      "stateMutability": "payable",
      "type": "function"
    },
    {
      "inputs": [
        {
          "internalType": "address",
          "name": "from",
          "type": "address"
        },
        {
          "internalType": "address",
          "name": "to",
          "type": "address"
        },
        {
          "internalType": "uint256",
          "name": "tokenId",
          "type": "uint256"
        },
        {
          "internalType": "bytes",
          "name": "_data",
          "type": "bytes"
        }
      ],
      "name": "safeTransferFrom",
      "outputs": [],
      "stateMutability": "payable",
      "type": "function"
    },
    {
      "inputs": [
        {
          "internalType": "address",
          "name": "operator",
          "type": "address"
        },
        {
          "internalType": "bool",
          "name": "approved",
          "type": "bool"
        }
      ],
      "name": "setApprovalForAll",
      "outputs": [],
      "stateMutability": "nonpayable",
      "type": "function"
    },
    {
      "inputs": [
        {
          "internalType": "string",
          "name": "_baseUri",
          "type": "string"
        }
      ],
      "name": "setBaseURI",
      "outputs": [],
      "stateMutability": "nonpayable",
      "type": "function"
    },
    {
      "inputs": [
        {
          "internalType": "string",
          "name": "_contractURI",
          "type": "string"
        }
      ],
      "name": "setContractUri",
      "outputs": [],
      "stateMutability": "nonpayable",
      "type": "function"
    },
    {
      "inputs": [
        {
          "internalType": "bytes32",
          "name": "_whiteList_root",
          "type": "bytes32"
        },
        {
          "internalType": "bytes32",
          "name": "_skull_root",
          "type": "bytes32"
        }
      ],
      "name": "setRootHashes",
      "outputs": [],
      "stateMutability": "nonpayable",
      "type": "function"
    },
    {
      "inputs": [
        {
          "internalType": "address",
          "name": "_receiver",
          "type": "address"
        },
        {
          "internalType": "uint96",
          "name": "_royaltyFeesInBips",
          "type": "uint96"
        }
      ],
      "name": "setRoyaltyInfo",
      "outputs": [],
      "stateMutability": "nonpayable",
      "type": "function"
    },
    {
      "inputs": [
        {
          "internalType": "address",
          "name": "_developer",
          "type": "address"
        }
      ],
      "name": "setStakeAddress",
      "outputs": [],
      "stateMutability": "nonpayable",
      "type": "function"
    },
    {
      "inputs": [
        {
          "internalType": "uint32",
          "name": "_stamp",
          "type": "uint32"
        },
        {
          "internalType": "uint32",
          "name": "_Skull_List_Time",
          "type": "uint32"
        },
        {
          "internalType": "uint32",
          "name": "_wl",
          "type": "uint32"
        },
        {
          "internalType": "uint32",
          "name": "_end_of_WL_mint",
          "type": "uint32"
        }
      ],
      "name": "setTimer",
      "outputs": [],
      "stateMutability": "nonpayable",
      "type": "function"
    },
    {
      "inputs": [
        {
          "internalType": "bytes32[]",
          "name": "proof",
          "type": "bytes32[]"
        },
        {
          "internalType": "bytes32",
          "name": "leaf",
          "type": "bytes32"
        }
      ],
      "name": "skullList_MerkleVerify",
      "outputs": [
        {
          "internalType": "bool",
          "name": "",
          "type": "bool"
        }
      ],
      "stateMutability": "view",
      "type": "function"
    },
    {
      "inputs": [],
      "name": "suppliedNFTs",
      "outputs": [
        {
          "internalType": "uint256",
          "name": "",
          "type": "uint256"
        }
      ],
      "stateMutability": "view",
      "type": "function"
    },
    {
      "inputs": [
        {
          "internalType": "bytes4",
          "name": "interfaceId",
          "type": "bytes4"
        }
      ],
      "name": "supportsInterface",
      "outputs": [
        {
          "internalType": "bool",
          "name": "",
          "type": "bool"
        }
      ],
      "stateMutability": "view",
      "type": "function"
    },
    {
      "inputs": [],
      "name": "symbol",
      "outputs": [
        {
          "internalType": "string",
          "name": "",
          "type": "string"
        }
      ],
      "stateMutability": "view",
      "type": "function"
    },
    {
      "inputs": [
        {
          "internalType": "uint256",
          "name": "tokenId",
          "type": "uint256"
        }
      ],
      "name": "tokenURI",
      "outputs": [
        {
          "internalType": "string",
          "name": "",
          "type": "string"
        }
      ],
      "stateMutability": "view",
      "type": "function"
    },
    {
      "inputs": [],
      "name": "totalSupply",
      "outputs": [
        {
          "internalType": "uint256",
          "name": "",
          "type": "uint256"
        }
      ],
      "stateMutability": "view",
      "type": "function"
    },
    {
      "inputs": [
        {
          "internalType": "address",
          "name": "from",
          "type": "address"
        },
        {
          "internalType": "address",
          "name": "to",
          "type": "address"
        },
        {
          "internalType": "uint256",
          "name": "tokenId",
          "type": "uint256"
        }
      ],
      "name": "transferFrom",
      "outputs": [],
      "stateMutability": "payable",
      "type": "function"
    },
    {
      "inputs": [
        {
          "internalType": "address",
          "name": "newOwner",
          "type": "address"
        }
      ],
      "name": "transferOwnership",
      "outputs": [],
      "stateMutability": "nonpayable",
      "type": "function"
    },
    {
      "inputs": [],
      "name": "userMint",
      "outputs": [
        {
          "internalType": "uint256",
          "name": "",
          "type": "uint256"
        }
      ],
      "stateMutability": "view",
      "type": "function"
    },
    {
      "inputs": [
        {
          "internalType": "bytes32[]",
          "name": "proof",
          "type": "bytes32[]"
        },
        {
          "internalType": "bytes32",
          "name": "leaf",
          "type": "bytes32"
        }
      ],
      "name": "whiteList_MerkleVerify",
      "outputs": [
        {
          "internalType": "bool",
          "name": "",
          "type": "bool"
        }
      ],
      "stateMutability": "view",
      "type": "function"
    },
    {
      "inputs": [],
      "name": "withdraw",
      "outputs": [],
      "stateMutability": "payable",
      "type": "function"
    }
  ],
  "transactionHash": "0x2f6cdaa95adcfaf40b901605c036ee12fe2a0b429022826dbce14412a74b9a08",
  "args": [
    1000,
    "https://indieskullsyndicate.mypinata.cloud/ipfs/QmSxZtEkRcBdWL9S7nEBP335Bc6TNMm6H9nmFXdq6VVUsH/",
    "0x41e073ed32e8c4973f91d5526a5953368a0c504963d4d3b4637eb97f00cd5d64",
    "0x4b69e5b2406c6ff06aef158ac1167bd12db9d50245083df4688a8e279effae8a"
  ],
  "numDeployments": 2,
  "solcInputHash": "d0486cb6e4678b72dbd235e8acdac8ff",
  "bytecode": "0x608060405260056009556109c4600d556611c37937e08000600e5566071afd498d0000600f55636352d010601060006101000a81548163ffffffff021916908363ffffffff160217905550636352de20601060046101000a81548163ffffffff021916908363ffffffff160217905550636352fa40601060086101000a81548163ffffffff021916908363ffffffff160217905550636352ec306010600c6101000a81548163ffffffff021916908363ffffffff16021790555073b96dfc3e4cbe9da6f072d57c13b5efb44c8b192c601160006101000a81548173ffffffffffffffffffffffffffffffffffffffff021916908373ffffffffffffffffffffffffffffffffffffffff16021790555073b328200eca7c688646af1c8bb25b6e9b8ed11368601260006101000a81548173ffffffffffffffffffffffffffffffffffffffff021916908373ffffffffffffffffffffffffffffffffffffffff1602179055506040518060800160405280605f8152602001620049b6605f91396019908051906020019062000194929190620008e1565b50348015620001a257600080fd5b5060405162004a1538038062004a158339818101604052810190620001c8919062000a74565b6040518060400160405280601581526020017f496e64696520536b756c6c2053796e64696361746500000000000000000000008152506040518060400160405280600581526020017f246b756c6c00000000000000000000000000000000000000000000000000000081525081600290805190602001906200024c929190620008e1565b50806003908051906020019062000265929190620008e1565b50620002766200035460201b60201c565b60008190555050506200029e620002926200035960201b60201c565b6200036160201b60201c565b83601260146101000a8154816bffffffffffffffffffffffff02191690836bffffffffffffffffffffffff1602179055508260159080519060200190620002e7929190620008e1565b50816016819055508060178190555033601360006101000a81548173ffffffffffffffffffffffffffffffffffffffff021916908373ffffffffffffffffffffffffffffffffffffffff1602179055506200034a3360016200042760201b60201c565b5050505062000e16565b600090565b600033905090565b6000600860009054906101000a900473ffffffffffffffffffffffffffffffffffffffff16905081600860006101000a81548173ffffffffffffffffffffffffffffffffffffffff021916908373ffffffffffffffffffffffffffffffffffffffff1602179055508173ffffffffffffffffffffffffffffffffffffffff168173ffffffffffffffffffffffffffffffffffffffff167f8be0079c531659141344cd1fd0a4f28419497f9722a3daafe3b4186f6b6457e060405160405180910390a35050565b620004498282604051806020016040528060008152506200044d60201b60201c565b5050565b6200045f8383620004fe60201b60201c565b60008373ffffffffffffffffffffffffffffffffffffffff163b14620004f957600080549050600083820390505b620004a86000868380600101945086620006e760201b60201c565b620004df576040517fd1a57ed600000000000000000000000000000000000000000000000000000000815260040160405180910390fd5b8181106200048d578160005414620004f657600080fd5b50505b505050565b600080549050600082141562000540576040517fb562e8dd00000000000000000000000000000000000000000000000000000000815260040160405180910390fd5b6200055560008483856200085960201b60201c565b600160406001901b178202600560008573ffffffffffffffffffffffffffffffffffffffff1673ffffffffffffffffffffffffffffffffffffffff16815260200190815260200160002060008282540192505081905550620005e483620005c660008660006200085f60201b60201c565b620005d7856200088f60201b60201c565b176200089f60201b60201c565b6004600083815260200190815260200160002081905550600080838301905073ffffffffffffffffffffffffffffffffffffffff85169150828260007fddf252ad1be2c89b69c2b068fc378daa952ba7f163c4a11628f55a4df523b3ef600080a4600183015b8181146200068757808360007fddf252ad1be2c89b69c2b068fc378daa952ba7f163c4a11628f55a4df523b3ef600080a46001810190506200064a565b506000821415620006c4576040517f2e07630000000000000000000000000000000000000000000000000000000000815260040160405180910390fd5b806000819055505050620006e26000848385620008ca60201b60201c565b505050565b60008373ffffffffffffffffffffffffffffffffffffffff1663150b7a0262000715620008d060201b60201c565b8786866040518563ffffffff1660e01b815260040162000739949392919062000b5c565b602060405180830381600087803b1580156200075457600080fd5b505af19250505080156200078857506040513d601f19601f8201168201806040525081019062000785919062000a48565b60015b62000806573d8060008114620007bb576040519150601f19603f3d011682016040523d82523d6000602084013e620007c0565b606091505b50600081511415620007fe576040517fd1a57ed600000000000000000000000000000000000000000000000000000000815260040160405180910390fd5b805181602001fd5b63150b7a0260e01b7bffffffffffffffffffffffffffffffffffffffffffffffffffffffff1916817bffffffffffffffffffffffffffffffffffffffffffffffffffffffff191614915050949350505050565b50505050565b60008060e883901c905060e86200087e868684620008d860201b60201c565b62ffffff16901b9150509392505050565b60006001821460e11b9050919050565b600073ffffffffffffffffffffffffffffffffffffffff83169250814260a01b178317905092915050565b50505050565b600033905090565b60009392505050565b828054620008ef9062000ced565b90600052602060002090601f0160209004810192826200091357600085556200095f565b82601f106200092e57805160ff19168380011785556200095f565b828001600101855582156200095f579182015b828111156200095e57825182559160200191906001019062000941565b5b5090506200096e919062000972565b5090565b5b808211156200098d57600081600090555060010162000973565b5090565b6000620009a8620009a28462000bd9565b62000bb0565b905082815260208101848484011115620009c157600080fd5b620009ce84828562000cb7565b509392505050565b600081519050620009e78162000dc8565b92915050565b600081519050620009fe8162000de2565b92915050565b600082601f83011262000a1657600080fd5b815162000a2884826020860162000991565b91505092915050565b60008151905062000a428162000dfc565b92915050565b60006020828403121562000a5b57600080fd5b600062000a6b84828501620009ed565b91505092915050565b6000806000806080858703121562000a8b57600080fd5b600062000a9b8782880162000a31565b945050602085015167ffffffffffffffff81111562000ab957600080fd5b62000ac78782880162000a04565b935050604062000ada87828801620009d6565b925050606062000aed87828801620009d6565b91505092959194509250565b62000b048162000c2b565b82525050565b600062000b178262000c0f565b62000b23818562000c1a565b935062000b3581856020860162000cb7565b62000b408162000db7565b840191505092915050565b62000b568162000c95565b82525050565b600060808201905062000b73600083018762000af9565b62000b82602083018662000af9565b62000b91604083018562000b4b565b818103606083015262000ba5818462000b0a565b905095945050505050565b600062000bbc62000bcf565b905062000bca828262000d23565b919050565b6000604051905090565b600067ffffffffffffffff82111562000bf75762000bf662000d88565b5b62000c028262000db7565b9050602081019050919050565b600081519050919050565b600082825260208201905092915050565b600062000c388262000c75565b9050919050565b6000819050919050565b60007fffffffff0000000000000000000000000000000000000000000000000000000082169050919050565b600073ffffffffffffffffffffffffffffffffffffffff82169050919050565b6000819050919050565b60006bffffffffffffffffffffffff82169050919050565b60005b8381101562000cd757808201518184015260208101905062000cba565b8381111562000ce7576000848401525b50505050565b6000600282049050600182168062000d0657607f821691505b6020821081141562000d1d5762000d1c62000d59565b5b50919050565b62000d2e8262000db7565b810181811067ffffffffffffffff8211171562000d505762000d4f62000d88565b5b80604052505050565b7f4e487b7100000000000000000000000000000000000000000000000000000000600052602260045260246000fd5b7f4e487b7100000000000000000000000000000000000000000000000000000000600052604160045260246000fd5b6000601f19601f8301169050919050565b62000dd38162000c3f565b811462000ddf57600080fd5b50565b62000ded8162000c49565b811462000df957600080fd5b50565b62000e078162000c9f565b811462000e1357600080fd5b50565b613b908062000e266000396000f3fe6080604052600436106102045760003560e01c806366ec7aa911610118578063b88d4fde116100a0578063ccb4807b1161006f578063ccb4807b14610724578063df8f460f1461074d578063e985e9c514610778578063f2853292146107b5578063f2fde38b146107de57610204565b8063b88d4fde14610665578063c4d74a2114610681578063c879fb96146106be578063c87b56dd146106e757610204565b806395d89b41116100e757806395d89b41146105805780639951f2df146105ab578063a22cb465146105d6578063a2e69613146105ff578063a9dc638e1461063c57610204565b806366ec7aa9146104d857806370a0823114610501578063715018a61461053e5780638da5cb5b1461055557610204565b806323471d181161019b57806342842e0e1161016a57806342842e0e1461041157806355f804b31461042d5780635a950e3e146104565780635b885ed71461047f5780636352211e1461049b57610204565b806323471d181461038457806323b872dd146103ad5780632a55205a146103c95780633ccfd60b1461040757610204565b8063095ea7b3116101d7578063095ea7b3146102d75780630f3886ef146102f3578063180f11d51461033057806318160ddd1461035957610204565b806301ffc9a71461020957806302fa7c471461024657806306fdde031461026f578063081812fc1461029a575b600080fd5b34801561021557600080fd5b50610230600480360381019061022b9190612c70565b610807565b60405161023d91906131c7565b60405180910390f35b34801561025257600080fd5b5061026d60048036038101906102689190612b7b565b610849565b005b34801561027b57600080fd5b506102846108c7565b60405161029191906131e2565b60405180910390f35b3480156102a657600080fd5b506102c160048036038101906102bc9190612d07565b610959565b6040516102ce9190613137565b60405180910390f35b6102f160048036038101906102ec9190612b3f565b6109d8565b005b3480156102ff57600080fd5b5061031a60048036038101906103159190612bb7565b610b1c565b60405161032791906131c7565b60405180910390f35b34801561033c57600080fd5b5061035760048036038101906103529190612c34565b610b33565b005b34801561036557600080fd5b5061036e610b4d565b60405161037b91906133e4565b60405180910390f35b34801561039057600080fd5b506103ab60048036038101906103a691906129d4565b610b64565b005b6103c760048036038101906103c29190612a39565b610bb0565b005b3480156103d557600080fd5b506103f060048036038101906103eb9190612d97565b610ed5565b6040516103fe92919061319e565b60405180910390f35b61040f610f0f565b005b61042b60048036038101906104269190612a39565b611009565b005b34801561043957600080fd5b50610454600480360381019061044f9190612cc2565b611029565b005b34801561046257600080fd5b5061047d60048036038101906104789190612d97565b611047565b005b61049960048036038101906104949190612d30565b611061565b005b3480156104a757600080fd5b506104c260048036038101906104bd9190612d07565b6116e7565b6040516104cf9190613137565b60405180910390f35b3480156104e457600080fd5b506104ff60048036038101906104fa9190612c0b565b6116f9565b005b34801561050d57600080fd5b50610528600480360381019061052391906129d4565b61170b565b60405161053591906133e4565b60405180910390f35b34801561054a57600080fd5b506105536117c4565b005b34801561056157600080fd5b5061056a6117d8565b6040516105779190613137565b60405180910390f35b34801561058c57600080fd5b50610595611802565b6040516105a291906131e2565b60405180910390f35b3480156105b757600080fd5b506105c0611894565b6040516105cd91906133e4565b60405180910390f35b3480156105e257600080fd5b506105fd60048036038101906105f89190612b03565b6118a3565b005b34801561060b57600080fd5b5061062660048036038101906106219190612d07565b6119ae565b60405161063391906133e4565b60405180910390f35b34801561064857600080fd5b50610663600480360381019061065e9190612c0b565b6119f8565b005b61067f600480360381019061067a9190612a88565b611a0a565b005b34801561068d57600080fd5b506106a860048036038101906106a39190612bb7565b611a7d565b6040516106b591906131c7565b60405180910390f35b3480156106ca57600080fd5b506106e560048036038101906106e09190612dd3565b611a94565b005b3480156106f357600080fd5b5061070e60048036038101906107099190612d07565b611b26565b60405161071b91906131e2565b60405180910390f35b34801561073057600080fd5b5061074b60048036038101906107469190612cc2565b611bc5565b005b34801561075957600080fd5b50610762611be3565b60405161076f91906133e4565b60405180910390f35b34801561078457600080fd5b5061079f600480360381019061079a91906129fd565b611bf3565b6040516107ac91906131c7565b60405180910390f35b3480156107c157600080fd5b506107dc60048036038101906107d791906129d4565b611c87565b005b3480156107ea57600080fd5b50610805600480360381019061080091906129d4565b611cd3565b005b6000632a55205a60e01b827bffffffffffffffffffffffffffffffffffffffffffffffffffffffff19161480610842575061084182611d57565b5b9050919050565b610851611de9565b81601360006101000a81548173ffffffffffffffffffffffffffffffffffffffff021916908373ffffffffffffffffffffffffffffffffffffffff16021790555080601260146101000a8154816bffffffffffffffffffffffff02191690836bffffffffffffffffffffffff1602179055505050565b6060600280546108d69061368d565b80601f01602080910402602001604051908101604052809291908181526020018280546109029061368d565b801561094f5780601f106109245761010080835404028352916020019161094f565b820191906000526020600020905b81548152906001019060200180831161093257829003601f168201915b5050505050905090565b600061096482611e67565b61099a576040517fcf4700e400000000000000000000000000000000000000000000000000000000815260040160405180910390fd5b6006600083815260200190815260200160002060000160009054906101000a900473ffffffffffffffffffffffffffffffffffffffff169050919050565b60006109e3826116e7565b90508073ffffffffffffffffffffffffffffffffffffffff16610a04611ec6565b73ffffffffffffffffffffffffffffffffffffffff1614610a6757610a3081610a2b611ec6565b611bf3565b610a66576040517fcfb3b94200000000000000000000000000000000000000000000000000000000815260040160405180910390fd5b5b826006600084815260200190815260200160002060000160006101000a81548173ffffffffffffffffffffffffffffffffffffffff021916908373ffffffffffffffffffffffffffffffffffffffff160217905550818373ffffffffffffffffffffffffffffffffffffffff168273ffffffffffffffffffffffffffffffffffffffff167f8c5be1e5ebec7d5bd14f71427d1e84f3dd0314c0f7b2291e5b200ac8c7c3b92560405160405180910390a4505050565b6000610b2b8360175484611ece565b905092915050565b610b3b611de9565b81601681905550806017819055505050565b6000610b57611ee5565b6001546000540303905090565b610b6c611de9565b80601160006101000a81548173ffffffffffffffffffffffffffffffffffffffff021916908373ffffffffffffffffffffffffffffffffffffffff16021790555050565b6000610bbb82611eea565b90508373ffffffffffffffffffffffffffffffffffffffff168173ffffffffffffffffffffffffffffffffffffffff1614610c22576040517fa114810000000000000000000000000000000000000000000000000000000000815260040160405180910390fd5b600080610c2e84611fb8565b91509150610c448187610c3f611ec6565b611fdf565b610c9057610c5986610c54611ec6565b611bf3565b610c8f576040517f59c896be00000000000000000000000000000000000000000000000000000000815260040160405180910390fd5b5b600073ffffffffffffffffffffffffffffffffffffffff168573ffffffffffffffffffffffffffffffffffffffff161415610cf7576040517fea553b3400000000000000000000000000000000000000000000000000000000815260040160405180910390fd5b610d048686866001612023565b8015610d0f57600082555b600560008773ffffffffffffffffffffffffffffffffffffffff1673ffffffffffffffffffffffffffffffffffffffff168152602001908152602001600020600081546001900391905081905550600560008673ffffffffffffffffffffffffffffffffffffffff1673ffffffffffffffffffffffffffffffffffffffff1681526020019081526020016000206000815460010191905081905550610ddd85610db9888887612029565b7c020000000000000000000000000000000000000000000000000000000017612051565b600460008681526020019081526020016000208190555060007c020000000000000000000000000000000000000000000000000000000084161415610e65576000600185019050600060046000838152602001908152602001600020541415610e63576000548114610e62578360046000838152602001908152602001600020819055505b5b505b838573ffffffffffffffffffffffffffffffffffffffff168773ffffffffffffffffffffffffffffffffffffffff167fddf252ad1be2c89b69c2b068fc378daa952ba7f163c4a11628f55a4df523b3ef60405160405180910390a4610ecd868686600161207c565b505050505050565b600080601360009054906101000a900473ffffffffffffffffffffffffffffffffffffffff16610f04846119ae565b915091509250929050565b610f17611de9565b60006064600f47610f28919061354b565b610f32919061351a565b9050601160009054906101000a900473ffffffffffffffffffffffffffffffffffffffff1673ffffffffffffffffffffffffffffffffffffffff166108fc829081150290604051600060405180830381858888f19350505050158015610f9c573d6000803e3d6000fd5b50601260009054906101000a900473ffffffffffffffffffffffffffffffffffffffff1673ffffffffffffffffffffffffffffffffffffffff166108fc479081150290604051600060405180830381858888f19350505050158015611005573d6000803e3d6000fd5b5050565b61102483838360405180602001604052806000815250611a0a565b505050565b611031611de9565b818160199190611042929190612741565b505050565b61104f611de9565b81600e8190555080600f819055505050565b600d548361106d610b4d565b61107791906134c4565b11156110b8576040517f08c379a00000000000000000000000000000000000000000000000000000000081526004016110af90613384565b60405180910390fd5b6110c28282611a7d565b601860006101000a81548160ff0219169083151502179055506110e58282610b1c565b601860016101000a81548160ff02191690831515021790555060011515601860019054906101000a900460ff16151514156111335782600f54611128919061354b565b601481905550611172565b60011515601860009054906101000a900460ff161515141561115c576000601481905550611171565b82600e5461116a919061354b565b6014819055505b5b60011515601860009054906101000a900460ff16151514156111f057600161119933612082565b106111eb5760016111a933612082565b14156111ea576040517f08c379a00000000000000000000000000000000000000000000000000000000081526004016111e190613284565b60405180910390fd5b5b6112e5565b60011515601860019054906101000a900460ff161515141561126e57600261121733612082565b1061126957600261122733612082565b1415611268576040517f08c379a000000000000000000000000000000000000000000000000000000000815260040161125f90613264565b60405180910390fd5b5b6112e4565b60095461127a33612082565b8461128591906134c4565b11156112e35760095461129733612082565b846112a291906134c4565b106112e2576040517f08c379a00000000000000000000000000000000000000000000000000000000081526004016112d9906132e4565b60405180910390fd5b5b5b5b6014543414611329576040517f08c379a000000000000000000000000000000000000000000000000000000000815260040161132090613304565b60405180910390fd5b601060009054906101000a900463ffffffff1663ffffffff16421015611384576040517f08c379a000000000000000000000000000000000000000000000000000000000815260040161137b906133c4565b60405180910390fd5b60011515601860019054906101000a900460ff1615151415611469576107d0600b5411156113e7576040517f08c379a00000000000000000000000000000000000000000000000000000000081526004016113de90613224565b60405180910390fd5b601060049054906101000a900463ffffffff1663ffffffff164210611441576040517f08c379a0000000000000000000000000000000000000000000000000000000008152600401611438906133a4565b60405180910390fd5b61144b33846120d9565b82600b600082825461145d91906134c4565b925050819055506116e2565b60011515601860009054906101000a900460ff1615151415611627576101f4600c5411156114cc576040517f08c379a00000000000000000000000000000000000000000000000000000000081526004016114c3906132c4565b60405180910390fd5b6001831461150f576040517f08c379a000000000000000000000000000000000000000000000000000000000815260040161150690613344565b60405180910390fd5b601060089054906101000a900463ffffffff1663ffffffff164210611569576040517f08c379a000000000000000000000000000000000000000000000000000000000815260040161156090613204565b60405180910390fd5b601060049054906101000a900463ffffffff1663ffffffff164210158061159957506103e9611596610b4d565b10155b156115c6576115a833846120d9565b82600c60008282546115ba91906134c4565b92505081905550611622565b601060049054906101000a900463ffffffff1663ffffffff16421015611621576040517f08c379a000000000000000000000000000000000000000000000000000000000815260040161161890613364565b60405180910390fd5b5b6116e1565b6010600c9054906101000a900463ffffffff1663ffffffff164210158061165757506105dd611654610b4d565b10155b156116845761166633846120d9565b82600a600082825461167891906134c4565b925050819055506116e0565b6010600c9054906101000a900463ffffffff1663ffffffff164210156116df576040517f08c379a00000000000000000000000000000000000000000000000000000000081526004016116d6906132a4565b60405180910390fd5b5b5b5b505050565b60006116f282611eea565b9050919050565b611701611de9565b8060168190555050565b60008073ffffffffffffffffffffffffffffffffffffffff168273ffffffffffffffffffffffffffffffffffffffff161415611773576040517f8f4eb60400000000000000000000000000000000000000000000000000000000815260040160405180910390fd5b67ffffffffffffffff600560008473ffffffffffffffffffffffffffffffffffffffff1673ffffffffffffffffffffffffffffffffffffffff16815260200190815260200160002054169050919050565b6117cc611de9565b6117d660006120f7565b565b6000600860009054906101000a900473ffffffffffffffffffffffffffffffffffffffff16905090565b6060600380546118119061368d565b80601f016020809104026020016040519081016040528092919081815260200182805461183d9061368d565b801561188a5780601f1061185f5761010080835404028352916020019161188a565b820191906000526020600020905b81548152906001019060200180831161186d57829003601f168201915b5050505050905090565b600061189e610b4d565b905090565b80600760006118b0611ec6565b73ffffffffffffffffffffffffffffffffffffffff1673ffffffffffffffffffffffffffffffffffffffff16815260200190815260200160002060008473ffffffffffffffffffffffffffffffffffffffff1673ffffffffffffffffffffffffffffffffffffffff16815260200190815260200160002060006101000a81548160ff0219169083151502179055508173ffffffffffffffffffffffffffffffffffffffff1661195d611ec6565b73ffffffffffffffffffffffffffffffffffffffff167f17307eab39ab6107e8899845ad3d59bd9653f200f220920489ca2b5937696c31836040516119a291906131c7565b60405180910390a35050565b6000601260149054906101000a90046bffffffffffffffffffffffff166bffffffffffffffffffffffff16612710836119e7919061351a565b6119f1919061354b565b9050919050565b611a00611de9565b8060178190555050565b611a15848484610bb0565b60008373ffffffffffffffffffffffffffffffffffffffff163b14611a7757611a40848484846121bd565b611a76576040517fd1a57ed600000000000000000000000000000000000000000000000000000000815260040160405180910390fd5b5b50505050565b6000611a8c8360165484611ece565b905092915050565b611a9c611de9565b836010600c6101000a81548163ffffffff021916908363ffffffff16021790555082601060006101000a81548163ffffffff021916908363ffffffff16021790555081601060046101000a81548163ffffffff021916908363ffffffff16021790555080601060086101000a81548163ffffffff021916908363ffffffff16021790555050505050565b6060611b3182611e67565b611b67576040517fa14c4b5000000000000000000000000000000000000000000000000000000000815260040160405180910390fd5b6000611b7161231d565b9050600081511415611b925760405180602001604052806000815250611bbd565b80611b9c846123af565b604051602001611bad929190613113565b6040516020818303038152906040525b915050919050565b611bcd611de9565b818160159190611bde929190612741565b505050565b6000611bee33612082565b905090565b6000600760008473ffffffffffffffffffffffffffffffffffffffff1673ffffffffffffffffffffffffffffffffffffffff16815260200190815260200160002060008373ffffffffffffffffffffffffffffffffffffffff1673ffffffffffffffffffffffffffffffffffffffff16815260200190815260200160002060009054906101000a900460ff16905092915050565b611c8f611de9565b80601260006101000a81548173ffffffffffffffffffffffffffffffffffffffff021916908373ffffffffffffffffffffffffffffffffffffffff16021790555050565b611cdb611de9565b600073ffffffffffffffffffffffffffffffffffffffff168173ffffffffffffffffffffffffffffffffffffffff161415611d4b576040517f08c379a0000000000000000000000000000000000000000000000000000000008152600401611d4290613244565b60405180910390fd5b611d54816120f7565b50565b60006301ffc9a760e01b827bffffffffffffffffffffffffffffffffffffffffffffffffffffffff19161480611db257506380ac58cd60e01b827bffffffffffffffffffffffffffffffffffffffffffffffffffffffff1916145b80611de25750635b5e139f60e01b827bffffffffffffffffffffffffffffffffffffffffffffffffffffffff1916145b9050919050565b611df1612408565b73ffffffffffffffffffffffffffffffffffffffff16611e0f6117d8565b73ffffffffffffffffffffffffffffffffffffffff1614611e65576040517f08c379a0000000000000000000000000000000000000000000000000000000008152600401611e5c90613324565b60405180910390fd5b565b600081611e72611ee5565b11158015611e81575060005482105b8015611ebf575060007c0100000000000000000000000000000000000000000000000000000000600460008581526020019081526020016000205416145b9050919050565b600033905090565b600082611edb8584612410565b1490509392505050565b600090565b60008082905080611ef9611ee5565b11611f8157600054811015611f805760006004600083815260200190815260200160002054905060007c010000000000000000000000000000000000000000000000000000000082161415611f7e575b6000811415611f74576004600083600190039350838152602001908152602001600020549050611f49565b8092505050611fb3565b505b5b6040517fdf2d9b4200000000000000000000000000000000000000000000000000000000815260040160405180910390fd5b919050565b60008060006006600085815260200190815260200160002090508092508254915050915091565b600073ffffffffffffffffffffffffffffffffffffffff8316925073ffffffffffffffffffffffffffffffffffffffff821691508382148383141790509392505050565b50505050565b60008060e883901c905060e861204086868461248c565b62ffffff16901b9150509392505050565b600073ffffffffffffffffffffffffffffffffffffffff83169250814260a01b178317905092915050565b50505050565b600067ffffffffffffffff6040600560008573ffffffffffffffffffffffffffffffffffffffff1673ffffffffffffffffffffffffffffffffffffffff16815260200190815260200160002054901c169050919050565b6120f3828260405180602001604052806000815250612495565b5050565b6000600860009054906101000a900473ffffffffffffffffffffffffffffffffffffffff16905081600860006101000a81548173ffffffffffffffffffffffffffffffffffffffff021916908373ffffffffffffffffffffffffffffffffffffffff1602179055508173ffffffffffffffffffffffffffffffffffffffff168173ffffffffffffffffffffffffffffffffffffffff167f8be0079c531659141344cd1fd0a4f28419497f9722a3daafe3b4186f6b6457e060405160405180910390a35050565b60008373ffffffffffffffffffffffffffffffffffffffff1663150b7a026121e3611ec6565b8786866040518563ffffffff1660e01b81526004016122059493929190613152565b602060405180830381600087803b15801561221f57600080fd5b505af192505050801561225057506040513d601f19601f8201168201806040525081019061224d9190612c99565b60015b6122ca573d8060008114612280576040519150601f19603f3d011682016040523d82523d6000602084013e612285565b606091505b506000815114156122c2576040517fd1a57ed600000000000000000000000000000000000000000000000000000000815260040160405180910390fd5b805181602001fd5b63150b7a0260e01b7bffffffffffffffffffffffffffffffffffffffffffffffffffffffff1916817bffffffffffffffffffffffffffffffffffffffffffffffffffffffff191614915050949350505050565b60606019805461232c9061368d565b80601f01602080910402602001604051908101604052809291908181526020018280546123589061368d565b80156123a55780601f1061237a576101008083540402835291602001916123a5565b820191906000526020600020905b81548152906001019060200180831161238857829003601f168201915b5050505050905090565b606060a060405101806040526020810391506000825281835b6001156123f357600184039350600a81066030018453600a81049050806123ee576123f3565b6123c8565b50828103602084039350808452505050919050565b600033905090565b60008082905060005b84518110156124815761246c8286838151811061245f577f4e487b7100000000000000000000000000000000000000000000000000000000600052603260045260246000fd5b6020026020010151612532565b91508080612479906136f0565b915050612419565b508091505092915050565b60009392505050565b61249f838361255d565b60008373ffffffffffffffffffffffffffffffffffffffff163b1461252d57600080549050600083820390505b6124df60008683806001019450866121bd565b612515576040517fd1a57ed600000000000000000000000000000000000000000000000000000000815260040160405180910390fd5b8181106124cc57816000541461252a57600080fd5b50505b505050565b600081831061254a57612545828461271a565b612555565b612554838361271a565b5b905092915050565b600080549050600082141561259e576040517fb562e8dd00000000000000000000000000000000000000000000000000000000815260040160405180910390fd5b6125ab6000848385612023565b600160406001901b178202600560008573ffffffffffffffffffffffffffffffffffffffff1673ffffffffffffffffffffffffffffffffffffffff16815260200190815260200160002060008282540192505081905550612622836126136000866000612029565b61261c85612731565b17612051565b6004600083815260200190815260200160002081905550600080838301905073ffffffffffffffffffffffffffffffffffffffff85169150828260007fddf252ad1be2c89b69c2b068fc378daa952ba7f163c4a11628f55a4df523b3ef600080a4600183015b8181146126c357808360007fddf252ad1be2c89b69c2b068fc378daa952ba7f163c4a11628f55a4df523b3ef600080a4600181019050612688565b5060008214156126ff576040517f2e07630000000000000000000000000000000000000000000000000000000000815260040160405180910390fd5b806000819055505050612715600084838561207c565b505050565b600082600052816020526040600020905092915050565b60006001821460e11b9050919050565b82805461274d9061368d565b90600052602060002090601f01602090048101928261276f57600085556127b6565b82601f1061278857803560ff19168380011785556127b6565b828001600101855582156127b6579182015b828111156127b557823582559160200191906001019061279a565b5b5090506127c391906127c7565b5090565b5b808211156127e05760008160009055506001016127c8565b5090565b60006127f76127f284613424565b6133ff565b9050808382526020820190508285602086028201111561281657600080fd5b60005b85811015612846578161282c88826128e2565b845260208401935060208301925050600181019050612819565b5050509392505050565b600061286361285e84613450565b6133ff565b90508281526020810184848401111561287b57600080fd5b61288684828561364b565b509392505050565b60008135905061289d81613ab9565b92915050565b600082601f8301126128b457600080fd5b81356128c48482602086016127e4565b91505092915050565b6000813590506128dc81613ad0565b92915050565b6000813590506128f181613ae7565b92915050565b60008135905061290681613afe565b92915050565b60008151905061291b81613afe565b92915050565b600082601f83011261293257600080fd5b8135612942848260208601612850565b91505092915050565b60008083601f84011261295d57600080fd5b8235905067ffffffffffffffff81111561297657600080fd5b60208301915083600182028301111561298e57600080fd5b9250929050565b6000813590506129a481613b15565b92915050565b6000813590506129b981613b2c565b92915050565b6000813590506129ce81613b43565b92915050565b6000602082840312156129e657600080fd5b60006129f48482850161288e565b91505092915050565b60008060408385031215612a1057600080fd5b6000612a1e8582860161288e565b9250506020612a2f8582860161288e565b9150509250929050565b600080600060608486031215612a4e57600080fd5b6000612a5c8682870161288e565b9350506020612a6d8682870161288e565b9250506040612a7e86828701612995565b9150509250925092565b60008060008060808587031215612a9e57600080fd5b6000612aac8782880161288e565b9450506020612abd8782880161288e565b9350506040612ace87828801612995565b925050606085013567ffffffffffffffff811115612aeb57600080fd5b612af787828801612921565b91505092959194509250565b60008060408385031215612b1657600080fd5b6000612b248582860161288e565b9250506020612b35858286016128cd565b9150509250929050565b60008060408385031215612b5257600080fd5b6000612b608582860161288e565b9250506020612b7185828601612995565b9150509250929050565b60008060408385031215612b8e57600080fd5b6000612b9c8582860161288e565b9250506020612bad858286016129bf565b9150509250929050565b60008060408385031215612bca57600080fd5b600083013567ffffffffffffffff811115612be457600080fd5b612bf0858286016128a3565b9250506020612c01858286016128e2565b9150509250929050565b600060208284031215612c1d57600080fd5b6000612c2b848285016128e2565b91505092915050565b60008060408385031215612c4757600080fd5b6000612c55858286016128e2565b9250506020612c66858286016128e2565b9150509250929050565b600060208284031215612c8257600080fd5b6000612c90848285016128f7565b91505092915050565b600060208284031215612cab57600080fd5b6000612cb98482850161290c565b91505092915050565b60008060208385031215612cd557600080fd5b600083013567ffffffffffffffff811115612cef57600080fd5b612cfb8582860161294b565b92509250509250929050565b600060208284031215612d1957600080fd5b6000612d2784828501612995565b91505092915050565b600080600060608486031215612d4557600080fd5b6000612d5386828701612995565b935050602084013567ffffffffffffffff811115612d7057600080fd5b612d7c868287016128a3565b9250506040612d8d868287016128e2565b9150509250925092565b60008060408385031215612daa57600080fd5b6000612db885828601612995565b9250506020612dc985828601612995565b9150509250929050565b60008060008060808587031215612de957600080fd5b6000612df7878288016129aa565b9450506020612e08878288016129aa565b9350506040612e19878288016129aa565b9250506060612e2a878288016129aa565b91505092959194509250565b612e3f816135a5565b82525050565b612e4e816135b7565b82525050565b6000612e5f82613481565b612e698185613497565b9350612e7981856020860161365a565b612e82816137f5565b840191505092915050565b6000612e988261348c565b612ea281856134a8565b9350612eb281856020860161365a565b612ebb816137f5565b840191505092915050565b6000612ed18261348c565b612edb81856134b9565b9350612eeb81856020860161365a565b80840191505092915050565b6000612f046015836134a8565b9150612f0f82613806565b602082019050919050565b6000612f276024836134a8565b9150612f328261382f565b604082019050919050565b6000612f4a6026836134a8565b9150612f558261387e565b604082019050919050565b6000612f6d6018836134a8565b9150612f78826138cd565b602082019050919050565b6000612f906017836134a8565b9150612f9b826138f6565b602082019050919050565b6000612fb3601b836134a8565b9150612fbe8261391f565b602082019050919050565b6000612fd6601d836134a8565b9150612fe182613948565b602082019050919050565b6000612ff96018836134a8565b915061300482613971565b602082019050919050565b600061301c6016836134a8565b91506130278261399a565b602082019050919050565b600061303f6020836134a8565b915061304a826139c3565b602082019050919050565b60006130626017836134a8565b915061306d826139ec565b602082019050919050565b6000613085601a836134a8565b915061309082613a15565b602082019050919050565b60006130a86016836134a8565b91506130b382613a3e565b602082019050919050565b60006130cb6011836134a8565b91506130d682613a67565b602082019050919050565b60006130ee6014836134a8565b91506130f982613a90565b602082019050919050565b61310d81613619565b82525050565b600061311f8285612ec6565b915061312b8284612ec6565b91508190509392505050565b600060208201905061314c6000830184612e36565b92915050565b60006080820190506131676000830187612e36565b6131746020830186612e36565b6131816040830185613104565b81810360608301526131938184612e54565b905095945050505050565b60006040820190506131b36000830185612e36565b6131c06020830184613104565b9392505050565b60006020820190506131dc6000830184612e45565b92915050565b600060208201905081810360008301526131fc8184612e8d565b905092915050565b6000602082019050818103600083015261321d81612ef7565b9050919050565b6000602082019050818103600083015261323d81612f1a565b9050919050565b6000602082019050818103600083015261325d81612f3d565b9050919050565b6000602082019050818103600083015261327d81612f60565b9050919050565b6000602082019050818103600083015261329d81612f83565b9050919050565b600060208201905081810360008301526132bd81612fa6565b9050919050565b600060208201905081810360008301526132dd81612fc9565b9050919050565b600060208201905081810360008301526132fd81612fec565b9050919050565b6000602082019050818103600083015261331d8161300f565b9050919050565b6000602082019050818103600083015261333d81613032565b9050919050565b6000602082019050818103600083015261335d81613055565b9050919050565b6000602082019050818103600083015261337d81613078565b9050919050565b6000602082019050818103600083015261339d8161309b565b9050919050565b600060208201905081810360008301526133bd816130be565b9050919050565b600060208201905081810360008301526133dd816130e1565b9050919050565b60006020820190506133f96000830184613104565b92915050565b600061340961341a565b905061341582826136bf565b919050565b6000604051905090565b600067ffffffffffffffff82111561343f5761343e6137c6565b5b602082029050602081019050919050565b600067ffffffffffffffff82111561346b5761346a6137c6565b5b613474826137f5565b9050602081019050919050565b600081519050919050565b600081519050919050565b600082825260208201905092915050565b600082825260208201905092915050565b600081905092915050565b60006134cf82613619565b91506134da83613619565b9250827fffffffffffffffffffffffffffffffffffffffffffffffffffffffffffffffff0382111561350f5761350e613739565b5b828201905092915050565b600061352582613619565b915061353083613619565b9250826135405761353f613768565b5b828204905092915050565b600061355682613619565b915061356183613619565b9250817fffffffffffffffffffffffffffffffffffffffffffffffffffffffffffffffff048311821515161561359a57613599613739565b5b828202905092915050565b60006135b0826135f9565b9050919050565b60008115159050919050565b6000819050919050565b60007fffffffff0000000000000000000000000000000000000000000000000000000082169050919050565b600073ffffffffffffffffffffffffffffffffffffffff82169050919050565b6000819050919050565b600063ffffffff82169050919050565b60006bffffffffffffffffffffffff82169050919050565b82818337600083830152505050565b60005b8381101561367857808201518184015260208101905061365d565b83811115613687576000848401525b50505050565b600060028204905060018216806136a557607f821691505b602082108114156136b9576136b8613797565b5b50919050565b6136c8826137f5565b810181811067ffffffffffffffff821117156136e7576136e66137c6565b5b80604052505050565b60006136fb82613619565b91507fffffffffffffffffffffffffffffffffffffffffffffffffffffffffffffffff82141561372e5761372d613739565b5b600182019050919050565b7f4e487b7100000000000000000000000000000000000000000000000000000000600052601160045260246000fd5b7f4e487b7100000000000000000000000000000000000000000000000000000000600052601260045260246000fd5b7f4e487b7100000000000000000000000000000000000000000000000000000000600052602260045260246000fd5b7f4e487b7100000000000000000000000000000000000000000000000000000000600052604160045260246000fd5b6000601f19601f8301169050919050565b7f57686974654c697374204d696e7420656e6465642e0000000000000000000000600082015250565b7f4e6f7420456e6f75676820546f6b656e73204c65667420666f7220736b756c6c60008201527f4c69737400000000000000000000000000000000000000000000000000000000602082015250565b7f4f776e61626c653a206e6577206f776e657220697320746865207a65726f206160008201527f6464726573730000000000000000000000000000000000000000000000000000602082015250565b7f596f752063616e206f6e6c79206d696e742032204e4654730000000000000000600082015250565b7f596f752063616e206f6e6c79206d696e742031204e4654000000000000000000600082015250565b7f5075626c6963204d696e74206e6f742079657420537461727465640000000000600082015250565b7f4e6f7420456e6f75676820546f6b656e73204c65667420666f72204f47000000600082015250565b7f596f752063616e206f6e6c79206d696e742035204e4654730000000000000000600082015250565b7f4e6f7420456e6f756768204574686572732053656e7400000000000000000000600082015250565b7f4f776e61626c653a2063616c6c6572206973206e6f7420746865206f776e6572600082015250565b7f596f752063616e206d696e74206f6e6c792031206e6674000000000000000000600082015250565b7f4f47205374696c6c20486176652054696d6520546f204d696e74000000000000600082015250565b7f4e6f7420456e6f75676820546f6b656e73204c65667400000000000000000000600082015250565b7f536b756c6c206d696e7420656e6465642e000000000000000000000000000000600082015250565b7f4d696e74204e6f74205965742053746172746564000000000000000000000000600082015250565b613ac2816135a5565b8114613acd57600080fd5b50565b613ad9816135b7565b8114613ae457600080fd5b50565b613af0816135c3565b8114613afb57600080fd5b50565b613b07816135cd565b8114613b1257600080fd5b50565b613b1e81613619565b8114613b2957600080fd5b50565b613b3581613623565b8114613b4057600080fd5b50565b613b4c81613633565b8114613b5757600080fd5b5056fea2646970667358221220f6a95feb9a28df2fc1ca20649ca91e1d08ef22f4d90b81cbf8c659b03abefa7464736f6c6343000804003368747470733a2f2f696e646965736b756c6c73796e6469636174652e6d7970696e6174612e636c6f75642f697066732f516d53785a74456b52634264574c3953376e454250333335426336544e4d6d3648396e6d465864713656565573482f",
  "devdoc": {
    "kind": "dev",
    "methods": {
      "approve(address,uint256)": {
        "details": "Gives permission to `to` to transfer `tokenId` token to another account. The approval is cleared when the token is transferred. Only a single account can be approved at a time, so approving the zero address clears previous approvals. Requirements: - The caller must own the token or be an approved operator. - `tokenId` must exist. Emits an {Approval} event."
      },
      "balanceOf(address)": {
        "details": "Returns the number of tokens in `owner`'s account."
      },
      "getApproved(uint256)": {
        "details": "Returns the account approved for `tokenId` token. Requirements: - `tokenId` must exist."
      },
      "isApprovedForAll(address,address)": {
        "details": "Returns if the `operator` is allowed to manage all of the assets of `owner`. See {setApprovalForAll}."
      },
      "name()": {
        "details": "Returns the token collection name."
      },
      "owner()": {
        "details": "Returns the address of the current owner."
      },
      "ownerOf(uint256)": {
        "details": "Returns the owner of the `tokenId` token. Requirements: - `tokenId` must exist."
      },
      "renounceOwnership()": {
        "details": "Leaves the contract without owner. It will not be possible to call `onlyOwner` functions anymore. Can only be called by the current owner. NOTE: Renouncing ownership will leave the contract without an owner, thereby removing any functionality that is only available to the owner."
      },
      "safeTransferFrom(address,address,uint256)": {
        "details": "Equivalent to `safeTransferFrom(from, to, tokenId, '')`."
      },
      "safeTransferFrom(address,address,uint256,bytes)": {
        "details": "Safely transfers `tokenId` token from `from` to `to`. Requirements: - `from` cannot be the zero address. - `to` cannot be the zero address. - `tokenId` token must exist and be owned by `from`. - If the caller is not `from`, it must be approved to move this token by either {approve} or {setApprovalForAll}. - If `to` refers to a smart contract, it must implement {IERC721Receiver-onERC721Received}, which is called upon a safe transfer. Emits a {Transfer} event."
      },
      "setApprovalForAll(address,bool)": {
        "details": "Approve or remove `operator` as an operator for the caller. Operators can call {transferFrom} or {safeTransferFrom} for any token owned by the caller. Requirements: - The `operator` cannot be the caller. Emits an {ApprovalForAll} event."
      },
      "supportsInterface(bytes4)": {
        "details": "Returns true if this contract implements the interface defined by `interfaceId`. See the corresponding [EIP section](https://eips.ethereum.org/EIPS/eip-165#how-interfaces-are-identified) to learn more about how these ids are created. This function call must use less than 30000 gas."
      },
      "symbol()": {
        "details": "Returns the token collection symbol."
      },
      "tokenURI(uint256)": {
        "details": "Returns the Uniform Resource Identifier (URI) for `tokenId` token."
      },
      "totalSupply()": {
        "details": "Returns the total number of tokens in existence. Burned tokens will reduce the count. To get the total number of tokens minted, please see {_totalMinted}."
      },
      "transferFrom(address,address,uint256)": {
        "details": "Transfers `tokenId` from `from` to `to`. Requirements: - `from` cannot be the zero address. - `to` cannot be the zero address. - `tokenId` token must be owned by `from`. - If the caller is not `from`, it must be approved to move this token by either {approve} or {setApprovalForAll}. Emits a {Transfer} event."
      },
      "transferOwnership(address)": {
        "details": "Transfers ownership of the contract to a new account (`newOwner`). Can only be called by the current owner."
      }
    },
    "version": 1
  },
  "userdoc": {
    "errors": {
      "ApprovalCallerNotOwnerNorApproved()": [
        {
          "notice": "The caller must own the token or be an approved operator."
        }
      ],
      "ApprovalQueryForNonexistentToken()": [
        {
          "notice": "The token does not exist."
        }
      ],
      "BalanceQueryForZeroAddress()": [
        {
          "notice": "Cannot query the balance for the zero address."
        }
      ],
      "MintERC2309QuantityExceedsLimit()": [
        {
          "notice": "The `quantity` minted with ERC2309 exceeds the safety limit."
        }
      ],
      "MintToZeroAddress()": [
        {
          "notice": "Cannot mint to the zero address."
        }
      ],
      "MintZeroQuantity()": [
        {
          "notice": "The quantity of tokens minted must be more than zero."
        }
      ],
      "OwnerQueryForNonexistentToken()": [
        {
          "notice": "The token does not exist."
        }
      ],
      "OwnershipNotInitializedForExtraData()": [
        {
          "notice": "The `extraData` cannot be set on an unintialized ownership slot."
        }
      ],
      "TransferCallerNotOwnerNorApproved()": [
        {
          "notice": "The caller must own the token or be an approved operator."
        }
      ],
      "TransferFromIncorrectOwner()": [
        {
          "notice": "The token must be owned by `from`."
        }
      ],
      "TransferToNonERC721ReceiverImplementer()": [
        {
          "notice": "Cannot safely transfer to a contract that does not implement the ERC721Receiver interface."
        }
      ],
      "TransferToZeroAddress()": [
        {
          "notice": "Cannot transfer to the zero address."
        }
      ],
      "URIQueryForNonexistentToken()": [
        {
          "notice": "The token does not exist."
        }
      ]
    },
    "kind": "user",
    "methods": {},
    "version": 1
  },
  "storageLayout": {
    "storage": [
      {
        "astId": 728,
        "contract": "contracts/indie-skull-contract.sol:skullSyndicate",
        "label": "_currentIndex",
        "offset": 0,
        "slot": "0",
        "type": "t_uint256"
      },
      {
        "astId": 730,
        "contract": "contracts/indie-skull-contract.sol:skullSyndicate",
        "label": "_burnCounter",
        "offset": 0,
        "slot": "1",
        "type": "t_uint256"
      },
      {
        "astId": 732,
        "contract": "contracts/indie-skull-contract.sol:skullSyndicate",
        "label": "_name",
        "offset": 0,
        "slot": "2",
        "type": "t_string_storage"
      },
      {
        "astId": 734,
        "contract": "contracts/indie-skull-contract.sol:skullSyndicate",
        "label": "_symbol",
        "offset": 0,
        "slot": "3",
        "type": "t_string_storage"
      },
      {
        "astId": 738,
        "contract": "contracts/indie-skull-contract.sol:skullSyndicate",
        "label": "_packedOwnerships",
        "offset": 0,
        "slot": "4",
        "type": "t_mapping(t_uint256,t_uint256)"
      },
      {
        "astId": 742,
        "contract": "contracts/indie-skull-contract.sol:skullSyndicate",
        "label": "_packedAddressData",
        "offset": 0,
        "slot": "5",
        "type": "t_mapping(t_address,t_uint256)"
      },
      {
        "astId": 747,
        "contract": "contracts/indie-skull-contract.sol:skullSyndicate",
        "label": "_tokenApprovals",
        "offset": 0,
        "slot": "6",
        "type": "t_mapping(t_uint256,t_struct(TokenApprovalRef)660_storage)"
      },
      {
        "astId": 753,
        "contract": "contracts/indie-skull-contract.sol:skullSyndicate",
        "label": "_operatorApprovals",
        "offset": 0,
        "slot": "7",
        "type": "t_mapping(t_address,t_mapping(t_address,t_bool))"
      },
      {
        "astId": 7,
        "contract": "contracts/indie-skull-contract.sol:skullSyndicate",
        "label": "_owner",
        "offset": 0,
        "slot": "8",
        "type": "t_address"
      },
      {
        "astId": 2477,
        "contract": "contracts/indie-skull-contract.sol:skullSyndicate",
        "label": "MAX_MINTS",
        "offset": 0,
        "slot": "9",
        "type": "t_uint256"
      },
      {
        "astId": 2479,
        "contract": "contracts/indie-skull-contract.sol:skullSyndicate",
        "label": "Public_Mints",
        "offset": 0,
        "slot": "10",
        "type": "t_uint256"
      },
      {
        "astId": 2481,
        "contract": "contracts/indie-skull-contract.sol:skullSyndicate",
        "label": "Skull_Mints",
        "offset": 0,
        "slot": "11",
        "type": "t_uint256"
      },
      {
        "astId": 2483,
        "contract": "contracts/indie-skull-contract.sol:skullSyndicate",
        "label": "WL_Mints",
        "offset": 0,
        "slot": "12",
        "type": "t_uint256"
      },
      {
        "astId": 2486,
        "contract": "contracts/indie-skull-contract.sol:skullSyndicate",
        "label": "MAX_SUPPLY",
        "offset": 0,
        "slot": "13",
        "type": "t_uint256"
      },
      {
        "astId": 2489,
        "contract": "contracts/indie-skull-contract.sol:skullSyndicate",
        "label": "mint_Price",
        "offset": 0,
        "slot": "14",
        "type": "t_uint256"
      },
      {
        "astId": 2492,
        "contract": "contracts/indie-skull-contract.sol:skullSyndicate",
        "label": "skull_List_Mint_Price",
        "offset": 0,
        "slot": "15",
        "type": "t_uint256"
      },
      {
        "astId": 2495,
        "contract": "contracts/indie-skull-contract.sol:skullSyndicate",
        "label": "Skull_List_Time",
        "offset": 0,
        "slot": "16",
        "type": "t_uint32"
      },
      {
        "astId": 2498,
        "contract": "contracts/indie-skull-contract.sol:skullSyndicate",
        "label": "whiteList_Time",
        "offset": 4,
        "slot": "16",
        "type": "t_uint32"
      },
      {
        "astId": 2501,
        "contract": "contracts/indie-skull-contract.sol:skullSyndicate",
        "label": "end_of_WL_mint",
        "offset": 8,
        "slot": "16",
        "type": "t_uint32"
      },
      {
        "astId": 2504,
        "contract": "contracts/indie-skull-contract.sol:skullSyndicate",
        "label": "mint_Time",
        "offset": 12,
        "slot": "16",
        "type": "t_uint32"
      },
      {
        "astId": 2507,
        "contract": "contracts/indie-skull-contract.sol:skullSyndicate",
        "label": "DeveloperAddress",
        "offset": 0,
        "slot": "17",
        "type": "t_address"
      },
      {
        "astId": 2510,
        "contract": "contracts/indie-skull-contract.sol:skullSyndicate",
        "label": "OwnerAddress",
        "offset": 0,
        "slot": "18",
        "type": "t_address"
      },
      {
        "astId": 2512,
        "contract": "contracts/indie-skull-contract.sol:skullSyndicate",
        "label": "royaltyFeesInBips",
        "offset": 20,
        "slot": "18",
        "type": "t_uint96"
      },
      {
        "astId": 2514,
        "contract": "contracts/indie-skull-contract.sol:skullSyndicate",
        "label": "royaltyReceiver",
        "offset": 0,
        "slot": "19",
        "type": "t_address"
      },
      {
        "astId": 2516,
        "contract": "contracts/indie-skull-contract.sol:skullSyndicate",
        "label": "amount",
        "offset": 0,
        "slot": "20",
        "type": "t_uint256"
      },
      {
        "astId": 2518,
        "contract": "contracts/indie-skull-contract.sol:skullSyndicate",
        "label": "contractURI",
        "offset": 0,
        "slot": "21",
        "type": "t_string_storage"
      },
      {
        "astId": 2520,
        "contract": "contracts/indie-skull-contract.sol:skullSyndicate",
        "label": "whiteList_root",
        "offset": 0,
        "slot": "22",
        "type": "t_bytes32"
      },
      {
        "astId": 2522,
        "contract": "contracts/indie-skull-contract.sol:skullSyndicate",
        "label": "skull_root",
        "offset": 0,
        "slot": "23",
        "type": "t_bytes32"
      },
      {
        "astId": 2524,
        "contract": "contracts/indie-skull-contract.sol:skullSyndicate",
        "label": "checkWL",
        "offset": 0,
        "slot": "24",
        "type": "t_bool"
      },
      {
        "astId": 2526,
        "contract": "contracts/indie-skull-contract.sol:skullSyndicate",
        "label": "checkSkull",
        "offset": 1,
        "slot": "24",
        "type": "t_bool"
      },
      {
        "astId": 2529,
        "contract": "contracts/indie-skull-contract.sol:skullSyndicate",
        "label": "baseURI",
        "offset": 0,
        "slot": "25",
        "type": "t_string_storage"
      }
    ],
    "types": {
      "t_address": {
        "encoding": "inplace",
        "label": "address",
        "numberOfBytes": "20"
      },
      "t_bool": {
        "encoding": "inplace",
        "label": "bool",
        "numberOfBytes": "1"
      },
      "t_bytes32": {
        "encoding": "inplace",
        "label": "bytes32",
        "numberOfBytes": "32"
      },
      "t_mapping(t_address,t_bool)": {
        "encoding": "mapping",
        "key": "t_address",
        "label": "mapping(address => bool)",
        "numberOfBytes": "32",
        "value": "t_bool"
      },
      "t_mapping(t_address,t_mapping(t_address,t_bool))": {
        "encoding": "mapping",
        "key": "t_address",
        "label": "mapping(address => mapping(address => bool))",
        "numberOfBytes": "32",
        "value": "t_mapping(t_address,t_bool)"
      },
      "t_mapping(t_address,t_uint256)": {
        "encoding": "mapping",
        "key": "t_address",
        "label": "mapping(address => uint256)",
        "numberOfBytes": "32",
        "value": "t_uint256"
      },
      "t_mapping(t_uint256,t_struct(TokenApprovalRef)660_storage)": {
        "encoding": "mapping",
        "key": "t_uint256",
        "label": "mapping(uint256 => struct ERC721A.TokenApprovalRef)",
        "numberOfBytes": "32",
        "value": "t_struct(TokenApprovalRef)660_storage"
      },
      "t_mapping(t_uint256,t_uint256)": {
        "encoding": "mapping",
        "key": "t_uint256",
        "label": "mapping(uint256 => uint256)",
        "numberOfBytes": "32",
        "value": "t_uint256"
      },
      "t_string_storage": {
        "encoding": "bytes",
        "label": "string",
        "numberOfBytes": "32"
      },
      "t_struct(TokenApprovalRef)660_storage": {
        "encoding": "inplace",
        "label": "struct ERC721A.TokenApprovalRef",
        "members": [
          {
            "astId": 659,
            "contract": "contracts/indie-skull-contract.sol:skullSyndicate",
            "label": "value",
            "offset": 0,
            "slot": "0",
            "type": "t_address"
          }
        ],
        "numberOfBytes": "32"
      },
      "t_uint256": {
        "encoding": "inplace",
        "label": "uint256",
        "numberOfBytes": "32"
      },
      "t_uint32": {
        "encoding": "inplace",
        "label": "uint32",
        "numberOfBytes": "4"
      },
      "t_uint96": {
        "encoding": "inplace",
        "label": "uint96",
        "numberOfBytes": "12"
      }
    }
  }
}