{
  "address": "0xF6dC6862C35FC898D4380c218836e01721910e09",
  "abi": [
    {
      "inputs": [
        {
          "internalType": "uint96",
          "name": "_royaltyFeesInBips",
          "type": "uint96"
        },
        {
          "internalType": "string",
          "name": "_contractURI",
          "type": "string"
        },
        {
          "internalType": "bytes32",
          "name": "_whiteList_root",
          "type": "bytes32"
        },
        {
          "internalType": "bytes32",
          "name": "_skull_root",
          "type": "bytes32"
        }
      ],
      "stateMutability": "nonpayable",
      "type": "constructor"
    },
    {
      "inputs": [],
      "name": "ApprovalCallerNotOwnerNorApproved",
      "type": "error"
    },
    {
      "inputs": [],
      "name": "ApprovalQueryForNonexistentToken",
      "type": "error"
    },
    {
      "inputs": [],
      "name": "BalanceQueryForZeroAddress",
      "type": "error"
    },
    {
      "inputs": [],
      "name": "MintERC2309QuantityExceedsLimit",
      "type": "error"
    },
    {
      "inputs": [],
      "name": "MintToZeroAddress",
      "type": "error"
    },
    {
      "inputs": [],
      "name": "MintZeroQuantity",
      "type": "error"
    },
    {
      "inputs": [],
      "name": "OwnerQueryForNonexistentToken",
      "type": "error"
    },
    {
      "inputs": [],
      "name": "OwnershipNotInitializedForExtraData",
      "type": "error"
    },
    {
      "inputs": [],
      "name": "TransferCallerNotOwnerNorApproved",
      "type": "error"
    },
    {
      "inputs": [],
      "name": "TransferFromIncorrectOwner",
      "type": "error"
    },
    {
      "inputs": [],
      "name": "TransferToNonERC721ReceiverImplementer",
      "type": "error"
    },
    {
      "inputs": [],
      "name": "TransferToZeroAddress",
      "type": "error"
    },
    {
      "inputs": [],
      "name": "URIQueryForNonexistentToken",
      "type": "error"
    },
    {
      "anonymous": false,
      "inputs": [
        {
          "indexed": true,
          "internalType": "address",
          "name": "owner",
          "type": "address"
        },
        {
          "indexed": true,
          "internalType": "address",
          "name": "approved",
          "type": "address"
        },
        {
          "indexed": true,
          "internalType": "uint256",
          "name": "tokenId",
          "type": "uint256"
        }
      ],
      "name": "Approval",
      "type": "event"
    },
    {
      "anonymous": false,
      "inputs": [
        {
          "indexed": true,
          "internalType": "address",
          "name": "owner",
          "type": "address"
        },
        {
          "indexed": true,
          "internalType": "address",
          "name": "operator",
          "type": "address"
        },
        {
          "indexed": false,
          "internalType": "bool",
          "name": "approved",
          "type": "bool"
        }
      ],
      "name": "ApprovalForAll",
      "type": "event"
    },
    {
      "anonymous": false,
      "inputs": [
        {
          "indexed": true,
          "internalType": "uint256",
          "name": "fromTokenId",
          "type": "uint256"
        },
        {
          "indexed": false,
          "internalType": "uint256",
          "name": "toTokenId",
          "type": "uint256"
        },
        {
          "indexed": true,
          "internalType": "address",
          "name": "from",
          "type": "address"
        },
        {
          "indexed": true,
          "internalType": "address",
          "name": "to",
          "type": "address"
        }
      ],
      "name": "ConsecutiveTransfer",
      "type": "event"
    },
    {
      "anonymous": false,
      "inputs": [
        {
          "indexed": true,
          "internalType": "address",
          "name": "previousOwner",
          "type": "address"
        },
        {
          "indexed": true,
          "internalType": "address",
          "name": "newOwner",
          "type": "address"
        }
      ],
      "name": "OwnershipTransferred",
      "type": "event"
    },
    {
      "anonymous": false,
      "inputs": [
        {
          "indexed": true,
          "internalType": "address",
          "name": "from",
          "type": "address"
        },
        {
          "indexed": true,
          "internalType": "address",
          "name": "to",
          "type": "address"
        },
        {
          "indexed": true,
          "internalType": "uint256",
          "name": "tokenId",
          "type": "uint256"
        }
      ],
      "name": "Transfer",
      "type": "event"
    },
    {
      "inputs": [
        {
          "internalType": "address",
          "name": "_OwnerAddress",
          "type": "address"
        }
      ],
      "name": "ChangeOwner",
      "outputs": [],
      "stateMutability": "nonpayable",
      "type": "function"
    },
    {
      "inputs": [
        {
          "internalType": "bytes32",
          "name": "_root",
          "type": "bytes32"
        }
      ],
      "name": "add_WhiteList_Hash",
      "outputs": [],
      "stateMutability": "nonpayable",
      "type": "function"
    },
    {
      "inputs": [
        {
          "internalType": "bytes32",
          "name": "_root",
          "type": "bytes32"
        }
      ],
      "name": "add_skullList_Hash",
      "outputs": [],
      "stateMutability": "nonpayable",
      "type": "function"
    },
    {
      "inputs": [
        {
          "internalType": "address",
          "name": "to",
          "type": "address"
        },
        {
          "internalType": "uint256",
          "name": "tokenId",
          "type": "uint256"
        }
      ],
      "name": "approve",
      "outputs": [],
      "stateMutability": "payable",
      "type": "function"
    },
    {
      "inputs": [
        {
          "internalType": "address",
          "name": "owner",
          "type": "address"
        }
      ],
      "name": "balanceOf",
      "outputs": [
        {
          "internalType": "uint256",
          "name": "",
          "type": "uint256"
        }
      ],
      "stateMutability": "view",
      "type": "function"
    },
    {
      "inputs": [
        {
          "internalType": "uint256",
          "name": "_salePrice",
          "type": "uint256"
        }
      ],
      "name": "calculateRoyalty",
      "outputs": [
        {
          "internalType": "uint256",
          "name": "",
          "type": "uint256"
        }
      ],
      "stateMutability": "view",
      "type": "function"
    },
    {
      "inputs": [
        {
          "internalType": "uint256",
          "name": "tokenId",
          "type": "uint256"
        }
      ],
      "name": "getApproved",
      "outputs": [
        {
          "internalType": "address",
          "name": "",
          "type": "address"
        }
      ],
      "stateMutability": "view",
      "type": "function"
    },
    {
      "inputs": [
        {
          "internalType": "address",
          "name": "owner",
          "type": "address"
        },
        {
          "internalType": "address",
          "name": "operator",
          "type": "address"
        }
      ],
      "name": "isApprovedForAll",
      "outputs": [
        {
          "internalType": "bool",
          "name": "",
          "type": "bool"
        }
      ],
      "stateMutability": "view",
      "type": "function"
    },
    {
      "inputs": [
        {
          "internalType": "uint256",
          "name": "quantity",
          "type": "uint256"
        },
        {
          "internalType": "bytes32[]",
          "name": "proof",
          "type": "bytes32[]"
        },
        {
          "internalType": "bytes32",
          "name": "leaf",
          "type": "bytes32"
        }
      ],
      "name": "mint",
      "outputs": [],
      "stateMutability": "payable",
      "type": "function"
    },
    {
      "inputs": [],
      "name": "name",
      "outputs": [
        {
          "internalType": "string",
          "name": "",
          "type": "string"
        }
      ],
      "stateMutability": "view",
      "type": "function"
    },
    {
      "inputs": [],
      "name": "owner",
      "outputs": [
        {
          "internalType": "address",
          "name": "",
          "type": "address"
        }
      ],
      "stateMutability": "view",
      "type": "function"
    },
    {
      "inputs": [
        {
          "internalType": "uint256",
          "name": "tokenId",
          "type": "uint256"
        }
      ],
      "name": "ownerOf",
      "outputs": [
        {
          "internalType": "address",
          "name": "",
          "type": "address"
        }
      ],
      "stateMutability": "view",
      "type": "function"
    },
    {
      "inputs": [],
      "name": "renounceOwnership",
      "outputs": [],
      "stateMutability": "nonpayable",
      "type": "function"
    },
    {
      "inputs": [
        {
          "internalType": "uint256",
          "name": "",
          "type": "uint256"
        },
        {
          "internalType": "uint256",
          "name": "_salePrice",
          "type": "uint256"
        }
      ],
      "name": "royaltyInfo",
      "outputs": [
        {
          "internalType": "address",
          "name": "receiver",
          "type": "address"
        },
        {
          "internalType": "uint256",
          "name": "royaltyAmount",
          "type": "uint256"
        }
      ],
      "stateMutability": "view",
      "type": "function"
    },
    {
      "inputs": [
        {
          "internalType": "address",
          "name": "from",
          "type": "address"
        },
        {
          "internalType": "address",
          "name": "to",
          "type": "address"
        },
        {
          "internalType": "uint256",
          "name": "tokenId",
          "type": "uint256"
        }
      ],
      "name": "safeTransferFrom",
      "outputs": [],
      "stateMutability": "payable",
      "type": "function"
    },
    {
      "inputs": [
        {
          "internalType": "address",
          "name": "from",
          "type": "address"
        },
        {
          "internalType": "address",
          "name": "to",
          "type": "address"
        },
        {
          "internalType": "uint256",
          "name": "tokenId",
          "type": "uint256"
        },
        {
          "internalType": "bytes",
          "name": "_data",
          "type": "bytes"
        }
      ],
      "name": "safeTransferFrom",
      "outputs": [],
      "stateMutability": "payable",
      "type": "function"
    },
    {
      "inputs": [
        {
          "internalType": "address",
          "name": "operator",
          "type": "address"
        },
        {
          "internalType": "bool",
          "name": "approved",
          "type": "bool"
        }
      ],
      "name": "setApprovalForAll",
      "outputs": [],
      "stateMutability": "nonpayable",
      "type": "function"
    },
    {
      "inputs": [
        {
          "internalType": "string",
          "name": "_baseUri",
          "type": "string"
        }
      ],
      "name": "setBaseURI",
      "outputs": [],
      "stateMutability": "nonpayable",
      "type": "function"
    },
    {
      "inputs": [
        {
          "internalType": "address",
          "name": "_collab",
          "type": "address"
        }
      ],
      "name": "setCollabAddress",
      "outputs": [],
      "stateMutability": "nonpayable",
      "type": "function"
    },
    {
      "inputs": [
        {
          "internalType": "string",
          "name": "_contractURI",
          "type": "string"
        }
      ],
      "name": "setContractUri",
      "outputs": [],
      "stateMutability": "nonpayable",
      "type": "function"
    },
    {
      "inputs": [
        {
          "internalType": "bytes32",
          "name": "_whiteList_root",
          "type": "bytes32"
        },
        {
          "internalType": "bytes32",
          "name": "_skull_root",
          "type": "bytes32"
        }
      ],
      "name": "setRootHashes",
      "outputs": [],
      "stateMutability": "nonpayable",
      "type": "function"
    },
    {
      "inputs": [
        {
          "internalType": "address",
          "name": "_receiver",
          "type": "address"
        },
        {
          "internalType": "uint96",
          "name": "_royaltyFeesInBips",
          "type": "uint96"
        }
      ],
      "name": "setRoyaltyInfo",
      "outputs": [],
      "stateMutability": "nonpayable",
      "type": "function"
    },
    {
      "inputs": [
        {
          "internalType": "address",
          "name": "_developer",
          "type": "address"
        }
      ],
      "name": "setStakeAddress",
      "outputs": [],
      "stateMutability": "nonpayable",
      "type": "function"
    },
    {
      "inputs": [
        {
          "internalType": "uint32",
          "name": "_stamp",
          "type": "uint32"
        },
        {
          "internalType": "uint32",
          "name": "_Skull_List_Time",
          "type": "uint32"
        },
        {
          "internalType": "uint32",
          "name": "_wl",
          "type": "uint32"
        },
        {
          "internalType": "uint32",
          "name": "_end_of_WL_mint",
          "type": "uint32"
        }
      ],
      "name": "setTimer",
      "outputs": [],
      "stateMutability": "nonpayable",
      "type": "function"
    },
    {
      "inputs": [
        {
          "internalType": "bytes32[]",
          "name": "proof",
          "type": "bytes32[]"
        },
        {
          "internalType": "bytes32",
          "name": "leaf",
          "type": "bytes32"
        }
      ],
      "name": "skullList_MerkleVerify",
      "outputs": [
        {
          "internalType": "bool",
          "name": "",
          "type": "bool"
        }
      ],
      "stateMutability": "view",
      "type": "function"
    },
    {
      "inputs": [],
      "name": "suppliedNFTs",
      "outputs": [
        {
          "internalType": "uint256",
          "name": "",
          "type": "uint256"
        }
      ],
      "stateMutability": "view",
      "type": "function"
    },
    {
      "inputs": [
        {
          "internalType": "bytes4",
          "name": "interfaceId",
          "type": "bytes4"
        }
      ],
      "name": "supportsInterface",
      "outputs": [
        {
          "internalType": "bool",
          "name": "",
          "type": "bool"
        }
      ],
      "stateMutability": "view",
      "type": "function"
    },
    {
      "inputs": [],
      "name": "symbol",
      "outputs": [
        {
          "internalType": "string",
          "name": "",
          "type": "string"
        }
      ],
      "stateMutability": "view",
      "type": "function"
    },
    {
      "inputs": [
        {
          "internalType": "uint256",
          "name": "tokenId",
          "type": "uint256"
        }
      ],
      "name": "tokenURI",
      "outputs": [
        {
          "internalType": "string",
          "name": "",
          "type": "string"
        }
      ],
      "stateMutability": "view",
      "type": "function"
    },
    {
      "inputs": [],
      "name": "totalSupply",
      "outputs": [
        {
          "internalType": "uint256",
          "name": "",
          "type": "uint256"
        }
      ],
      "stateMutability": "view",
      "type": "function"
    },
    {
      "inputs": [
        {
          "internalType": "address",
          "name": "from",
          "type": "address"
        },
        {
          "internalType": "address",
          "name": "to",
          "type": "address"
        },
        {
          "internalType": "uint256",
          "name": "tokenId",
          "type": "uint256"
        }
      ],
      "name": "transferFrom",
      "outputs": [],
      "stateMutability": "payable",
      "type": "function"
    },
    {
      "inputs": [
        {
          "internalType": "address",
          "name": "newOwner",
          "type": "address"
        }
      ],
      "name": "transferOwnership",
      "outputs": [],
      "stateMutability": "nonpayable",
      "type": "function"
    },
    {
      "inputs": [],
      "name": "userMint",
      "outputs": [
        {
          "internalType": "uint256",
          "name": "",
          "type": "uint256"
        }
      ],
      "stateMutability": "view",
      "type": "function"
    },
    {
      "inputs": [
        {
          "internalType": "bytes32[]",
          "name": "proof",
          "type": "bytes32[]"
        },
        {
          "internalType": "bytes32",
          "name": "leaf",
          "type": "bytes32"
        }
      ],
      "name": "whiteList_MerkleVerify",
      "outputs": [
        {
          "internalType": "bool",
          "name": "",
          "type": "bool"
        }
      ],
      "stateMutability": "view",
      "type": "function"
    },
    {
      "inputs": [],
      "name": "withdraw",
      "outputs": [],
      "stateMutability": "payable",
      "type": "function"
    }
  ],
  "transactionHash": "0xab8500b91a6744954dd06e99ee4afbe7997396520db55b3a3223232974a92900",
  "args": [
    1000,
    "https://indieskullsyndicate.mypinata.cloud/ipfs/QmSxZtEkRcBdWL9S7nEBP335Bc6TNMm6H9nmFXdq6VVUsH/",
    "0xb31cbecb7ace68fa3a61aea9b7c5a53e6600e22bdd48d5d86aacfa49a7054442",
    "0xe43d6b7879443295f93be98d79f2ccdcddfd32e460b5c4301866b8900d971863"
  ],
  "numDeployments": 1,
  "solcInputHash": "00dba2a60dd0c1ae61085fe976291c5e",
  "bytecode": "0x608060405260026009556109c4600d5566354a6ba7a18000600e55661ff973cafa8000600f5563633d8de0601060006101000a81548163ffffffff021916908363ffffffff16021790555063633da2f8601060046101000a81548163ffffffff021916908363ffffffff16021790555063633dbf18601060086101000a81548163ffffffff021916908363ffffffff16021790555063633ddb386010600c6101000a81548163ffffffff021916908363ffffffff16021790555073b96dfc3e4cbe9da6f072d57c13b5efb44c8b192c601160006101000a81548173ffffffffffffffffffffffffffffffffffffffff021916908373ffffffffffffffffffffffffffffffffffffffff16021790555073b328200eca7c688646af1c8bb25b6e9b8ed11368601260006101000a81548173ffffffffffffffffffffffffffffffffffffffff021916908373ffffffffffffffffffffffffffffffffffffffff16021790555073fbeeeb35cb3c94861b7edc5fe460efdca9716f19601360006101000a81548173ffffffffffffffffffffffffffffffffffffffff021916908373ffffffffffffffffffffffffffffffffffffffff1602179055506040518060800160405280605f815260200162004abd605f9139601a9080519060200190620001e992919062000936565b50348015620001f757600080fd5b5060405162004b1c38038062004b1c83398181016040528101906200021d919062000ac9565b6040518060400160405280601581526020017f496e64696520536b756c6c2053796e64696361746500000000000000000000008152506040518060400160405280600581526020017f246b756c6c0000000000000000000000000000000000000000000000000000008152508160029080519060200190620002a192919062000936565b508060039080519060200190620002ba92919062000936565b50620002cb620003a960201b60201c565b6000819055505050620002f3620002e7620003ae60201b60201c565b620003b660201b60201c565b83601360146101000a8154816bffffffffffffffffffffffff02191690836bffffffffffffffffffffffff16021790555082601690805190602001906200033c92919062000936565b50816017819055508060188190555033601460006101000a81548173ffffffffffffffffffffffffffffffffffffffff021916908373ffffffffffffffffffffffffffffffffffffffff1602179055506200039f3360016200047c60201b60201c565b5050505062000e6b565b600090565b600033905090565b6000600860009054906101000a900473ffffffffffffffffffffffffffffffffffffffff16905081600860006101000a81548173ffffffffffffffffffffffffffffffffffffffff021916908373ffffffffffffffffffffffffffffffffffffffff1602179055508173ffffffffffffffffffffffffffffffffffffffff168173ffffffffffffffffffffffffffffffffffffffff167f8be0079c531659141344cd1fd0a4f28419497f9722a3daafe3b4186f6b6457e060405160405180910390a35050565b6200049e828260405180602001604052806000815250620004a260201b60201c565b5050565b620004b483836200055360201b60201c565b60008373ffffffffffffffffffffffffffffffffffffffff163b146200054e57600080549050600083820390505b620004fd60008683806001019450866200073c60201b60201c565b62000534576040517fd1a57ed600000000000000000000000000000000000000000000000000000000815260040160405180910390fd5b818110620004e25781600054146200054b57600080fd5b50505b505050565b600080549050600082141562000595576040517fb562e8dd00000000000000000000000000000000000000000000000000000000815260040160405180910390fd5b620005aa6000848385620008ae60201b60201c565b600160406001901b178202600560008573ffffffffffffffffffffffffffffffffffffffff1673ffffffffffffffffffffffffffffffffffffffff1681526020019081526020016000206000828254019250508190555062000639836200061b6000866000620008b460201b60201c565b6200062c85620008e460201b60201c565b17620008f460201b60201c565b6004600083815260200190815260200160002081905550600080838301905073ffffffffffffffffffffffffffffffffffffffff85169150828260007fddf252ad1be2c89b69c2b068fc378daa952ba7f163c4a11628f55a4df523b3ef600080a4600183015b818114620006dc57808360007fddf252ad1be2c89b69c2b068fc378daa952ba7f163c4a11628f55a4df523b3ef600080a46001810190506200069f565b50600082141562000719576040517f2e07630000000000000000000000000000000000000000000000000000000000815260040160405180910390fd5b8060008190555050506200073760008483856200091f60201b60201c565b505050565b60008373ffffffffffffffffffffffffffffffffffffffff1663150b7a026200076a6200092560201b60201c565b8786866040518563ffffffff1660e01b81526004016200078e949392919062000bb1565b602060405180830381600087803b158015620007a957600080fd5b505af1925050508015620007dd57506040513d601f19601f82011682018060405250810190620007da919062000a9d565b60015b6200085b573d806000811462000810576040519150601f19603f3d011682016040523d82523d6000602084013e62000815565b606091505b5060008151141562000853576040517fd1a57ed600000000000000000000000000000000000000000000000000000000815260040160405180910390fd5b805181602001fd5b63150b7a0260e01b7bffffffffffffffffffffffffffffffffffffffffffffffffffffffff1916817bffffffffffffffffffffffffffffffffffffffffffffffffffffffff191614915050949350505050565b50505050565b60008060e883901c905060e8620008d38686846200092d60201b60201c565b62ffffff16901b9150509392505050565b60006001821460e11b9050919050565b600073ffffffffffffffffffffffffffffffffffffffff83169250814260a01b178317905092915050565b50505050565b600033905090565b60009392505050565b828054620009449062000d42565b90600052602060002090601f016020900481019282620009685760008555620009b4565b82601f106200098357805160ff1916838001178555620009b4565b82800160010185558215620009b4579182015b82811115620009b357825182559160200191906001019062000996565b5b509050620009c39190620009c7565b5090565b5b80821115620009e2576000816000905550600101620009c8565b5090565b6000620009fd620009f78462000c2e565b62000c05565b90508281526020810184848401111562000a1657600080fd5b62000a2384828562000d0c565b509392505050565b60008151905062000a3c8162000e1d565b92915050565b60008151905062000a538162000e37565b92915050565b600082601f83011262000a6b57600080fd5b815162000a7d848260208601620009e6565b91505092915050565b60008151905062000a978162000e51565b92915050565b60006020828403121562000ab057600080fd5b600062000ac08482850162000a42565b91505092915050565b6000806000806080858703121562000ae057600080fd5b600062000af08782880162000a86565b945050602085015167ffffffffffffffff81111562000b0e57600080fd5b62000b1c8782880162000a59565b935050604062000b2f8782880162000a2b565b925050606062000b428782880162000a2b565b91505092959194509250565b62000b598162000c80565b82525050565b600062000b6c8262000c64565b62000b78818562000c6f565b935062000b8a81856020860162000d0c565b62000b958162000e0c565b840191505092915050565b62000bab8162000cea565b82525050565b600060808201905062000bc8600083018762000b4e565b62000bd7602083018662000b4e565b62000be6604083018562000ba0565b818103606083015262000bfa818462000b5f565b905095945050505050565b600062000c1162000c24565b905062000c1f828262000d78565b919050565b6000604051905090565b600067ffffffffffffffff82111562000c4c5762000c4b62000ddd565b5b62000c578262000e0c565b9050602081019050919050565b600081519050919050565b600082825260208201905092915050565b600062000c8d8262000cca565b9050919050565b6000819050919050565b60007fffffffff0000000000000000000000000000000000000000000000000000000082169050919050565b600073ffffffffffffffffffffffffffffffffffffffff82169050919050565b6000819050919050565b60006bffffffffffffffffffffffff82169050919050565b60005b8381101562000d2c57808201518184015260208101905062000d0f565b8381111562000d3c576000848401525b50505050565b6000600282049050600182168062000d5b57607f821691505b6020821081141562000d725762000d7162000dae565b5b50919050565b62000d838262000e0c565b810181811067ffffffffffffffff8211171562000da55762000da462000ddd565b5b80604052505050565b7f4e487b7100000000000000000000000000000000000000000000000000000000600052602260045260246000fd5b7f4e487b7100000000000000000000000000000000000000000000000000000000600052604160045260246000fd5b6000601f19601f8301169050919050565b62000e288162000c94565b811462000e3457600080fd5b50565b62000e428162000c9e565b811462000e4e57600080fd5b50565b62000e5c8162000cf4565b811462000e6857600080fd5b50565b613c428062000e7b6000396000f3fe6080604052600436106102045760003560e01c806370a0823111610118578063c4d74a21116100a0578063df8f460f1161006f578063df8f460f14610724578063e985e9c51461074f578063eee156d01461078c578063f2853292146107b5578063f2fde38b146107de57610204565b8063c4d74a2114610658578063c879fb9614610695578063c87b56dd146106be578063ccb4807b146106fb57610204565b80639951f2df116100e75780639951f2df14610582578063a22cb465146105ad578063a2e69613146105d6578063a9dc638e14610613578063b88d4fde1461063c57610204565b806370a08231146104d8578063715018a6146105155780638da5cb5b1461052c57806395d89b411461055757610204565b806323471d181161019b57806342842e0e1161016a57806342842e0e1461041157806355f804b31461042d5780635b885ed7146104565780636352211e1461047257806366ec7aa9146104af57610204565b806323471d181461038457806323b872dd146103ad5780632a55205a146103c95780633ccfd60b1461040757610204565b8063095ea7b3116101d7578063095ea7b3146102d75780630f3886ef146102f3578063180f11d51461033057806318160ddd1461035957610204565b806301ffc9a71461020957806302fa7c471461024657806306fdde031461026f578063081812fc1461029a575b600080fd5b34801561021557600080fd5b50610230600480360381019061022b9190612d68565b610807565b60405161023d919061329c565b60405180910390f35b34801561025257600080fd5b5061026d60048036038101906102689190612c73565b610849565b005b34801561027b57600080fd5b506102846108c7565b60405161029191906132b7565b60405180910390f35b3480156102a657600080fd5b506102c160048036038101906102bc9190612dff565b610959565b6040516102ce919061320c565b60405180910390f35b6102f160048036038101906102ec9190612c37565b6109d8565b005b3480156102ff57600080fd5b5061031a60048036038101906103159190612caf565b610b1c565b604051610327919061329c565b60405180910390f35b34801561033c57600080fd5b5061035760048036038101906103529190612d2c565b610b33565b005b34801561036557600080fd5b5061036e610b4d565b60405161037b9190613499565b60405180910390f35b34801561039057600080fd5b506103ab60048036038101906103a69190612acc565b610b64565b005b6103c760048036038101906103c29190612b31565b610bb0565b005b3480156103d557600080fd5b506103f060048036038101906103eb9190612e8f565b610ed5565b6040516103fe929190613273565b60405180910390f35b61040f610f0f565b005b61042b60048036038101906104269190612b31565b611090565b005b34801561043957600080fd5b50610454600480360381019061044f9190612dba565b6110b0565b005b610470600480360381019061046b9190612e28565b6110ce565b005b34801561047e57600080fd5b5061049960048036038101906104949190612dff565b611793565b6040516104a6919061320c565b60405180910390f35b3480156104bb57600080fd5b506104d660048036038101906104d19190612d03565b6117a5565b005b3480156104e457600080fd5b506104ff60048036038101906104fa9190612acc565b6117b7565b60405161050c9190613499565b60405180910390f35b34801561052157600080fd5b5061052a611870565b005b34801561053857600080fd5b50610541611884565b60405161054e919061320c565b60405180910390f35b34801561056357600080fd5b5061056c6118ae565b60405161057991906132b7565b60405180910390f35b34801561058e57600080fd5b50610597611940565b6040516105a49190613499565b60405180910390f35b3480156105b957600080fd5b506105d460048036038101906105cf9190612bfb565b61194f565b005b3480156105e257600080fd5b506105fd60048036038101906105f89190612dff565b611a5a565b60405161060a9190613499565b60405180910390f35b34801561061f57600080fd5b5061063a60048036038101906106359190612d03565b611aa4565b005b61065660048036038101906106519190612b80565b611ab6565b005b34801561066457600080fd5b5061067f600480360381019061067a9190612caf565b611b29565b60405161068c919061329c565b60405180910390f35b3480156106a157600080fd5b506106bc60048036038101906106b79190612ecb565b611b40565b005b3480156106ca57600080fd5b506106e560048036038101906106e09190612dff565b611bd2565b6040516106f291906132b7565b60405180910390f35b34801561070757600080fd5b50610722600480360381019061071d9190612dba565b611c71565b005b34801561073057600080fd5b50610739611c8f565b6040516107469190613499565b60405180910390f35b34801561075b57600080fd5b5061077660048036038101906107719190612af5565b611c9f565b604051610783919061329c565b60405180910390f35b34801561079857600080fd5b506107b360048036038101906107ae9190612acc565b611d33565b005b3480156107c157600080fd5b506107dc60048036038101906107d79190612acc565b611d7f565b005b3480156107ea57600080fd5b5061080560048036038101906108009190612acc565b611dcb565b005b6000632a55205a60e01b827bffffffffffffffffffffffffffffffffffffffffffffffffffffffff19161480610842575061084182611e4f565b5b9050919050565b610851611ee1565b81601460006101000a81548173ffffffffffffffffffffffffffffffffffffffff021916908373ffffffffffffffffffffffffffffffffffffffff16021790555080601360146101000a8154816bffffffffffffffffffffffff02191690836bffffffffffffffffffffffff1602179055505050565b6060600280546108d690613742565b80601f016020809104026020016040519081016040528092919081815260200182805461090290613742565b801561094f5780601f106109245761010080835404028352916020019161094f565b820191906000526020600020905b81548152906001019060200180831161093257829003601f168201915b5050505050905090565b600061096482611f5f565b61099a576040517fcf4700e400000000000000000000000000000000000000000000000000000000815260040160405180910390fd5b6006600083815260200190815260200160002060000160009054906101000a900473ffffffffffffffffffffffffffffffffffffffff169050919050565b60006109e382611793565b90508073ffffffffffffffffffffffffffffffffffffffff16610a04611fbe565b73ffffffffffffffffffffffffffffffffffffffff1614610a6757610a3081610a2b611fbe565b611c9f565b610a66576040517fcfb3b94200000000000000000000000000000000000000000000000000000000815260040160405180910390fd5b5b826006600084815260200190815260200160002060000160006101000a81548173ffffffffffffffffffffffffffffffffffffffff021916908373ffffffffffffffffffffffffffffffffffffffff160217905550818373ffffffffffffffffffffffffffffffffffffffff168273ffffffffffffffffffffffffffffffffffffffff167f8c5be1e5ebec7d5bd14f71427d1e84f3dd0314c0f7b2291e5b200ac8c7c3b92560405160405180910390a4505050565b6000610b2b8360185484611fc6565b905092915050565b610b3b611ee1565b81601781905550806018819055505050565b6000610b57611fdd565b6001546000540303905090565b610b6c611ee1565b80601160006101000a81548173ffffffffffffffffffffffffffffffffffffffff021916908373ffffffffffffffffffffffffffffffffffffffff16021790555050565b6000610bbb82611fe2565b90508373ffffffffffffffffffffffffffffffffffffffff168173ffffffffffffffffffffffffffffffffffffffff1614610c22576040517fa114810000000000000000000000000000000000000000000000000000000000815260040160405180910390fd5b600080610c2e846120b0565b91509150610c448187610c3f611fbe565b6120d7565b610c9057610c5986610c54611fbe565b611c9f565b610c8f576040517f59c896be00000000000000000000000000000000000000000000000000000000815260040160405180910390fd5b5b600073ffffffffffffffffffffffffffffffffffffffff168573ffffffffffffffffffffffffffffffffffffffff161415610cf7576040517fea553b3400000000000000000000000000000000000000000000000000000000815260040160405180910390fd5b610d04868686600161211b565b8015610d0f57600082555b600560008773ffffffffffffffffffffffffffffffffffffffff1673ffffffffffffffffffffffffffffffffffffffff168152602001908152602001600020600081546001900391905081905550600560008673ffffffffffffffffffffffffffffffffffffffff1673ffffffffffffffffffffffffffffffffffffffff1681526020019081526020016000206000815460010191905081905550610ddd85610db9888887612121565b7c020000000000000000000000000000000000000000000000000000000017612149565b600460008681526020019081526020016000208190555060007c020000000000000000000000000000000000000000000000000000000084161415610e65576000600185019050600060046000838152602001908152602001600020541415610e63576000548114610e62578360046000838152602001908152602001600020819055505b5b505b838573ffffffffffffffffffffffffffffffffffffffff168773ffffffffffffffffffffffffffffffffffffffff167fddf252ad1be2c89b69c2b068fc378daa952ba7f163c4a11628f55a4df523b3ef60405160405180910390a4610ecd8686866001612174565b505050505050565b600080601460009054906101000a900473ffffffffffffffffffffffffffffffffffffffff16610f0484611a5a565b915091509250929050565b610f17611ee1565b60006064600f47610f289190613600565b610f3291906135cf565b905060006064600f47610f459190613600565b610f4f91906135cf565b9050601160009054906101000a900473ffffffffffffffffffffffffffffffffffffffff1673ffffffffffffffffffffffffffffffffffffffff166108fc839081150290604051600060405180830381858888f19350505050158015610fb9573d6000803e3d6000fd5b50601360009054906101000a900473ffffffffffffffffffffffffffffffffffffffff1673ffffffffffffffffffffffffffffffffffffffff166108fc829081150290604051600060405180830381858888f19350505050158015611022573d6000803e3d6000fd5b50601260009054906101000a900473ffffffffffffffffffffffffffffffffffffffff1673ffffffffffffffffffffffffffffffffffffffff166108fc479081150290604051600060405180830381858888f1935050505015801561108b573d6000803e3d6000fd5b505050565b6110ab83838360405180602001604052806000815250611ab6565b505050565b6110b8611ee1565b8181601a91906110c9929190612839565b505050565b600d54836110da610b4d565b6110e49190613579565b1115611125576040517f08c379a000000000000000000000000000000000000000000000000000000000815260040161111c90613439565b60405180910390fd5b61112f8282611b29565b601960006101000a81548160ff0219169083151502179055506111528282610b1c565b601960016101000a81548160ff02191690831515021790555060011515601960019054906101000a900460ff16151514156111a05782600f546111959190613600565b6015819055506111df565b60011515601960009054906101000a900460ff16151514156111c95760006015819055506111de565b82600e546111d79190613600565b6015819055505b5b60011515601960009054906101000a900460ff1615151480611214575060011515601960019054906101000a900460ff161515145b1561127b5760016112243361217a565b106112765760016112343361217a565b1415611275576040517f08c379a000000000000000000000000000000000000000000000000000000000815260040161126c90613359565b60405180910390fd5b5b6112f1565b6009546112873361217a565b846112929190613579565b11156112f0576009546112a43361217a565b846112af9190613579565b106112ef576040517f08c379a00000000000000000000000000000000000000000000000000000000081526004016112e690613339565b60405180910390fd5b5b5b601554341015611336576040517f08c379a000000000000000000000000000000000000000000000000000000000815260040161132d90613399565b60405180910390fd5b601060009054906101000a900463ffffffff1663ffffffff16421015611391576040517f08c379a000000000000000000000000000000000000000000000000000000000815260040161138890613479565b60405180910390fd5b60011515601960019054906101000a900460ff16151514156114b9576103e8600b5411156113f4576040517f08c379a00000000000000000000000000000000000000000000000000000000081526004016113eb906132f9565b60405180910390fd5b601060049054906101000a900463ffffffff1663ffffffff16421061144e576040517f08c379a000000000000000000000000000000000000000000000000000000000815260040161144590613459565b60405180910390fd5b60018314611491576040517f08c379a0000000000000000000000000000000000000000000000000000000008152600401611488906133f9565b60405180910390fd5b61149b33846121d1565b82600b60008282546114ad9190613579565b9250508190555061178e565b60011515601960009054906101000a900460ff1615151415611677576101f4600c54111561151c576040517f08c379a000000000000000000000000000000000000000000000000000000000815260040161151390613379565b60405180910390fd5b6001831461155f576040517f08c379a0000000000000000000000000000000000000000000000000000000008152600401611556906133f9565b60405180910390fd5b6010600c9054906101000a900463ffffffff1663ffffffff1642106115b9576040517f08c379a00000000000000000000000000000000000000000000000000000000081526004016115b0906132d9565b60405180910390fd5b601060089054906101000a900463ffffffff1663ffffffff16421015806115e957506107d16115e6610b4d565b10155b15611616576115f833846121d1565b82600c600082825461160a9190613579565b92505081905550611672565b601060089054906101000a900463ffffffff1663ffffffff16421015611671576040517f08c379a000000000000000000000000000000000000000000000000000000000815260040161166890613419565b60405180910390fd5b5b61178d565b601060049054906101000a900463ffffffff1663ffffffff16421015806116a757506103e96116a4610b4d565b10155b1561178c576010600c9054906101000a900463ffffffff1663ffffffff1642101561171c576107d16116d7610b4d565b10611717576040517f08c379a000000000000000000000000000000000000000000000000000000000815260040161170e906133d9565b60405180910390fd5b611768565b6109c4611727610b4d565b10611767576040517f08c379a000000000000000000000000000000000000000000000000000000000815260040161175e906133d9565b60405180910390fd5b5b61177233846121d1565b82600a60008282546117849190613579565b925050819055505b5b5b505050565b600061179e82611fe2565b9050919050565b6117ad611ee1565b8060178190555050565b60008073ffffffffffffffffffffffffffffffffffffffff168273ffffffffffffffffffffffffffffffffffffffff16141561181f576040517f8f4eb60400000000000000000000000000000000000000000000000000000000815260040160405180910390fd5b67ffffffffffffffff600560008473ffffffffffffffffffffffffffffffffffffffff1673ffffffffffffffffffffffffffffffffffffffff16815260200190815260200160002054169050919050565b611878611ee1565b61188260006121ef565b565b6000600860009054906101000a900473ffffffffffffffffffffffffffffffffffffffff16905090565b6060600380546118bd90613742565b80601f01602080910402602001604051908101604052809291908181526020018280546118e990613742565b80156119365780601f1061190b57610100808354040283529160200191611936565b820191906000526020600020905b81548152906001019060200180831161191957829003601f168201915b5050505050905090565b600061194a610b4d565b905090565b806007600061195c611fbe565b73ffffffffffffffffffffffffffffffffffffffff1673ffffffffffffffffffffffffffffffffffffffff16815260200190815260200160002060008473ffffffffffffffffffffffffffffffffffffffff1673ffffffffffffffffffffffffffffffffffffffff16815260200190815260200160002060006101000a81548160ff0219169083151502179055508173ffffffffffffffffffffffffffffffffffffffff16611a09611fbe565b73ffffffffffffffffffffffffffffffffffffffff167f17307eab39ab6107e8899845ad3d59bd9653f200f220920489ca2b5937696c3183604051611a4e919061329c565b60405180910390a35050565b6000601360149054906101000a90046bffffffffffffffffffffffff166bffffffffffffffffffffffff1661271083611a9391906135cf565b611a9d9190613600565b9050919050565b611aac611ee1565b8060188190555050565b611ac1848484610bb0565b60008373ffffffffffffffffffffffffffffffffffffffff163b14611b2357611aec848484846122b5565b611b22576040517fd1a57ed600000000000000000000000000000000000000000000000000000000815260040160405180910390fd5b5b50505050565b6000611b388360175484611fc6565b905092915050565b611b48611ee1565b83601060046101000a81548163ffffffff021916908363ffffffff16021790555082601060006101000a81548163ffffffff021916908363ffffffff16021790555081601060086101000a81548163ffffffff021916908363ffffffff160217905550806010600c6101000a81548163ffffffff021916908363ffffffff16021790555050505050565b6060611bdd82611f5f565b611c13576040517fa14c4b5000000000000000000000000000000000000000000000000000000000815260040160405180910390fd5b6000611c1d612415565b9050600081511415611c3e5760405180602001604052806000815250611c69565b80611c48846124a7565b604051602001611c599291906131e8565b6040516020818303038152906040525b915050919050565b611c79611ee1565b818160169190611c8a929190612839565b505050565b6000611c9a3361217a565b905090565b6000600760008473ffffffffffffffffffffffffffffffffffffffff1673ffffffffffffffffffffffffffffffffffffffff16815260200190815260200160002060008373ffffffffffffffffffffffffffffffffffffffff1673ffffffffffffffffffffffffffffffffffffffff16815260200190815260200160002060009054906101000a900460ff16905092915050565b611d3b611ee1565b80601360006101000a81548173ffffffffffffffffffffffffffffffffffffffff021916908373ffffffffffffffffffffffffffffffffffffffff16021790555050565b611d87611ee1565b80601260006101000a81548173ffffffffffffffffffffffffffffffffffffffff021916908373ffffffffffffffffffffffffffffffffffffffff16021790555050565b611dd3611ee1565b600073ffffffffffffffffffffffffffffffffffffffff168173ffffffffffffffffffffffffffffffffffffffff161415611e43576040517f08c379a0000000000000000000000000000000000000000000000000000000008152600401611e3a90613319565b60405180910390fd5b611e4c816121ef565b50565b60006301ffc9a760e01b827bffffffffffffffffffffffffffffffffffffffffffffffffffffffff19161480611eaa57506380ac58cd60e01b827bffffffffffffffffffffffffffffffffffffffffffffffffffffffff1916145b80611eda5750635b5e139f60e01b827bffffffffffffffffffffffffffffffffffffffffffffffffffffffff1916145b9050919050565b611ee9612500565b73ffffffffffffffffffffffffffffffffffffffff16611f07611884565b73ffffffffffffffffffffffffffffffffffffffff1614611f5d576040517f08c379a0000000000000000000000000000000000000000000000000000000008152600401611f54906133b9565b60405180910390fd5b565b600081611f6a611fdd565b11158015611f79575060005482105b8015611fb7575060007c0100000000000000000000000000000000000000000000000000000000600460008581526020019081526020016000205416145b9050919050565b600033905090565b600082611fd38584612508565b1490509392505050565b600090565b60008082905080611ff1611fdd565b11612079576000548110156120785760006004600083815260200190815260200160002054905060007c010000000000000000000000000000000000000000000000000000000082161415612076575b600081141561206c576004600083600190039350838152602001908152602001600020549050612041565b80925050506120ab565b505b5b6040517fdf2d9b4200000000000000000000000000000000000000000000000000000000815260040160405180910390fd5b919050565b60008060006006600085815260200190815260200160002090508092508254915050915091565b600073ffffffffffffffffffffffffffffffffffffffff8316925073ffffffffffffffffffffffffffffffffffffffff821691508382148383141790509392505050565b50505050565b60008060e883901c905060e8612138868684612584565b62ffffff16901b9150509392505050565b600073ffffffffffffffffffffffffffffffffffffffff83169250814260a01b178317905092915050565b50505050565b600067ffffffffffffffff6040600560008573ffffffffffffffffffffffffffffffffffffffff1673ffffffffffffffffffffffffffffffffffffffff16815260200190815260200160002054901c169050919050565b6121eb82826040518060200160405280600081525061258d565b5050565b6000600860009054906101000a900473ffffffffffffffffffffffffffffffffffffffff16905081600860006101000a81548173ffffffffffffffffffffffffffffffffffffffff021916908373ffffffffffffffffffffffffffffffffffffffff1602179055508173ffffffffffffffffffffffffffffffffffffffff168173ffffffffffffffffffffffffffffffffffffffff167f8be0079c531659141344cd1fd0a4f28419497f9722a3daafe3b4186f6b6457e060405160405180910390a35050565b60008373ffffffffffffffffffffffffffffffffffffffff1663150b7a026122db611fbe565b8786866040518563ffffffff1660e01b81526004016122fd9493929190613227565b602060405180830381600087803b15801561231757600080fd5b505af192505050801561234857506040513d601f19601f820116820180604052508101906123459190612d91565b60015b6123c2573d8060008114612378576040519150601f19603f3d011682016040523d82523d6000602084013e61237d565b606091505b506000815114156123ba576040517fd1a57ed600000000000000000000000000000000000000000000000000000000815260040160405180910390fd5b805181602001fd5b63150b7a0260e01b7bffffffffffffffffffffffffffffffffffffffffffffffffffffffff1916817bffffffffffffffffffffffffffffffffffffffffffffffffffffffff191614915050949350505050565b6060601a805461242490613742565b80601f016020809104026020016040519081016040528092919081815260200182805461245090613742565b801561249d5780601f106124725761010080835404028352916020019161249d565b820191906000526020600020905b81548152906001019060200180831161248057829003601f168201915b5050505050905090565b606060a060405101806040526020810391506000825281835b6001156124eb57600184039350600a81066030018453600a81049050806124e6576124eb565b6124c0565b50828103602084039350808452505050919050565b600033905090565b60008082905060005b84518110156125795761256482868381518110612557577f4e487b7100000000000000000000000000000000000000000000000000000000600052603260045260246000fd5b602002602001015161262a565b91508080612571906137a5565b915050612511565b508091505092915050565b60009392505050565b6125978383612655565b60008373ffffffffffffffffffffffffffffffffffffffff163b1461262557600080549050600083820390505b6125d760008683806001019450866122b5565b61260d576040517fd1a57ed600000000000000000000000000000000000000000000000000000000815260040160405180910390fd5b8181106125c457816000541461262257600080fd5b50505b505050565b60008183106126425761263d8284612812565b61264d565b61264c8383612812565b5b905092915050565b6000805490506000821415612696576040517fb562e8dd00000000000000000000000000000000000000000000000000000000815260040160405180910390fd5b6126a3600084838561211b565b600160406001901b178202600560008573ffffffffffffffffffffffffffffffffffffffff1673ffffffffffffffffffffffffffffffffffffffff1681526020019081526020016000206000828254019250508190555061271a8361270b6000866000612121565b61271485612829565b17612149565b6004600083815260200190815260200160002081905550600080838301905073ffffffffffffffffffffffffffffffffffffffff85169150828260007fddf252ad1be2c89b69c2b068fc378daa952ba7f163c4a11628f55a4df523b3ef600080a4600183015b8181146127bb57808360007fddf252ad1be2c89b69c2b068fc378daa952ba7f163c4a11628f55a4df523b3ef600080a4600181019050612780565b5060008214156127f7576040517f2e07630000000000000000000000000000000000000000000000000000000000815260040160405180910390fd5b80600081905550505061280d6000848385612174565b505050565b600082600052816020526040600020905092915050565b60006001821460e11b9050919050565b82805461284590613742565b90600052602060002090601f01602090048101928261286757600085556128ae565b82601f1061288057803560ff19168380011785556128ae565b828001600101855582156128ae579182015b828111156128ad578235825591602001919060010190612892565b5b5090506128bb91906128bf565b5090565b5b808211156128d85760008160009055506001016128c0565b5090565b60006128ef6128ea846134d9565b6134b4565b9050808382526020820190508285602086028201111561290e57600080fd5b60005b8581101561293e578161292488826129da565b845260208401935060208301925050600181019050612911565b5050509392505050565b600061295b61295684613505565b6134b4565b90508281526020810184848401111561297357600080fd5b61297e848285613700565b509392505050565b60008135905061299581613b6b565b92915050565b600082601f8301126129ac57600080fd5b81356129bc8482602086016128dc565b91505092915050565b6000813590506129d481613b82565b92915050565b6000813590506129e981613b99565b92915050565b6000813590506129fe81613bb0565b92915050565b600081519050612a1381613bb0565b92915050565b600082601f830112612a2a57600080fd5b8135612a3a848260208601612948565b91505092915050565b60008083601f840112612a5557600080fd5b8235905067ffffffffffffffff811115612a6e57600080fd5b602083019150836001820283011115612a8657600080fd5b9250929050565b600081359050612a9c81613bc7565b92915050565b600081359050612ab181613bde565b92915050565b600081359050612ac681613bf5565b92915050565b600060208284031215612ade57600080fd5b6000612aec84828501612986565b91505092915050565b60008060408385031215612b0857600080fd5b6000612b1685828601612986565b9250506020612b2785828601612986565b9150509250929050565b600080600060608486031215612b4657600080fd5b6000612b5486828701612986565b9350506020612b6586828701612986565b9250506040612b7686828701612a8d565b9150509250925092565b60008060008060808587031215612b9657600080fd5b6000612ba487828801612986565b9450506020612bb587828801612986565b9350506040612bc687828801612a8d565b925050606085013567ffffffffffffffff811115612be357600080fd5b612bef87828801612a19565b91505092959194509250565b60008060408385031215612c0e57600080fd5b6000612c1c85828601612986565b9250506020612c2d858286016129c5565b9150509250929050565b60008060408385031215612c4a57600080fd5b6000612c5885828601612986565b9250506020612c6985828601612a8d565b9150509250929050565b60008060408385031215612c8657600080fd5b6000612c9485828601612986565b9250506020612ca585828601612ab7565b9150509250929050565b60008060408385031215612cc257600080fd5b600083013567ffffffffffffffff811115612cdc57600080fd5b612ce88582860161299b565b9250506020612cf9858286016129da565b9150509250929050565b600060208284031215612d1557600080fd5b6000612d23848285016129da565b91505092915050565b60008060408385031215612d3f57600080fd5b6000612d4d858286016129da565b9250506020612d5e858286016129da565b9150509250929050565b600060208284031215612d7a57600080fd5b6000612d88848285016129ef565b91505092915050565b600060208284031215612da357600080fd5b6000612db184828501612a04565b91505092915050565b60008060208385031215612dcd57600080fd5b600083013567ffffffffffffffff811115612de757600080fd5b612df385828601612a43565b92509250509250929050565b600060208284031215612e1157600080fd5b6000612e1f84828501612a8d565b91505092915050565b600080600060608486031215612e3d57600080fd5b6000612e4b86828701612a8d565b935050602084013567ffffffffffffffff811115612e6857600080fd5b612e748682870161299b565b9250506040612e85868287016129da565b9150509250925092565b60008060408385031215612ea257600080fd5b6000612eb085828601612a8d565b9250506020612ec185828601612a8d565b9150509250929050565b60008060008060808587031215612ee157600080fd5b6000612eef87828801612aa2565b9450506020612f0087828801612aa2565b9350506040612f1187828801612aa2565b9250506060612f2287828801612aa2565b91505092959194509250565b612f378161365a565b82525050565b612f468161366c565b82525050565b6000612f5782613536565b612f61818561354c565b9350612f7181856020860161370f565b612f7a816138aa565b840191505092915050565b6000612f9082613541565b612f9a818561355d565b9350612faa81856020860161370f565b612fb3816138aa565b840191505092915050565b6000612fc982613541565b612fd3818561356e565b9350612fe381856020860161370f565b80840191505092915050565b6000612ffc60158361355d565b9150613007826138bb565b602082019050919050565b600061301f60248361355d565b915061302a826138e4565b604082019050919050565b600061304260268361355d565b915061304d82613933565b604082019050919050565b600061306560188361355d565b915061307082613982565b602082019050919050565b600061308860178361355d565b9150613093826139ab565b602082019050919050565b60006130ab601d8361355d565b91506130b6826139d4565b602082019050919050565b60006130ce60168361355d565b91506130d9826139fd565b602082019050919050565b60006130f160208361355d565b91506130fc82613a26565b602082019050919050565b600061311460228361355d565b915061311f82613a4f565b604082019050919050565b600061313760178361355d565b915061314282613a9e565b602082019050919050565b600061315a601a8361355d565b915061316582613ac7565b602082019050919050565b600061317d60168361355d565b915061318882613af0565b602082019050919050565b60006131a060118361355d565b91506131ab82613b19565b602082019050919050565b60006131c360148361355d565b91506131ce82613b42565b602082019050919050565b6131e2816136ce565b82525050565b60006131f48285612fbe565b91506132008284612fbe565b91508190509392505050565b60006020820190506132216000830184612f2e565b92915050565b600060808201905061323c6000830187612f2e565b6132496020830186612f2e565b61325660408301856131d9565b81810360608301526132688184612f4c565b905095945050505050565b60006040820190506132886000830185612f2e565b61329560208301846131d9565b9392505050565b60006020820190506132b16000830184612f3d565b92915050565b600060208201905081810360008301526132d18184612f85565b905092915050565b600060208201905081810360008301526132f281612fef565b9050919050565b6000602082019050818103600083015261331281613012565b9050919050565b6000602082019050818103600083015261333281613035565b9050919050565b6000602082019050818103600083015261335281613058565b9050919050565b600060208201905081810360008301526133728161307b565b9050919050565b600060208201905081810360008301526133928161309e565b9050919050565b600060208201905081810360008301526133b2816130c1565b9050919050565b600060208201905081810360008301526133d2816130e4565b9050919050565b600060208201905081810360008301526133f281613107565b9050919050565b600060208201905081810360008301526134128161312a565b9050919050565b600060208201905081810360008301526134328161314d565b9050919050565b6000602082019050818103600083015261345281613170565b9050919050565b6000602082019050818103600083015261347281613193565b9050919050565b60006020820190508181036000830152613492816131b6565b9050919050565b60006020820190506134ae60008301846131d9565b92915050565b60006134be6134cf565b90506134ca8282613774565b919050565b6000604051905090565b600067ffffffffffffffff8211156134f4576134f361387b565b5b602082029050602081019050919050565b600067ffffffffffffffff8211156135205761351f61387b565b5b613529826138aa565b9050602081019050919050565b600081519050919050565b600081519050919050565b600082825260208201905092915050565b600082825260208201905092915050565b600081905092915050565b6000613584826136ce565b915061358f836136ce565b9250827fffffffffffffffffffffffffffffffffffffffffffffffffffffffffffffffff038211156135c4576135c36137ee565b5b828201905092915050565b60006135da826136ce565b91506135e5836136ce565b9250826135f5576135f461381d565b5b828204905092915050565b600061360b826136ce565b9150613616836136ce565b9250817fffffffffffffffffffffffffffffffffffffffffffffffffffffffffffffffff048311821515161561364f5761364e6137ee565b5b828202905092915050565b6000613665826136ae565b9050919050565b60008115159050919050565b6000819050919050565b60007fffffffff0000000000000000000000000000000000000000000000000000000082169050919050565b600073ffffffffffffffffffffffffffffffffffffffff82169050919050565b6000819050919050565b600063ffffffff82169050919050565b60006bffffffffffffffffffffffff82169050919050565b82818337600083830152505050565b60005b8381101561372d578082015181840152602081019050613712565b8381111561373c576000848401525b50505050565b6000600282049050600182168061375a57607f821691505b6020821081141561376e5761376d61384c565b5b50919050565b61377d826138aa565b810181811067ffffffffffffffff8211171561379c5761379b61387b565b5b80604052505050565b60006137b0826136ce565b91507fffffffffffffffffffffffffffffffffffffffffffffffffffffffffffffffff8214156137e3576137e26137ee565b5b600182019050919050565b7f4e487b7100000000000000000000000000000000000000000000000000000000600052601160045260246000fd5b7f4e487b7100000000000000000000000000000000000000000000000000000000600052601260045260246000fd5b7f4e487b7100000000000000000000000000000000000000000000000000000000600052602260045260246000fd5b7f4e487b7100000000000000000000000000000000000000000000000000000000600052604160045260246000fd5b6000601f19601f8301169050919050565b7f57686974654c697374204d696e7420656e6465642e0000000000000000000000600082015250565b7f4e6f7420456e6f75676820546f6b656e73204c65667420666f7220736b756c6c60008201527f4c69737400000000000000000000000000000000000000000000000000000000602082015250565b7f4f776e61626c653a206e6577206f776e657220697320746865207a65726f206160008201527f6464726573730000000000000000000000000000000000000000000000000000602082015250565b7f596f752063616e206f6e6c79206d696e742032204e4654730000000000000000600082015250565b7f596f752063616e206f6e6c79206d696e742031204e4654000000000000000000600082015250565b7f4e6f7420456e6f75676820546f6b656e73204c65667420666f72204f47000000600082015250565b7f4e6f7420456e6f756768204574686572732053656e7400000000000000000000600082015250565b7f4f776e61626c653a2063616c6c6572206973206e6f7420746865206f776e6572600082015250565b7f4e6f7420456e6f75676820546f6b656e73204c65667420666f72207075626c6960008201527f632e000000000000000000000000000000000000000000000000000000000000602082015250565b7f596f752063616e206d696e74206f6e6c792031206e6674000000000000000000600082015250565b7f4f47205374696c6c20486176652054696d6520546f204d696e74000000000000600082015250565b7f4e6f7420456e6f75676820546f6b656e73204c65667400000000000000000000600082015250565b7f536b756c6c206d696e7420656e6465642e000000000000000000000000000000600082015250565b7f4d696e74204e6f74205965742053746172746564000000000000000000000000600082015250565b613b748161365a565b8114613b7f57600080fd5b50565b613b8b8161366c565b8114613b9657600080fd5b50565b613ba281613678565b8114613bad57600080fd5b50565b613bb981613682565b8114613bc457600080fd5b50565b613bd0816136ce565b8114613bdb57600080fd5b50565b613be7816136d8565b8114613bf257600080fd5b50565b613bfe816136e8565b8114613c0957600080fd5b5056fea264697066735822122087d2b59756c7fa8c510c9d61cc6ab6f7e233f77b2299c12730500632cc2639d164736f6c6343000804003368747470733a2f2f696e646965736b756c6c73796e6469636174652e6d7970696e6174612e636c6f75642f697066732f516d53785a74456b52634264574c3953376e454250333335426336544e4d6d3648396e6d465864713656565573482f",
  "devdoc": {
    "kind": "dev",
    "methods": {
      "approve(address,uint256)": {
        "details": "Gives permission to `to` to transfer `tokenId` token to another account. The approval is cleared when the token is transferred. Only a single account can be approved at a time, so approving the zero address clears previous approvals. Requirements: - The caller must own the token or be an approved operator. - `tokenId` must exist. Emits an {Approval} event."
      },
      "balanceOf(address)": {
        "details": "Returns the number of tokens in `owner`'s account."
      },
      "getApproved(uint256)": {
        "details": "Returns the account approved for `tokenId` token. Requirements: - `tokenId` must exist."
      },
      "isApprovedForAll(address,address)": {
        "details": "Returns if the `operator` is allowed to manage all of the assets of `owner`. See {setApprovalForAll}."
      },
      "name()": {
        "details": "Returns the token collection name."
      },
      "owner()": {
        "details": "Returns the address of the current owner."
      },
      "ownerOf(uint256)": {
        "details": "Returns the owner of the `tokenId` token. Requirements: - `tokenId` must exist."
      },
      "renounceOwnership()": {
        "details": "Leaves the contract without owner. It will not be possible to call `onlyOwner` functions anymore. Can only be called by the current owner. NOTE: Renouncing ownership will leave the contract without an owner, thereby removing any functionality that is only available to the owner."
      },
      "safeTransferFrom(address,address,uint256)": {
        "details": "Equivalent to `safeTransferFrom(from, to, tokenId, '')`."
      },
      "safeTransferFrom(address,address,uint256,bytes)": {
        "details": "Safely transfers `tokenId` token from `from` to `to`. Requirements: - `from` cannot be the zero address. - `to` cannot be the zero address. - `tokenId` token must exist and be owned by `from`. - If the caller is not `from`, it must be approved to move this token by either {approve} or {setApprovalForAll}. - If `to` refers to a smart contract, it must implement {IERC721Receiver-onERC721Received}, which is called upon a safe transfer. Emits a {Transfer} event."
      },
      "setApprovalForAll(address,bool)": {
        "details": "Approve or remove `operator` as an operator for the caller. Operators can call {transferFrom} or {safeTransferFrom} for any token owned by the caller. Requirements: - The `operator` cannot be the caller. Emits an {ApprovalForAll} event."
      },
      "supportsInterface(bytes4)": {
        "details": "Returns true if this contract implements the interface defined by `interfaceId`. See the corresponding [EIP section](https://eips.ethereum.org/EIPS/eip-165#how-interfaces-are-identified) to learn more about how these ids are created. This function call must use less than 30000 gas."
      },
      "symbol()": {
        "details": "Returns the token collection symbol."
      },
      "tokenURI(uint256)": {
        "details": "Returns the Uniform Resource Identifier (URI) for `tokenId` token."
      },
      "totalSupply()": {
        "details": "Returns the total number of tokens in existence. Burned tokens will reduce the count. To get the total number of tokens minted, please see {_totalMinted}."
      },
      "transferFrom(address,address,uint256)": {
        "details": "Transfers `tokenId` from `from` to `to`. Requirements: - `from` cannot be the zero address. - `to` cannot be the zero address. - `tokenId` token must be owned by `from`. - If the caller is not `from`, it must be approved to move this token by either {approve} or {setApprovalForAll}. Emits a {Transfer} event."
      },
      "transferOwnership(address)": {
        "details": "Transfers ownership of the contract to a new account (`newOwner`). Can only be called by the current owner."
      }
    },
    "version": 1
  },
  "userdoc": {
    "errors": {
      "ApprovalCallerNotOwnerNorApproved()": [
        {
          "notice": "The caller must own the token or be an approved operator."
        }
      ],
      "ApprovalQueryForNonexistentToken()": [
        {
          "notice": "The token does not exist."
        }
      ],
      "BalanceQueryForZeroAddress()": [
        {
          "notice": "Cannot query the balance for the zero address."
        }
      ],
      "MintERC2309QuantityExceedsLimit()": [
        {
          "notice": "The `quantity` minted with ERC2309 exceeds the safety limit."
        }
      ],
      "MintToZeroAddress()": [
        {
          "notice": "Cannot mint to the zero address."
        }
      ],
      "MintZeroQuantity()": [
        {
          "notice": "The quantity of tokens minted must be more than zero."
        }
      ],
      "OwnerQueryForNonexistentToken()": [
        {
          "notice": "The token does not exist."
        }
      ],
      "OwnershipNotInitializedForExtraData()": [
        {
          "notice": "The `extraData` cannot be set on an unintialized ownership slot."
        }
      ],
      "TransferCallerNotOwnerNorApproved()": [
        {
          "notice": "The caller must own the token or be an approved operator."
        }
      ],
      "TransferFromIncorrectOwner()": [
        {
          "notice": "The token must be owned by `from`."
        }
      ],
      "TransferToNonERC721ReceiverImplementer()": [
        {
          "notice": "Cannot safely transfer to a contract that does not implement the ERC721Receiver interface."
        }
      ],
      "TransferToZeroAddress()": [
        {
          "notice": "Cannot transfer to the zero address."
        }
      ],
      "URIQueryForNonexistentToken()": [
        {
          "notice": "The token does not exist."
        }
      ]
    },
    "kind": "user",
    "methods": {},
    "version": 1
  },
  "storageLayout": {
    "storage": [
      {
        "astId": 728,
        "contract": "contracts/indie-skull-contract.sol:skullSyndicate",
        "label": "_currentIndex",
        "offset": 0,
        "slot": "0",
        "type": "t_uint256"
      },
      {
        "astId": 730,
        "contract": "contracts/indie-skull-contract.sol:skullSyndicate",
        "label": "_burnCounter",
        "offset": 0,
        "slot": "1",
        "type": "t_uint256"
      },
      {
        "astId": 732,
        "contract": "contracts/indie-skull-contract.sol:skullSyndicate",
        "label": "_name",
        "offset": 0,
        "slot": "2",
        "type": "t_string_storage"
      },
      {
        "astId": 734,
        "contract": "contracts/indie-skull-contract.sol:skullSyndicate",
        "label": "_symbol",
        "offset": 0,
        "slot": "3",
        "type": "t_string_storage"
      },
      {
        "astId": 738,
        "contract": "contracts/indie-skull-contract.sol:skullSyndicate",
        "label": "_packedOwnerships",
        "offset": 0,
        "slot": "4",
        "type": "t_mapping(t_uint256,t_uint256)"
      },
      {
        "astId": 742,
        "contract": "contracts/indie-skull-contract.sol:skullSyndicate",
        "label": "_packedAddressData",
        "offset": 0,
        "slot": "5",
        "type": "t_mapping(t_address,t_uint256)"
      },
      {
        "astId": 747,
        "contract": "contracts/indie-skull-contract.sol:skullSyndicate",
        "label": "_tokenApprovals",
        "offset": 0,
        "slot": "6",
        "type": "t_mapping(t_uint256,t_struct(TokenApprovalRef)660_storage)"
      },
      {
        "astId": 753,
        "contract": "contracts/indie-skull-contract.sol:skullSyndicate",
        "label": "_operatorApprovals",
        "offset": 0,
        "slot": "7",
        "type": "t_mapping(t_address,t_mapping(t_address,t_bool))"
      },
      {
        "astId": 7,
        "contract": "contracts/indie-skull-contract.sol:skullSyndicate",
        "label": "_owner",
        "offset": 0,
        "slot": "8",
        "type": "t_address"
      },
      {
        "astId": 2477,
        "contract": "contracts/indie-skull-contract.sol:skullSyndicate",
        "label": "MAX_MINTS",
        "offset": 0,
        "slot": "9",
        "type": "t_uint256"
      },
      {
        "astId": 2479,
        "contract": "contracts/indie-skull-contract.sol:skullSyndicate",
        "label": "Public_Mints",
        "offset": 0,
        "slot": "10",
        "type": "t_uint256"
      },
      {
        "astId": 2481,
        "contract": "contracts/indie-skull-contract.sol:skullSyndicate",
        "label": "Skull_Mints",
        "offset": 0,
        "slot": "11",
        "type": "t_uint256"
      },
      {
        "astId": 2483,
        "contract": "contracts/indie-skull-contract.sol:skullSyndicate",
        "label": "WL_Mints",
        "offset": 0,
        "slot": "12",
        "type": "t_uint256"
      },
      {
        "astId": 2486,
        "contract": "contracts/indie-skull-contract.sol:skullSyndicate",
        "label": "MAX_SUPPLY",
        "offset": 0,
        "slot": "13",
        "type": "t_uint256"
      },
      {
        "astId": 2489,
        "contract": "contracts/indie-skull-contract.sol:skullSyndicate",
        "label": "mint_Price",
        "offset": 0,
        "slot": "14",
        "type": "t_uint256"
      },
      {
        "astId": 2492,
        "contract": "contracts/indie-skull-contract.sol:skullSyndicate",
        "label": "skull_List_Mint_Price",
        "offset": 0,
        "slot": "15",
        "type": "t_uint256"
      },
      {
        "astId": 2495,
        "contract": "contracts/indie-skull-contract.sol:skullSyndicate",
        "label": "Skull_List_Time",
        "offset": 0,
        "slot": "16",
        "type": "t_uint32"
      },
      {
        "astId": 2498,
        "contract": "contracts/indie-skull-contract.sol:skullSyndicate",
        "label": "mint_Time",
        "offset": 4,
        "slot": "16",
        "type": "t_uint32"
      },
      {
        "astId": 2501,
        "contract": "contracts/indie-skull-contract.sol:skullSyndicate",
        "label": "whiteList_Time",
        "offset": 8,
        "slot": "16",
        "type": "t_uint32"
      },
      {
        "astId": 2504,
        "contract": "contracts/indie-skull-contract.sol:skullSyndicate",
        "label": "end_of_WL_mint",
        "offset": 12,
        "slot": "16",
        "type": "t_uint32"
      },
      {
        "astId": 2507,
        "contract": "contracts/indie-skull-contract.sol:skullSyndicate",
        "label": "DeveloperAddress",
        "offset": 0,
        "slot": "17",
        "type": "t_address"
      },
      {
        "astId": 2510,
        "contract": "contracts/indie-skull-contract.sol:skullSyndicate",
        "label": "OwnerAddress",
        "offset": 0,
        "slot": "18",
        "type": "t_address"
      },
      {
        "astId": 2513,
        "contract": "contracts/indie-skull-contract.sol:skullSyndicate",
        "label": "collabAddress",
        "offset": 0,
        "slot": "19",
        "type": "t_address"
      },
      {
        "astId": 2515,
        "contract": "contracts/indie-skull-contract.sol:skullSyndicate",
        "label": "royaltyFeesInBips",
        "offset": 20,
        "slot": "19",
        "type": "t_uint96"
      },
      {
        "astId": 2517,
        "contract": "contracts/indie-skull-contract.sol:skullSyndicate",
        "label": "royaltyReceiver",
        "offset": 0,
        "slot": "20",
        "type": "t_address"
      },
      {
        "astId": 2519,
        "contract": "contracts/indie-skull-contract.sol:skullSyndicate",
        "label": "amount",
        "offset": 0,
        "slot": "21",
        "type": "t_uint256"
      },
      {
        "astId": 2521,
        "contract": "contracts/indie-skull-contract.sol:skullSyndicate",
        "label": "contractURI",
        "offset": 0,
        "slot": "22",
        "type": "t_string_storage"
      },
      {
        "astId": 2523,
        "contract": "contracts/indie-skull-contract.sol:skullSyndicate",
        "label": "whiteList_root",
        "offset": 0,
        "slot": "23",
        "type": "t_bytes32"
      },
      {
        "astId": 2525,
        "contract": "contracts/indie-skull-contract.sol:skullSyndicate",
        "label": "skull_root",
        "offset": 0,
        "slot": "24",
        "type": "t_bytes32"
      },
      {
        "astId": 2527,
        "contract": "contracts/indie-skull-contract.sol:skullSyndicate",
        "label": "checkWL",
        "offset": 0,
        "slot": "25",
        "type": "t_bool"
      },
      {
        "astId": 2529,
        "contract": "contracts/indie-skull-contract.sol:skullSyndicate",
        "label": "checkSkull",
        "offset": 1,
        "slot": "25",
        "type": "t_bool"
      },
      {
        "astId": 2532,
        "contract": "contracts/indie-skull-contract.sol:skullSyndicate",
        "label": "baseURI",
        "offset": 0,
        "slot": "26",
        "type": "t_string_storage"
      }
    ],
    "types": {
      "t_address": {
        "encoding": "inplace",
        "label": "address",
        "numberOfBytes": "20"
      },
      "t_bool": {
        "encoding": "inplace",
        "label": "bool",
        "numberOfBytes": "1"
      },
      "t_bytes32": {
        "encoding": "inplace",
        "label": "bytes32",
        "numberOfBytes": "32"
      },
      "t_mapping(t_address,t_bool)": {
        "encoding": "mapping",
        "key": "t_address",
        "label": "mapping(address => bool)",
        "numberOfBytes": "32",
        "value": "t_bool"
      },
      "t_mapping(t_address,t_mapping(t_address,t_bool))": {
        "encoding": "mapping",
        "key": "t_address",
        "label": "mapping(address => mapping(address => bool))",
        "numberOfBytes": "32",
        "value": "t_mapping(t_address,t_bool)"
      },
      "t_mapping(t_address,t_uint256)": {
        "encoding": "mapping",
        "key": "t_address",
        "label": "mapping(address => uint256)",
        "numberOfBytes": "32",
        "value": "t_uint256"
      },
      "t_mapping(t_uint256,t_struct(TokenApprovalRef)660_storage)": {
        "encoding": "mapping",
        "key": "t_uint256",
        "label": "mapping(uint256 => struct ERC721A.TokenApprovalRef)",
        "numberOfBytes": "32",
        "value": "t_struct(TokenApprovalRef)660_storage"
      },
      "t_mapping(t_uint256,t_uint256)": {
        "encoding": "mapping",
        "key": "t_uint256",
        "label": "mapping(uint256 => uint256)",
        "numberOfBytes": "32",
        "value": "t_uint256"
      },
      "t_string_storage": {
        "encoding": "bytes",
        "label": "string",
        "numberOfBytes": "32"
      },
      "t_struct(TokenApprovalRef)660_storage": {
        "encoding": "inplace",
        "label": "struct ERC721A.TokenApprovalRef",
        "members": [
          {
            "astId": 659,
            "contract": "contracts/indie-skull-contract.sol:skullSyndicate",
            "label": "value",
            "offset": 0,
            "slot": "0",
            "type": "t_address"
          }
        ],
        "numberOfBytes": "32"
      },
      "t_uint256": {
        "encoding": "inplace",
        "label": "uint256",
        "numberOfBytes": "32"
      },
      "t_uint32": {
        "encoding": "inplace",
        "label": "uint32",
        "numberOfBytes": "4"
      },
      "t_uint96": {
        "encoding": "inplace",
        "label": "uint96",
        "numberOfBytes": "12"
      }
    }
  }
}