{
  "address": "0xC7b73CB811b0e4FfDE032a17a1c9B7a24D790fa8",
  "abi": [
    {
      "inputs": [
        {
          "internalType": "uint96",
          "name": "_royaltyFeesInBips",
          "type": "uint96"
        },
        {
          "internalType": "string",
          "name": "_contractURI",
          "type": "string"
        },
        {
          "internalType": "bytes32",
          "name": "_whiteList_root",
          "type": "bytes32"
        },
        {
          "internalType": "bytes32",
          "name": "_skull_root",
          "type": "bytes32"
        }
      ],
      "stateMutability": "nonpayable",
      "type": "constructor"
    },
    {
      "inputs": [],
      "name": "ApprovalCallerNotOwnerNorApproved",
      "type": "error"
    },
    {
      "inputs": [],
      "name": "ApprovalQueryForNonexistentToken",
      "type": "error"
    },
    {
      "inputs": [],
      "name": "BalanceQueryForZeroAddress",
      "type": "error"
    },
    {
      "inputs": [],
      "name": "MintERC2309QuantityExceedsLimit",
      "type": "error"
    },
    {
      "inputs": [],
      "name": "MintToZeroAddress",
      "type": "error"
    },
    {
      "inputs": [],
      "name": "MintZeroQuantity",
      "type": "error"
    },
    {
      "inputs": [],
      "name": "OwnerQueryForNonexistentToken",
      "type": "error"
    },
    {
      "inputs": [],
      "name": "OwnershipNotInitializedForExtraData",
      "type": "error"
    },
    {
      "inputs": [],
      "name": "TransferCallerNotOwnerNorApproved",
      "type": "error"
    },
    {
      "inputs": [],
      "name": "TransferFromIncorrectOwner",
      "type": "error"
    },
    {
      "inputs": [],
      "name": "TransferToNonERC721ReceiverImplementer",
      "type": "error"
    },
    {
      "inputs": [],
      "name": "TransferToZeroAddress",
      "type": "error"
    },
    {
      "inputs": [],
      "name": "URIQueryForNonexistentToken",
      "type": "error"
    },
    {
      "anonymous": false,
      "inputs": [
        {
          "indexed": true,
          "internalType": "address",
          "name": "owner",
          "type": "address"
        },
        {
          "indexed": true,
          "internalType": "address",
          "name": "approved",
          "type": "address"
        },
        {
          "indexed": true,
          "internalType": "uint256",
          "name": "tokenId",
          "type": "uint256"
        }
      ],
      "name": "Approval",
      "type": "event"
    },
    {
      "anonymous": false,
      "inputs": [
        {
          "indexed": true,
          "internalType": "address",
          "name": "owner",
          "type": "address"
        },
        {
          "indexed": true,
          "internalType": "address",
          "name": "operator",
          "type": "address"
        },
        {
          "indexed": false,
          "internalType": "bool",
          "name": "approved",
          "type": "bool"
        }
      ],
      "name": "ApprovalForAll",
      "type": "event"
    },
    {
      "anonymous": false,
      "inputs": [
        {
          "indexed": true,
          "internalType": "uint256",
          "name": "fromTokenId",
          "type": "uint256"
        },
        {
          "indexed": false,
          "internalType": "uint256",
          "name": "toTokenId",
          "type": "uint256"
        },
        {
          "indexed": true,
          "internalType": "address",
          "name": "from",
          "type": "address"
        },
        {
          "indexed": true,
          "internalType": "address",
          "name": "to",
          "type": "address"
        }
      ],
      "name": "ConsecutiveTransfer",
      "type": "event"
    },
    {
      "anonymous": false,
      "inputs": [
        {
          "indexed": true,
          "internalType": "address",
          "name": "previousOwner",
          "type": "address"
        },
        {
          "indexed": true,
          "internalType": "address",
          "name": "newOwner",
          "type": "address"
        }
      ],
      "name": "OwnershipTransferred",
      "type": "event"
    },
    {
      "anonymous": false,
      "inputs": [
        {
          "indexed": true,
          "internalType": "address",
          "name": "from",
          "type": "address"
        },
        {
          "indexed": true,
          "internalType": "address",
          "name": "to",
          "type": "address"
        },
        {
          "indexed": true,
          "internalType": "uint256",
          "name": "tokenId",
          "type": "uint256"
        }
      ],
      "name": "Transfer",
      "type": "event"
    },
    {
      "inputs": [
        {
          "internalType": "address",
          "name": "_OwnerAddress",
          "type": "address"
        }
      ],
      "name": "ChangeOwner",
      "outputs": [],
      "stateMutability": "nonpayable",
      "type": "function"
    },
    {
      "inputs": [
        {
          "internalType": "bytes32",
          "name": "_root",
          "type": "bytes32"
        }
      ],
      "name": "add_WhiteList_Hash",
      "outputs": [],
      "stateMutability": "nonpayable",
      "type": "function"
    },
    {
      "inputs": [
        {
          "internalType": "bytes32",
          "name": "_root",
          "type": "bytes32"
        }
      ],
      "name": "add_skullList_Hash",
      "outputs": [],
      "stateMutability": "nonpayable",
      "type": "function"
    },
    {
      "inputs": [
        {
          "internalType": "address",
          "name": "to",
          "type": "address"
        },
        {
          "internalType": "uint256",
          "name": "tokenId",
          "type": "uint256"
        }
      ],
      "name": "approve",
      "outputs": [],
      "stateMutability": "payable",
      "type": "function"
    },
    {
      "inputs": [
        {
          "internalType": "address",
          "name": "owner",
          "type": "address"
        }
      ],
      "name": "balanceOf",
      "outputs": [
        {
          "internalType": "uint256",
          "name": "",
          "type": "uint256"
        }
      ],
      "stateMutability": "view",
      "type": "function"
    },
    {
      "inputs": [
        {
          "internalType": "uint256",
          "name": "_salePrice",
          "type": "uint256"
        }
      ],
      "name": "calculateRoyalty",
      "outputs": [
        {
          "internalType": "uint256",
          "name": "",
          "type": "uint256"
        }
      ],
      "stateMutability": "view",
      "type": "function"
    },
    {
      "inputs": [
        {
          "internalType": "uint256",
          "name": "tokenId",
          "type": "uint256"
        }
      ],
      "name": "getApproved",
      "outputs": [
        {
          "internalType": "address",
          "name": "",
          "type": "address"
        }
      ],
      "stateMutability": "view",
      "type": "function"
    },
    {
      "inputs": [
        {
          "internalType": "address",
          "name": "owner",
          "type": "address"
        },
        {
          "internalType": "address",
          "name": "operator",
          "type": "address"
        }
      ],
      "name": "isApprovedForAll",
      "outputs": [
        {
          "internalType": "bool",
          "name": "",
          "type": "bool"
        }
      ],
      "stateMutability": "view",
      "type": "function"
    },
    {
      "inputs": [
        {
          "internalType": "uint256",
          "name": "quantity",
          "type": "uint256"
        },
        {
          "internalType": "bytes32[]",
          "name": "proof",
          "type": "bytes32[]"
        },
        {
          "internalType": "bytes32",
          "name": "leaf",
          "type": "bytes32"
        }
      ],
      "name": "mint",
      "outputs": [],
      "stateMutability": "payable",
      "type": "function"
    },
    {
      "inputs": [],
      "name": "name",
      "outputs": [
        {
          "internalType": "string",
          "name": "",
          "type": "string"
        }
      ],
      "stateMutability": "view",
      "type": "function"
    },
    {
      "inputs": [],
      "name": "owner",
      "outputs": [
        {
          "internalType": "address",
          "name": "",
          "type": "address"
        }
      ],
      "stateMutability": "view",
      "type": "function"
    },
    {
      "inputs": [
        {
          "internalType": "uint256",
          "name": "tokenId",
          "type": "uint256"
        }
      ],
      "name": "ownerOf",
      "outputs": [
        {
          "internalType": "address",
          "name": "",
          "type": "address"
        }
      ],
      "stateMutability": "view",
      "type": "function"
    },
    {
      "inputs": [],
      "name": "renounceOwnership",
      "outputs": [],
      "stateMutability": "nonpayable",
      "type": "function"
    },
    {
      "inputs": [
        {
          "internalType": "uint256",
          "name": "",
          "type": "uint256"
        },
        {
          "internalType": "uint256",
          "name": "_salePrice",
          "type": "uint256"
        }
      ],
      "name": "royaltyInfo",
      "outputs": [
        {
          "internalType": "address",
          "name": "receiver",
          "type": "address"
        },
        {
          "internalType": "uint256",
          "name": "royaltyAmount",
          "type": "uint256"
        }
      ],
      "stateMutability": "view",
      "type": "function"
    },
    {
      "inputs": [
        {
          "internalType": "address",
          "name": "from",
          "type": "address"
        },
        {
          "internalType": "address",
          "name": "to",
          "type": "address"
        },
        {
          "internalType": "uint256",
          "name": "tokenId",
          "type": "uint256"
        }
      ],
      "name": "safeTransferFrom",
      "outputs": [],
      "stateMutability": "payable",
      "type": "function"
    },
    {
      "inputs": [
        {
          "internalType": "address",
          "name": "from",
          "type": "address"
        },
        {
          "internalType": "address",
          "name": "to",
          "type": "address"
        },
        {
          "internalType": "uint256",
          "name": "tokenId",
          "type": "uint256"
        },
        {
          "internalType": "bytes",
          "name": "_data",
          "type": "bytes"
        }
      ],
      "name": "safeTransferFrom",
      "outputs": [],
      "stateMutability": "payable",
      "type": "function"
    },
    {
      "inputs": [
        {
          "internalType": "address",
          "name": "operator",
          "type": "address"
        },
        {
          "internalType": "bool",
          "name": "approved",
          "type": "bool"
        }
      ],
      "name": "setApprovalForAll",
      "outputs": [],
      "stateMutability": "nonpayable",
      "type": "function"
    },
    {
      "inputs": [
        {
          "internalType": "string",
          "name": "_baseUri",
          "type": "string"
        }
      ],
      "name": "setBaseURI",
      "outputs": [],
      "stateMutability": "nonpayable",
      "type": "function"
    },
    {
      "inputs": [
        {
          "internalType": "string",
          "name": "_contractURI",
          "type": "string"
        }
      ],
      "name": "setContractUri",
      "outputs": [],
      "stateMutability": "nonpayable",
      "type": "function"
    },
    {
      "inputs": [
        {
          "internalType": "bytes32",
          "name": "_whiteList_root",
          "type": "bytes32"
        },
        {
          "internalType": "bytes32",
          "name": "_skull_root",
          "type": "bytes32"
        }
      ],
      "name": "setRootHashes",
      "outputs": [],
      "stateMutability": "nonpayable",
      "type": "function"
    },
    {
      "inputs": [
        {
          "internalType": "address",
          "name": "_receiver",
          "type": "address"
        },
        {
          "internalType": "uint96",
          "name": "_royaltyFeesInBips",
          "type": "uint96"
        }
      ],
      "name": "setRoyaltyInfo",
      "outputs": [],
      "stateMutability": "nonpayable",
      "type": "function"
    },
    {
      "inputs": [
        {
          "internalType": "address",
          "name": "_developer",
          "type": "address"
        }
      ],
      "name": "setStakeAddress",
      "outputs": [],
      "stateMutability": "nonpayable",
      "type": "function"
    },
    {
      "inputs": [
        {
          "internalType": "uint32",
          "name": "_stamp",
          "type": "uint32"
        },
        {
          "internalType": "uint32",
          "name": "_Skull_List_Time",
          "type": "uint32"
        },
        {
          "internalType": "uint32",
          "name": "_wl",
          "type": "uint32"
        },
        {
          "internalType": "uint32",
          "name": "_end_of_WL_mint",
          "type": "uint32"
        }
      ],
      "name": "setTimer",
      "outputs": [],
      "stateMutability": "nonpayable",
      "type": "function"
    },
    {
      "inputs": [
        {
          "internalType": "bytes32[]",
          "name": "proof",
          "type": "bytes32[]"
        },
        {
          "internalType": "bytes32",
          "name": "leaf",
          "type": "bytes32"
        }
      ],
      "name": "skullList_MerkleVerify",
      "outputs": [
        {
          "internalType": "bool",
          "name": "",
          "type": "bool"
        }
      ],
      "stateMutability": "view",
      "type": "function"
    },
    {
      "inputs": [],
      "name": "suppliedNFTs",
      "outputs": [
        {
          "internalType": "uint256",
          "name": "",
          "type": "uint256"
        }
      ],
      "stateMutability": "view",
      "type": "function"
    },
    {
      "inputs": [
        {
          "internalType": "bytes4",
          "name": "interfaceId",
          "type": "bytes4"
        }
      ],
      "name": "supportsInterface",
      "outputs": [
        {
          "internalType": "bool",
          "name": "",
          "type": "bool"
        }
      ],
      "stateMutability": "view",
      "type": "function"
    },
    {
      "inputs": [],
      "name": "symbol",
      "outputs": [
        {
          "internalType": "string",
          "name": "",
          "type": "string"
        }
      ],
      "stateMutability": "view",
      "type": "function"
    },
    {
      "inputs": [
        {
          "internalType": "uint256",
          "name": "tokenId",
          "type": "uint256"
        }
      ],
      "name": "tokenURI",
      "outputs": [
        {
          "internalType": "string",
          "name": "",
          "type": "string"
        }
      ],
      "stateMutability": "view",
      "type": "function"
    },
    {
      "inputs": [],
      "name": "totalSupply",
      "outputs": [
        {
          "internalType": "uint256",
          "name": "",
          "type": "uint256"
        }
      ],
      "stateMutability": "view",
      "type": "function"
    },
    {
      "inputs": [
        {
          "internalType": "address",
          "name": "from",
          "type": "address"
        },
        {
          "internalType": "address",
          "name": "to",
          "type": "address"
        },
        {
          "internalType": "uint256",
          "name": "tokenId",
          "type": "uint256"
        }
      ],
      "name": "transferFrom",
      "outputs": [],
      "stateMutability": "payable",
      "type": "function"
    },
    {
      "inputs": [
        {
          "internalType": "address",
          "name": "newOwner",
          "type": "address"
        }
      ],
      "name": "transferOwnership",
      "outputs": [],
      "stateMutability": "nonpayable",
      "type": "function"
    },
    {
      "inputs": [],
      "name": "userMint",
      "outputs": [
        {
          "internalType": "uint256",
          "name": "",
          "type": "uint256"
        }
      ],
      "stateMutability": "view",
      "type": "function"
    },
    {
      "inputs": [
        {
          "internalType": "bytes32[]",
          "name": "proof",
          "type": "bytes32[]"
        },
        {
          "internalType": "bytes32",
          "name": "leaf",
          "type": "bytes32"
        }
      ],
      "name": "whiteList_MerkleVerify",
      "outputs": [
        {
          "internalType": "bool",
          "name": "",
          "type": "bool"
        }
      ],
      "stateMutability": "view",
      "type": "function"
    },
    {
      "inputs": [],
      "name": "withdraw",
      "outputs": [],
      "stateMutability": "payable",
      "type": "function"
    }
  ],
  "transactionHash": "0x7e0f8ce1c8cf9e8d1491dba2abbf4dfabd9dd87449042f0e2d2c72078b0503db",
  "args": [
    1000,
    "https://indieskullsyndicate.mypinata.cloud/ipfs/QmSxZtEkRcBdWL9S7nEBP335Bc6TNMm6H9nmFXdq6VVUsH/",
    "0x8e59d10daaef6c41461af58f0b3fdd918f4e8e0bdebb65592d3c7bae755244fe",
    "0xa3532a3eb07a2fd70b46208b7983fb5cd2c9f7621f597bc628cf39982f16ed1e"
  ],
  "numDeployments": 11,
  "solcInputHash": "a8ba24f44e78cf99ec947bce9dc88b70",
  "bytecode": "0x608060405260026009556109c4600d556611c37937e08000600e5566071afd498d0000600f55636350e1af601060006101000a81548163ffffffff021916908363ffffffff160217905550636350e3cb601060046101000a81548163ffffffff021916908363ffffffff160217905550636350e623601060086101000a81548163ffffffff021916908363ffffffff160217905550636350e78b6010600c6101000a81548163ffffffff021916908363ffffffff16021790555073b96dfc3e4cbe9da6f072d57c13b5efb44c8b192c601160006101000a81548173ffffffffffffffffffffffffffffffffffffffff021916908373ffffffffffffffffffffffffffffffffffffffff16021790555073b328200eca7c688646af1c8bb25b6e9b8ed11368601260006101000a81548173ffffffffffffffffffffffffffffffffffffffff021916908373ffffffffffffffffffffffffffffffffffffffff1602179055506040518060800160405280605f8152602001620048de605f91396019908051906020019062000194929190620008e1565b50348015620001a257600080fd5b506040516200493d3803806200493d8339818101604052810190620001c8919062000a74565b6040518060400160405280601581526020017f496e64696520536b756c6c2053796e64696361746500000000000000000000008152506040518060400160405280600581526020017f246b756c6c00000000000000000000000000000000000000000000000000000081525081600290805190602001906200024c929190620008e1565b50806003908051906020019062000265929190620008e1565b50620002766200035460201b60201c565b60008190555050506200029e620002926200035960201b60201c565b6200036160201b60201c565b83601260146101000a8154816bffffffffffffffffffffffff02191690836bffffffffffffffffffffffff1602179055508260159080519060200190620002e7929190620008e1565b50816016819055508060178190555033601360006101000a81548173ffffffffffffffffffffffffffffffffffffffff021916908373ffffffffffffffffffffffffffffffffffffffff1602179055506200034a3360016200042760201b60201c565b5050505062000e16565b600090565b600033905090565b6000600860009054906101000a900473ffffffffffffffffffffffffffffffffffffffff16905081600860006101000a81548173ffffffffffffffffffffffffffffffffffffffff021916908373ffffffffffffffffffffffffffffffffffffffff1602179055508173ffffffffffffffffffffffffffffffffffffffff168173ffffffffffffffffffffffffffffffffffffffff167f8be0079c531659141344cd1fd0a4f28419497f9722a3daafe3b4186f6b6457e060405160405180910390a35050565b620004498282604051806020016040528060008152506200044d60201b60201c565b5050565b6200045f8383620004fe60201b60201c565b60008373ffffffffffffffffffffffffffffffffffffffff163b14620004f957600080549050600083820390505b620004a86000868380600101945086620006e760201b60201c565b620004df576040517fd1a57ed600000000000000000000000000000000000000000000000000000000815260040160405180910390fd5b8181106200048d578160005414620004f657600080fd5b50505b505050565b600080549050600082141562000540576040517fb562e8dd00000000000000000000000000000000000000000000000000000000815260040160405180910390fd5b6200055560008483856200085960201b60201c565b600160406001901b178202600560008573ffffffffffffffffffffffffffffffffffffffff1673ffffffffffffffffffffffffffffffffffffffff16815260200190815260200160002060008282540192505081905550620005e483620005c660008660006200085f60201b60201c565b620005d7856200088f60201b60201c565b176200089f60201b60201c565b6004600083815260200190815260200160002081905550600080838301905073ffffffffffffffffffffffffffffffffffffffff85169150828260007fddf252ad1be2c89b69c2b068fc378daa952ba7f163c4a11628f55a4df523b3ef600080a4600183015b8181146200068757808360007fddf252ad1be2c89b69c2b068fc378daa952ba7f163c4a11628f55a4df523b3ef600080a46001810190506200064a565b506000821415620006c4576040517f2e07630000000000000000000000000000000000000000000000000000000000815260040160405180910390fd5b806000819055505050620006e26000848385620008ca60201b60201c565b505050565b60008373ffffffffffffffffffffffffffffffffffffffff1663150b7a0262000715620008d060201b60201c565b8786866040518563ffffffff1660e01b815260040162000739949392919062000b5c565b602060405180830381600087803b1580156200075457600080fd5b505af19250505080156200078857506040513d601f19601f8201168201806040525081019062000785919062000a48565b60015b62000806573d8060008114620007bb576040519150601f19603f3d011682016040523d82523d6000602084013e620007c0565b606091505b50600081511415620007fe576040517fd1a57ed600000000000000000000000000000000000000000000000000000000815260040160405180910390fd5b805181602001fd5b63150b7a0260e01b7bffffffffffffffffffffffffffffffffffffffffffffffffffffffff1916817bffffffffffffffffffffffffffffffffffffffffffffffffffffffff191614915050949350505050565b50505050565b60008060e883901c905060e86200087e868684620008d860201b60201c565b62ffffff16901b9150509392505050565b60006001821460e11b9050919050565b600073ffffffffffffffffffffffffffffffffffffffff83169250814260a01b178317905092915050565b50505050565b600033905090565b60009392505050565b828054620008ef9062000ced565b90600052602060002090601f0160209004810192826200091357600085556200095f565b82601f106200092e57805160ff19168380011785556200095f565b828001600101855582156200095f579182015b828111156200095e57825182559160200191906001019062000941565b5b5090506200096e919062000972565b5090565b5b808211156200098d57600081600090555060010162000973565b5090565b6000620009a8620009a28462000bd9565b62000bb0565b905082815260208101848484011115620009c157600080fd5b620009ce84828562000cb7565b509392505050565b600081519050620009e78162000dc8565b92915050565b600081519050620009fe8162000de2565b92915050565b600082601f83011262000a1657600080fd5b815162000a2884826020860162000991565b91505092915050565b60008151905062000a428162000dfc565b92915050565b60006020828403121562000a5b57600080fd5b600062000a6b84828501620009ed565b91505092915050565b6000806000806080858703121562000a8b57600080fd5b600062000a9b8782880162000a31565b945050602085015167ffffffffffffffff81111562000ab957600080fd5b62000ac78782880162000a04565b935050604062000ada87828801620009d6565b925050606062000aed87828801620009d6565b91505092959194509250565b62000b048162000c2b565b82525050565b600062000b178262000c0f565b62000b23818562000c1a565b935062000b3581856020860162000cb7565b62000b408162000db7565b840191505092915050565b62000b568162000c95565b82525050565b600060808201905062000b73600083018762000af9565b62000b82602083018662000af9565b62000b91604083018562000b4b565b818103606083015262000ba5818462000b0a565b905095945050505050565b600062000bbc62000bcf565b905062000bca828262000d23565b919050565b6000604051905090565b600067ffffffffffffffff82111562000bf75762000bf662000d88565b5b62000c028262000db7565b9050602081019050919050565b600081519050919050565b600082825260208201905092915050565b600062000c388262000c75565b9050919050565b6000819050919050565b60007fffffffff0000000000000000000000000000000000000000000000000000000082169050919050565b600073ffffffffffffffffffffffffffffffffffffffff82169050919050565b6000819050919050565b60006bffffffffffffffffffffffff82169050919050565b60005b8381101562000cd757808201518184015260208101905062000cba565b8381111562000ce7576000848401525b50505050565b6000600282049050600182168062000d0657607f821691505b6020821081141562000d1d5762000d1c62000d59565b5b50919050565b62000d2e8262000db7565b810181811067ffffffffffffffff8211171562000d505762000d4f62000d88565b5b80604052505050565b7f4e487b7100000000000000000000000000000000000000000000000000000000600052602260045260246000fd5b7f4e487b7100000000000000000000000000000000000000000000000000000000600052604160045260246000fd5b6000601f19601f8301169050919050565b62000dd38162000c3f565b811462000ddf57600080fd5b50565b62000ded8162000c49565b811462000df957600080fd5b50565b62000e078162000c9f565b811462000e1357600080fd5b50565b613ab88062000e266000396000f3fe6080604052600436106101f95760003560e01c806370a082311161010d578063b88d4fde116100a0578063ccb4807b1161006f578063ccb4807b146106f0578063df8f460f14610719578063e985e9c514610744578063f285329214610781578063f2fde38b146107aa576101f9565b8063b88d4fde14610631578063c4d74a211461064d578063c879fb961461068a578063c87b56dd146106b3576101f9565b80639951f2df116100dc5780639951f2df14610577578063a22cb465146105a2578063a2e69613146105cb578063a9dc638e14610608576101f9565b806370a08231146104cd578063715018a61461050a5780638da5cb5b1461052157806395d89b411461054c576101f9565b806323471d181161019057806342842e0e1161015f57806342842e0e1461040657806355f804b3146104225780635b885ed71461044b5780636352211e1461046757806366ec7aa9146104a4576101f9565b806323471d181461037957806323b872dd146103a25780632a55205a146103be5780633ccfd60b146103fc576101f9565b8063095ea7b3116101cc578063095ea7b3146102cc5780630f3886ef146102e8578063180f11d51461032557806318160ddd1461034e576101f9565b806301ffc9a7146101fe57806302fa7c471461023b57806306fdde0314610264578063081812fc1461028f575b600080fd5b34801561020a57600080fd5b5061022560048036038101906102209190612c04565b6107d3565b6040516102329190613138565b60405180910390f35b34801561024757600080fd5b50610262600480360381019061025d9190612b0f565b610815565b005b34801561027057600080fd5b50610279610893565b6040516102869190613153565b60405180910390f35b34801561029b57600080fd5b506102b660048036038101906102b19190612c9b565b610925565b6040516102c391906130a8565b60405180910390f35b6102e660048036038101906102e19190612ad3565b6109a4565b005b3480156102f457600080fd5b5061030f600480360381019061030a9190612b4b565b610ae8565b60405161031c9190613138565b60405180910390f35b34801561033157600080fd5b5061034c60048036038101906103479190612bc8565b610aff565b005b34801561035a57600080fd5b50610363610b19565b6040516103709190613335565b60405180910390f35b34801561038557600080fd5b506103a0600480360381019061039b9190612968565b610b30565b005b6103bc60048036038101906103b791906129cd565b610b7c565b005b3480156103ca57600080fd5b506103e560048036038101906103e09190612d2b565b610ea1565b6040516103f392919061310f565b60405180910390f35b610404610edb565b005b610420600480360381019061041b91906129cd565b610fd5565b005b34801561042e57600080fd5b5061044960048036038101906104449190612c56565b610ff5565b005b61046560048036038101906104609190612cc4565b611013565b005b34801561047357600080fd5b5061048e60048036038101906104899190612c9b565b61167b565b60405161049b91906130a8565b60405180910390f35b3480156104b057600080fd5b506104cb60048036038101906104c69190612b9f565b61168d565b005b3480156104d957600080fd5b506104f460048036038101906104ef9190612968565b61169f565b6040516105019190613335565b60405180910390f35b34801561051657600080fd5b5061051f611758565b005b34801561052d57600080fd5b5061053661176c565b60405161054391906130a8565b60405180910390f35b34801561055857600080fd5b50610561611796565b60405161056e9190613153565b60405180910390f35b34801561058357600080fd5b5061058c611828565b6040516105999190613335565b60405180910390f35b3480156105ae57600080fd5b506105c960048036038101906105c49190612a97565b611837565b005b3480156105d757600080fd5b506105f260048036038101906105ed9190612c9b565b611942565b6040516105ff9190613335565b60405180910390f35b34801561061457600080fd5b5061062f600480360381019061062a9190612b9f565b61198c565b005b61064b60048036038101906106469190612a1c565b61199e565b005b34801561065957600080fd5b50610674600480360381019061066f9190612b4b565b611a11565b6040516106819190613138565b60405180910390f35b34801561069657600080fd5b506106b160048036038101906106ac9190612d67565b611a28565b005b3480156106bf57600080fd5b506106da60048036038101906106d59190612c9b565b611aba565b6040516106e79190613153565b60405180910390f35b3480156106fc57600080fd5b5061071760048036038101906107129190612c56565b611b59565b005b34801561072557600080fd5b5061072e611b77565b60405161073b9190613335565b60405180910390f35b34801561075057600080fd5b5061076b60048036038101906107669190612991565b611b87565b6040516107789190613138565b60405180910390f35b34801561078d57600080fd5b506107a860048036038101906107a39190612968565b611c1b565b005b3480156107b657600080fd5b506107d160048036038101906107cc9190612968565b611c67565b005b6000632a55205a60e01b827bffffffffffffffffffffffffffffffffffffffffffffffffffffffff1916148061080e575061080d82611ceb565b5b9050919050565b61081d611d7d565b81601360006101000a81548173ffffffffffffffffffffffffffffffffffffffff021916908373ffffffffffffffffffffffffffffffffffffffff16021790555080601260146101000a8154816bffffffffffffffffffffffff02191690836bffffffffffffffffffffffff1602179055505050565b6060600280546108a2906135de565b80601f01602080910402602001604051908101604052809291908181526020018280546108ce906135de565b801561091b5780601f106108f05761010080835404028352916020019161091b565b820191906000526020600020905b8154815290600101906020018083116108fe57829003601f168201915b5050505050905090565b600061093082611dfb565b610966576040517fcf4700e400000000000000000000000000000000000000000000000000000000815260040160405180910390fd5b6006600083815260200190815260200160002060000160009054906101000a900473ffffffffffffffffffffffffffffffffffffffff169050919050565b60006109af8261167b565b90508073ffffffffffffffffffffffffffffffffffffffff166109d0611e5a565b73ffffffffffffffffffffffffffffffffffffffff1614610a33576109fc816109f7611e5a565b611b87565b610a32576040517fcfb3b94200000000000000000000000000000000000000000000000000000000815260040160405180910390fd5b5b826006600084815260200190815260200160002060000160006101000a81548173ffffffffffffffffffffffffffffffffffffffff021916908373ffffffffffffffffffffffffffffffffffffffff160217905550818373ffffffffffffffffffffffffffffffffffffffff168273ffffffffffffffffffffffffffffffffffffffff167f8c5be1e5ebec7d5bd14f71427d1e84f3dd0314c0f7b2291e5b200ac8c7c3b92560405160405180910390a4505050565b6000610af78360175484611e62565b905092915050565b610b07611d7d565b81601681905550806017819055505050565b6000610b23611e79565b6001546000540303905090565b610b38611d7d565b80601160006101000a81548173ffffffffffffffffffffffffffffffffffffffff021916908373ffffffffffffffffffffffffffffffffffffffff16021790555050565b6000610b8782611e7e565b90508373ffffffffffffffffffffffffffffffffffffffff168173ffffffffffffffffffffffffffffffffffffffff1614610bee576040517fa114810000000000000000000000000000000000000000000000000000000000815260040160405180910390fd5b600080610bfa84611f4c565b91509150610c108187610c0b611e5a565b611f73565b610c5c57610c2586610c20611e5a565b611b87565b610c5b576040517f59c896be00000000000000000000000000000000000000000000000000000000815260040160405180910390fd5b5b600073ffffffffffffffffffffffffffffffffffffffff168573ffffffffffffffffffffffffffffffffffffffff161415610cc3576040517fea553b3400000000000000000000000000000000000000000000000000000000815260040160405180910390fd5b610cd08686866001611fb7565b8015610cdb57600082555b600560008773ffffffffffffffffffffffffffffffffffffffff1673ffffffffffffffffffffffffffffffffffffffff168152602001908152602001600020600081546001900391905081905550600560008673ffffffffffffffffffffffffffffffffffffffff1673ffffffffffffffffffffffffffffffffffffffff1681526020019081526020016000206000815460010191905081905550610da985610d85888887611fbd565b7c020000000000000000000000000000000000000000000000000000000017611fe5565b600460008681526020019081526020016000208190555060007c020000000000000000000000000000000000000000000000000000000084161415610e31576000600185019050600060046000838152602001908152602001600020541415610e2f576000548114610e2e578360046000838152602001908152602001600020819055505b5b505b838573ffffffffffffffffffffffffffffffffffffffff168773ffffffffffffffffffffffffffffffffffffffff167fddf252ad1be2c89b69c2b068fc378daa952ba7f163c4a11628f55a4df523b3ef60405160405180910390a4610e998686866001612010565b505050505050565b600080601360009054906101000a900473ffffffffffffffffffffffffffffffffffffffff16610ed084611942565b915091509250929050565b610ee3611d7d565b60006064600f47610ef4919061349c565b610efe919061346b565b9050601160009054906101000a900473ffffffffffffffffffffffffffffffffffffffff1673ffffffffffffffffffffffffffffffffffffffff166108fc829081150290604051600060405180830381858888f19350505050158015610f68573d6000803e3d6000fd5b50601260009054906101000a900473ffffffffffffffffffffffffffffffffffffffff1673ffffffffffffffffffffffffffffffffffffffff166108fc479081150290604051600060405180830381858888f19350505050158015610fd1573d6000803e3d6000fd5b5050565b610ff08383836040518060200160405280600081525061199e565b505050565b610ffd611d7d565b81816019919061100e9291906126d5565b505050565b600d548361101f610b19565b6110299190613415565b111561106a576040517f08c379a0000000000000000000000000000000000000000000000000000000008152600401611061906132d5565b60405180910390fd5b6110748282611a11565b601860006101000a81548160ff0219169083151502179055506110978282610ae8565b601860016101000a81548160ff02191690831515021790555060011515601860019054906101000a900460ff16151514156110e55782600f546110da919061349c565b601481905550611124565b60011515601860009054906101000a900460ff161515141561110e576000601481905550611123565b82600e5461111c919061349c565b6014819055505b5b60011515601860009054906101000a900460ff1615151480611159575060011515601860019054906101000a900460ff161515145b156111c057600161116933612016565b106111bb57600161117933612016565b14156111ba576040517f08c379a00000000000000000000000000000000000000000000000000000000081526004016111b1906131f5565b60405180910390fd5b5b611236565b6009546111cc33612016565b846111d79190613415565b1115611235576009546111e933612016565b846111f49190613415565b10611234576040517f08c379a000000000000000000000000000000000000000000000000000000000815260040161122b906131d5565b60405180910390fd5b5b5b601454341461127a576040517f08c379a000000000000000000000000000000000000000000000000000000000815260040161127190613255565b60405180910390fd5b601060009054906101000a900463ffffffff1663ffffffff164210156112d5576040517f08c379a00000000000000000000000000000000000000000000000000000000081526004016112cc90613315565b60405180910390fd5b60011515601860019054906101000a900460ff16151514156113fd576103e8600b541115611338576040517f08c379a000000000000000000000000000000000000000000000000000000000815260040161132f90613195565b60405180910390fd5b601060049054906101000a900463ffffffff1663ffffffff164210611392576040517f08c379a0000000000000000000000000000000000000000000000000000000008152600401611389906132f5565b60405180910390fd5b600183146113d5576040517f08c379a00000000000000000000000000000000000000000000000000000000081526004016113cc90613295565b60405180910390fd5b6113df338461206d565b82600b60008282546113f19190613415565b92505081905550611676565b60011515601860009054906101000a900460ff16151514156115bb576101f4600c541115611460576040517f08c379a000000000000000000000000000000000000000000000000000000000815260040161145790613235565b60405180910390fd5b600183146114a3576040517f08c379a000000000000000000000000000000000000000000000000000000000815260040161149a90613295565b60405180910390fd5b601060089054906101000a900463ffffffff1663ffffffff1642106114fd576040517f08c379a00000000000000000000000000000000000000000000000000000000081526004016114f490613175565b60405180910390fd5b601060049054906101000a900463ffffffff1663ffffffff164210158061152d57506103e961152a610b19565b10155b1561155a5761153c338461206d565b82600c600082825461154e9190613415565b925050819055506115b6565b601060049054906101000a900463ffffffff1663ffffffff164210156115b5576040517f08c379a00000000000000000000000000000000000000000000000000000000081526004016115ac906132b5565b60405180910390fd5b5b611675565b6010600c9054906101000a900463ffffffff1663ffffffff16421015806115eb57506105dd6115e8610b19565b10155b15611618576115fa338461206d565b82600a600082825461160c9190613415565b92505081905550611674565b6010600c9054906101000a900463ffffffff1663ffffffff16421015611673576040517f08c379a000000000000000000000000000000000000000000000000000000000815260040161166a90613215565b60405180910390fd5b5b5b5b505050565b600061168682611e7e565b9050919050565b611695611d7d565b8060168190555050565b60008073ffffffffffffffffffffffffffffffffffffffff168273ffffffffffffffffffffffffffffffffffffffff161415611707576040517f8f4eb60400000000000000000000000000000000000000000000000000000000815260040160405180910390fd5b67ffffffffffffffff600560008473ffffffffffffffffffffffffffffffffffffffff1673ffffffffffffffffffffffffffffffffffffffff16815260200190815260200160002054169050919050565b611760611d7d565b61176a600061208b565b565b6000600860009054906101000a900473ffffffffffffffffffffffffffffffffffffffff16905090565b6060600380546117a5906135de565b80601f01602080910402602001604051908101604052809291908181526020018280546117d1906135de565b801561181e5780601f106117f35761010080835404028352916020019161181e565b820191906000526020600020905b81548152906001019060200180831161180157829003601f168201915b5050505050905090565b6000611832610b19565b905090565b8060076000611844611e5a565b73ffffffffffffffffffffffffffffffffffffffff1673ffffffffffffffffffffffffffffffffffffffff16815260200190815260200160002060008473ffffffffffffffffffffffffffffffffffffffff1673ffffffffffffffffffffffffffffffffffffffff16815260200190815260200160002060006101000a81548160ff0219169083151502179055508173ffffffffffffffffffffffffffffffffffffffff166118f1611e5a565b73ffffffffffffffffffffffffffffffffffffffff167f17307eab39ab6107e8899845ad3d59bd9653f200f220920489ca2b5937696c31836040516119369190613138565b60405180910390a35050565b6000601260149054906101000a90046bffffffffffffffffffffffff166bffffffffffffffffffffffff166127108361197b919061346b565b611985919061349c565b9050919050565b611994611d7d565b8060178190555050565b6119a9848484610b7c565b60008373ffffffffffffffffffffffffffffffffffffffff163b14611a0b576119d484848484612151565b611a0a576040517fd1a57ed600000000000000000000000000000000000000000000000000000000815260040160405180910390fd5b5b50505050565b6000611a208360165484611e62565b905092915050565b611a30611d7d565b836010600c6101000a81548163ffffffff021916908363ffffffff16021790555082601060006101000a81548163ffffffff021916908363ffffffff16021790555081601060046101000a81548163ffffffff021916908363ffffffff16021790555080601060086101000a81548163ffffffff021916908363ffffffff16021790555050505050565b6060611ac582611dfb565b611afb576040517fa14c4b5000000000000000000000000000000000000000000000000000000000815260040160405180910390fd5b6000611b056122b1565b9050600081511415611b265760405180602001604052806000815250611b51565b80611b3084612343565b604051602001611b41929190613084565b6040516020818303038152906040525b915050919050565b611b61611d7d565b818160159190611b729291906126d5565b505050565b6000611b8233612016565b905090565b6000600760008473ffffffffffffffffffffffffffffffffffffffff1673ffffffffffffffffffffffffffffffffffffffff16815260200190815260200160002060008373ffffffffffffffffffffffffffffffffffffffff1673ffffffffffffffffffffffffffffffffffffffff16815260200190815260200160002060009054906101000a900460ff16905092915050565b611c23611d7d565b80601260006101000a81548173ffffffffffffffffffffffffffffffffffffffff021916908373ffffffffffffffffffffffffffffffffffffffff16021790555050565b611c6f611d7d565b600073ffffffffffffffffffffffffffffffffffffffff168173ffffffffffffffffffffffffffffffffffffffff161415611cdf576040517f08c379a0000000000000000000000000000000000000000000000000000000008152600401611cd6906131b5565b60405180910390fd5b611ce88161208b565b50565b60006301ffc9a760e01b827bffffffffffffffffffffffffffffffffffffffffffffffffffffffff19161480611d4657506380ac58cd60e01b827bffffffffffffffffffffffffffffffffffffffffffffffffffffffff1916145b80611d765750635b5e139f60e01b827bffffffffffffffffffffffffffffffffffffffffffffffffffffffff1916145b9050919050565b611d8561239c565b73ffffffffffffffffffffffffffffffffffffffff16611da361176c565b73ffffffffffffffffffffffffffffffffffffffff1614611df9576040517f08c379a0000000000000000000000000000000000000000000000000000000008152600401611df090613275565b60405180910390fd5b565b600081611e06611e79565b11158015611e15575060005482105b8015611e53575060007c0100000000000000000000000000000000000000000000000000000000600460008581526020019081526020016000205416145b9050919050565b600033905090565b600082611e6f85846123a4565b1490509392505050565b600090565b60008082905080611e8d611e79565b11611f1557600054811015611f145760006004600083815260200190815260200160002054905060007c010000000000000000000000000000000000000000000000000000000082161415611f12575b6000811415611f08576004600083600190039350838152602001908152602001600020549050611edd565b8092505050611f47565b505b5b6040517fdf2d9b4200000000000000000000000000000000000000000000000000000000815260040160405180910390fd5b919050565b60008060006006600085815260200190815260200160002090508092508254915050915091565b600073ffffffffffffffffffffffffffffffffffffffff8316925073ffffffffffffffffffffffffffffffffffffffff821691508382148383141790509392505050565b50505050565b60008060e883901c905060e8611fd4868684612420565b62ffffff16901b9150509392505050565b600073ffffffffffffffffffffffffffffffffffffffff83169250814260a01b178317905092915050565b50505050565b600067ffffffffffffffff6040600560008573ffffffffffffffffffffffffffffffffffffffff1673ffffffffffffffffffffffffffffffffffffffff16815260200190815260200160002054901c169050919050565b612087828260405180602001604052806000815250612429565b5050565b6000600860009054906101000a900473ffffffffffffffffffffffffffffffffffffffff16905081600860006101000a81548173ffffffffffffffffffffffffffffffffffffffff021916908373ffffffffffffffffffffffffffffffffffffffff1602179055508173ffffffffffffffffffffffffffffffffffffffff168173ffffffffffffffffffffffffffffffffffffffff167f8be0079c531659141344cd1fd0a4f28419497f9722a3daafe3b4186f6b6457e060405160405180910390a35050565b60008373ffffffffffffffffffffffffffffffffffffffff1663150b7a02612177611e5a565b8786866040518563ffffffff1660e01b815260040161219994939291906130c3565b602060405180830381600087803b1580156121b357600080fd5b505af19250505080156121e457506040513d601f19601f820116820180604052508101906121e19190612c2d565b60015b61225e573d8060008114612214576040519150601f19603f3d011682016040523d82523d6000602084013e612219565b606091505b50600081511415612256576040517fd1a57ed600000000000000000000000000000000000000000000000000000000815260040160405180910390fd5b805181602001fd5b63150b7a0260e01b7bffffffffffffffffffffffffffffffffffffffffffffffffffffffff1916817bffffffffffffffffffffffffffffffffffffffffffffffffffffffff191614915050949350505050565b6060601980546122c0906135de565b80601f01602080910402602001604051908101604052809291908181526020018280546122ec906135de565b80156123395780601f1061230e57610100808354040283529160200191612339565b820191906000526020600020905b81548152906001019060200180831161231c57829003601f168201915b5050505050905090565b606060a060405101806040526020810391506000825281835b60011561238757600184039350600a81066030018453600a810490508061238257612387565b61235c565b50828103602084039350808452505050919050565b600033905090565b60008082905060005b845181101561241557612400828683815181106123f3577f4e487b7100000000000000000000000000000000000000000000000000000000600052603260045260246000fd5b60200260200101516124c6565b9150808061240d90613641565b9150506123ad565b508091505092915050565b60009392505050565b61243383836124f1565b60008373ffffffffffffffffffffffffffffffffffffffff163b146124c157600080549050600083820390505b6124736000868380600101945086612151565b6124a9576040517fd1a57ed600000000000000000000000000000000000000000000000000000000815260040160405180910390fd5b8181106124605781600054146124be57600080fd5b50505b505050565b60008183106124de576124d982846126ae565b6124e9565b6124e883836126ae565b5b905092915050565b6000805490506000821415612532576040517fb562e8dd00000000000000000000000000000000000000000000000000000000815260040160405180910390fd5b61253f6000848385611fb7565b600160406001901b178202600560008573ffffffffffffffffffffffffffffffffffffffff1673ffffffffffffffffffffffffffffffffffffffff168152602001908152602001600020600082825401925050819055506125b6836125a76000866000611fbd565b6125b0856126c5565b17611fe5565b6004600083815260200190815260200160002081905550600080838301905073ffffffffffffffffffffffffffffffffffffffff85169150828260007fddf252ad1be2c89b69c2b068fc378daa952ba7f163c4a11628f55a4df523b3ef600080a4600183015b81811461265757808360007fddf252ad1be2c89b69c2b068fc378daa952ba7f163c4a11628f55a4df523b3ef600080a460018101905061261c565b506000821415612693576040517f2e07630000000000000000000000000000000000000000000000000000000000815260040160405180910390fd5b8060008190555050506126a96000848385612010565b505050565b600082600052816020526040600020905092915050565b60006001821460e11b9050919050565b8280546126e1906135de565b90600052602060002090601f016020900481019282612703576000855561274a565b82601f1061271c57803560ff191683800117855561274a565b8280016001018555821561274a579182015b8281111561274957823582559160200191906001019061272e565b5b509050612757919061275b565b5090565b5b8082111561277457600081600090555060010161275c565b5090565b600061278b61278684613375565b613350565b905080838252602082019050828560208602820111156127aa57600080fd5b60005b858110156127da57816127c08882612876565b8452602084019350602083019250506001810190506127ad565b5050509392505050565b60006127f76127f2846133a1565b613350565b90508281526020810184848401111561280f57600080fd5b61281a84828561359c565b509392505050565b600081359050612831816139e1565b92915050565b600082601f83011261284857600080fd5b8135612858848260208601612778565b91505092915050565b600081359050612870816139f8565b92915050565b60008135905061288581613a0f565b92915050565b60008135905061289a81613a26565b92915050565b6000815190506128af81613a26565b92915050565b600082601f8301126128c657600080fd5b81356128d68482602086016127e4565b91505092915050565b60008083601f8401126128f157600080fd5b8235905067ffffffffffffffff81111561290a57600080fd5b60208301915083600182028301111561292257600080fd5b9250929050565b60008135905061293881613a3d565b92915050565b60008135905061294d81613a54565b92915050565b60008135905061296281613a6b565b92915050565b60006020828403121561297a57600080fd5b600061298884828501612822565b91505092915050565b600080604083850312156129a457600080fd5b60006129b285828601612822565b92505060206129c385828601612822565b9150509250929050565b6000806000606084860312156129e257600080fd5b60006129f086828701612822565b9350506020612a0186828701612822565b9250506040612a1286828701612929565b9150509250925092565b60008060008060808587031215612a3257600080fd5b6000612a4087828801612822565b9450506020612a5187828801612822565b9350506040612a6287828801612929565b925050606085013567ffffffffffffffff811115612a7f57600080fd5b612a8b878288016128b5565b91505092959194509250565b60008060408385031215612aaa57600080fd5b6000612ab885828601612822565b9250506020612ac985828601612861565b9150509250929050565b60008060408385031215612ae657600080fd5b6000612af485828601612822565b9250506020612b0585828601612929565b9150509250929050565b60008060408385031215612b2257600080fd5b6000612b3085828601612822565b9250506020612b4185828601612953565b9150509250929050565b60008060408385031215612b5e57600080fd5b600083013567ffffffffffffffff811115612b7857600080fd5b612b8485828601612837565b9250506020612b9585828601612876565b9150509250929050565b600060208284031215612bb157600080fd5b6000612bbf84828501612876565b91505092915050565b60008060408385031215612bdb57600080fd5b6000612be985828601612876565b9250506020612bfa85828601612876565b9150509250929050565b600060208284031215612c1657600080fd5b6000612c248482850161288b565b91505092915050565b600060208284031215612c3f57600080fd5b6000612c4d848285016128a0565b91505092915050565b60008060208385031215612c6957600080fd5b600083013567ffffffffffffffff811115612c8357600080fd5b612c8f858286016128df565b92509250509250929050565b600060208284031215612cad57600080fd5b6000612cbb84828501612929565b91505092915050565b600080600060608486031215612cd957600080fd5b6000612ce786828701612929565b935050602084013567ffffffffffffffff811115612d0457600080fd5b612d1086828701612837565b9250506040612d2186828701612876565b9150509250925092565b60008060408385031215612d3e57600080fd5b6000612d4c85828601612929565b9250506020612d5d85828601612929565b9150509250929050565b60008060008060808587031215612d7d57600080fd5b6000612d8b8782880161293e565b9450506020612d9c8782880161293e565b9350506040612dad8782880161293e565b9250506060612dbe8782880161293e565b91505092959194509250565b612dd3816134f6565b82525050565b612de281613508565b82525050565b6000612df3826133d2565b612dfd81856133e8565b9350612e0d8185602086016135ab565b612e1681613746565b840191505092915050565b6000612e2c826133dd565b612e3681856133f9565b9350612e468185602086016135ab565b612e4f81613746565b840191505092915050565b6000612e65826133dd565b612e6f818561340a565b9350612e7f8185602086016135ab565b80840191505092915050565b6000612e986015836133f9565b9150612ea382613757565b602082019050919050565b6000612ebb6024836133f9565b9150612ec682613780565b604082019050919050565b6000612ede6026836133f9565b9150612ee9826137cf565b604082019050919050565b6000612f016018836133f9565b9150612f0c8261381e565b602082019050919050565b6000612f246017836133f9565b9150612f2f82613847565b602082019050919050565b6000612f47601b836133f9565b9150612f5282613870565b602082019050919050565b6000612f6a601d836133f9565b9150612f7582613899565b602082019050919050565b6000612f8d6016836133f9565b9150612f98826138c2565b602082019050919050565b6000612fb06020836133f9565b9150612fbb826138eb565b602082019050919050565b6000612fd36017836133f9565b9150612fde82613914565b602082019050919050565b6000612ff6601a836133f9565b91506130018261393d565b602082019050919050565b60006130196016836133f9565b915061302482613966565b602082019050919050565b600061303c6011836133f9565b91506130478261398f565b602082019050919050565b600061305f6014836133f9565b915061306a826139b8565b602082019050919050565b61307e8161356a565b82525050565b60006130908285612e5a565b915061309c8284612e5a565b91508190509392505050565b60006020820190506130bd6000830184612dca565b92915050565b60006080820190506130d86000830187612dca565b6130e56020830186612dca565b6130f26040830185613075565b81810360608301526131048184612de8565b905095945050505050565b60006040820190506131246000830185612dca565b6131316020830184613075565b9392505050565b600060208201905061314d6000830184612dd9565b92915050565b6000602082019050818103600083015261316d8184612e21565b905092915050565b6000602082019050818103600083015261318e81612e8b565b9050919050565b600060208201905081810360008301526131ae81612eae565b9050919050565b600060208201905081810360008301526131ce81612ed1565b9050919050565b600060208201905081810360008301526131ee81612ef4565b9050919050565b6000602082019050818103600083015261320e81612f17565b9050919050565b6000602082019050818103600083015261322e81612f3a565b9050919050565b6000602082019050818103600083015261324e81612f5d565b9050919050565b6000602082019050818103600083015261326e81612f80565b9050919050565b6000602082019050818103600083015261328e81612fa3565b9050919050565b600060208201905081810360008301526132ae81612fc6565b9050919050565b600060208201905081810360008301526132ce81612fe9565b9050919050565b600060208201905081810360008301526132ee8161300c565b9050919050565b6000602082019050818103600083015261330e8161302f565b9050919050565b6000602082019050818103600083015261332e81613052565b9050919050565b600060208201905061334a6000830184613075565b92915050565b600061335a61336b565b90506133668282613610565b919050565b6000604051905090565b600067ffffffffffffffff8211156133905761338f613717565b5b602082029050602081019050919050565b600067ffffffffffffffff8211156133bc576133bb613717565b5b6133c582613746565b9050602081019050919050565b600081519050919050565b600081519050919050565b600082825260208201905092915050565b600082825260208201905092915050565b600081905092915050565b60006134208261356a565b915061342b8361356a565b9250827fffffffffffffffffffffffffffffffffffffffffffffffffffffffffffffffff038211156134605761345f61368a565b5b828201905092915050565b60006134768261356a565b91506134818361356a565b925082613491576134906136b9565b5b828204905092915050565b60006134a78261356a565b91506134b28361356a565b9250817fffffffffffffffffffffffffffffffffffffffffffffffffffffffffffffffff04831182151516156134eb576134ea61368a565b5b828202905092915050565b60006135018261354a565b9050919050565b60008115159050919050565b6000819050919050565b60007fffffffff0000000000000000000000000000000000000000000000000000000082169050919050565b600073ffffffffffffffffffffffffffffffffffffffff82169050919050565b6000819050919050565b600063ffffffff82169050919050565b60006bffffffffffffffffffffffff82169050919050565b82818337600083830152505050565b60005b838110156135c95780820151818401526020810190506135ae565b838111156135d8576000848401525b50505050565b600060028204905060018216806135f657607f821691505b6020821081141561360a576136096136e8565b5b50919050565b61361982613746565b810181811067ffffffffffffffff8211171561363857613637613717565b5b80604052505050565b600061364c8261356a565b91507fffffffffffffffffffffffffffffffffffffffffffffffffffffffffffffffff82141561367f5761367e61368a565b5b600182019050919050565b7f4e487b7100000000000000000000000000000000000000000000000000000000600052601160045260246000fd5b7f4e487b7100000000000000000000000000000000000000000000000000000000600052601260045260246000fd5b7f4e487b7100000000000000000000000000000000000000000000000000000000600052602260045260246000fd5b7f4e487b7100000000000000000000000000000000000000000000000000000000600052604160045260246000fd5b6000601f19601f8301169050919050565b7f57686974654c697374204d696e7420656e6465642e0000000000000000000000600082015250565b7f4e6f7420456e6f75676820546f6b656e73204c65667420666f7220736b756c6c60008201527f4c69737400000000000000000000000000000000000000000000000000000000602082015250565b7f4f776e61626c653a206e6577206f776e657220697320746865207a65726f206160008201527f6464726573730000000000000000000000000000000000000000000000000000602082015250565b7f596f752063616e206f6e6c79206d696e742032204e4654730000000000000000600082015250565b7f596f752063616e206f6e6c79206d696e742031204e4654000000000000000000600082015250565b7f5075626c6963204d696e74206e6f742079657420537461727465640000000000600082015250565b7f4e6f7420456e6f75676820546f6b656e73204c65667420666f72204f47000000600082015250565b7f4e6f7420456e6f756768204574686572732053656e7400000000000000000000600082015250565b7f4f776e61626c653a2063616c6c6572206973206e6f7420746865206f776e6572600082015250565b7f596f752063616e206d696e74206f6e6c792031206e6674000000000000000000600082015250565b7f4f47205374696c6c20486176652054696d6520546f204d696e74000000000000600082015250565b7f4e6f7420456e6f75676820546f6b656e73204c65667400000000000000000000600082015250565b7f536b756c6c206d696e7420656e6465642e000000000000000000000000000000600082015250565b7f4d696e74204e6f74205965742053746172746564000000000000000000000000600082015250565b6139ea816134f6565b81146139f557600080fd5b50565b613a0181613508565b8114613a0c57600080fd5b50565b613a1881613514565b8114613a2357600080fd5b50565b613a2f8161351e565b8114613a3a57600080fd5b50565b613a468161356a565b8114613a5157600080fd5b50565b613a5d81613574565b8114613a6857600080fd5b50565b613a7481613584565b8114613a7f57600080fd5b5056fea26469706673582212203535aea971762847904622974c13e61d8dc6930e1b93fffbdedf921dfb8b144864736f6c6343000804003368747470733a2f2f696e646965736b756c6c73796e6469636174652e6d7970696e6174612e636c6f75642f697066732f516d53785a74456b52634264574c3953376e454250333335426336544e4d6d3648396e6d465864713656565573482f",
  "devdoc": {
    "kind": "dev",
    "methods": {
      "approve(address,uint256)": {
        "details": "Gives permission to `to` to transfer `tokenId` token to another account. The approval is cleared when the token is transferred. Only a single account can be approved at a time, so approving the zero address clears previous approvals. Requirements: - The caller must own the token or be an approved operator. - `tokenId` must exist. Emits an {Approval} event."
      },
      "balanceOf(address)": {
        "details": "Returns the number of tokens in `owner`'s account."
      },
      "getApproved(uint256)": {
        "details": "Returns the account approved for `tokenId` token. Requirements: - `tokenId` must exist."
      },
      "isApprovedForAll(address,address)": {
        "details": "Returns if the `operator` is allowed to manage all of the assets of `owner`. See {setApprovalForAll}."
      },
      "name()": {
        "details": "Returns the token collection name."
      },
      "owner()": {
        "details": "Returns the address of the current owner."
      },
      "ownerOf(uint256)": {
        "details": "Returns the owner of the `tokenId` token. Requirements: - `tokenId` must exist."
      },
      "renounceOwnership()": {
        "details": "Leaves the contract without owner. It will not be possible to call `onlyOwner` functions anymore. Can only be called by the current owner. NOTE: Renouncing ownership will leave the contract without an owner, thereby removing any functionality that is only available to the owner."
      },
      "safeTransferFrom(address,address,uint256)": {
        "details": "Equivalent to `safeTransferFrom(from, to, tokenId, '')`."
      },
      "safeTransferFrom(address,address,uint256,bytes)": {
        "details": "Safely transfers `tokenId` token from `from` to `to`. Requirements: - `from` cannot be the zero address. - `to` cannot be the zero address. - `tokenId` token must exist and be owned by `from`. - If the caller is not `from`, it must be approved to move this token by either {approve} or {setApprovalForAll}. - If `to` refers to a smart contract, it must implement {IERC721Receiver-onERC721Received}, which is called upon a safe transfer. Emits a {Transfer} event."
      },
      "setApprovalForAll(address,bool)": {
        "details": "Approve or remove `operator` as an operator for the caller. Operators can call {transferFrom} or {safeTransferFrom} for any token owned by the caller. Requirements: - The `operator` cannot be the caller. Emits an {ApprovalForAll} event."
      },
      "supportsInterface(bytes4)": {
        "details": "Returns true if this contract implements the interface defined by `interfaceId`. See the corresponding [EIP section](https://eips.ethereum.org/EIPS/eip-165#how-interfaces-are-identified) to learn more about how these ids are created. This function call must use less than 30000 gas."
      },
      "symbol()": {
        "details": "Returns the token collection symbol."
      },
      "tokenURI(uint256)": {
        "details": "Returns the Uniform Resource Identifier (URI) for `tokenId` token."
      },
      "totalSupply()": {
        "details": "Returns the total number of tokens in existence. Burned tokens will reduce the count. To get the total number of tokens minted, please see {_totalMinted}."
      },
      "transferFrom(address,address,uint256)": {
        "details": "Transfers `tokenId` from `from` to `to`. Requirements: - `from` cannot be the zero address. - `to` cannot be the zero address. - `tokenId` token must be owned by `from`. - If the caller is not `from`, it must be approved to move this token by either {approve} or {setApprovalForAll}. Emits a {Transfer} event."
      },
      "transferOwnership(address)": {
        "details": "Transfers ownership of the contract to a new account (`newOwner`). Can only be called by the current owner."
      }
    },
    "version": 1
  },
  "userdoc": {
    "errors": {
      "ApprovalCallerNotOwnerNorApproved()": [
        {
          "notice": "The caller must own the token or be an approved operator."
        }
      ],
      "ApprovalQueryForNonexistentToken()": [
        {
          "notice": "The token does not exist."
        }
      ],
      "BalanceQueryForZeroAddress()": [
        {
          "notice": "Cannot query the balance for the zero address."
        }
      ],
      "MintERC2309QuantityExceedsLimit()": [
        {
          "notice": "The `quantity` minted with ERC2309 exceeds the safety limit."
        }
      ],
      "MintToZeroAddress()": [
        {
          "notice": "Cannot mint to the zero address."
        }
      ],
      "MintZeroQuantity()": [
        {
          "notice": "The quantity of tokens minted must be more than zero."
        }
      ],
      "OwnerQueryForNonexistentToken()": [
        {
          "notice": "The token does not exist."
        }
      ],
      "OwnershipNotInitializedForExtraData()": [
        {
          "notice": "The `extraData` cannot be set on an unintialized ownership slot."
        }
      ],
      "TransferCallerNotOwnerNorApproved()": [
        {
          "notice": "The caller must own the token or be an approved operator."
        }
      ],
      "TransferFromIncorrectOwner()": [
        {
          "notice": "The token must be owned by `from`."
        }
      ],
      "TransferToNonERC721ReceiverImplementer()": [
        {
          "notice": "Cannot safely transfer to a contract that does not implement the ERC721Receiver interface."
        }
      ],
      "TransferToZeroAddress()": [
        {
          "notice": "Cannot transfer to the zero address."
        }
      ],
      "URIQueryForNonexistentToken()": [
        {
          "notice": "The token does not exist."
        }
      ]
    },
    "kind": "user",
    "methods": {},
    "version": 1
  },
  "storageLayout": {
    "storage": [
      {
        "astId": 728,
        "contract": "contracts/indie-skull-contract.sol:skullSyndicate",
        "label": "_currentIndex",
        "offset": 0,
        "slot": "0",
        "type": "t_uint256"
      },
      {
        "astId": 730,
        "contract": "contracts/indie-skull-contract.sol:skullSyndicate",
        "label": "_burnCounter",
        "offset": 0,
        "slot": "1",
        "type": "t_uint256"
      },
      {
        "astId": 732,
        "contract": "contracts/indie-skull-contract.sol:skullSyndicate",
        "label": "_name",
        "offset": 0,
        "slot": "2",
        "type": "t_string_storage"
      },
      {
        "astId": 734,
        "contract": "contracts/indie-skull-contract.sol:skullSyndicate",
        "label": "_symbol",
        "offset": 0,
        "slot": "3",
        "type": "t_string_storage"
      },
      {
        "astId": 738,
        "contract": "contracts/indie-skull-contract.sol:skullSyndicate",
        "label": "_packedOwnerships",
        "offset": 0,
        "slot": "4",
        "type": "t_mapping(t_uint256,t_uint256)"
      },
      {
        "astId": 742,
        "contract": "contracts/indie-skull-contract.sol:skullSyndicate",
        "label": "_packedAddressData",
        "offset": 0,
        "slot": "5",
        "type": "t_mapping(t_address,t_uint256)"
      },
      {
        "astId": 747,
        "contract": "contracts/indie-skull-contract.sol:skullSyndicate",
        "label": "_tokenApprovals",
        "offset": 0,
        "slot": "6",
        "type": "t_mapping(t_uint256,t_struct(TokenApprovalRef)660_storage)"
      },
      {
        "astId": 753,
        "contract": "contracts/indie-skull-contract.sol:skullSyndicate",
        "label": "_operatorApprovals",
        "offset": 0,
        "slot": "7",
        "type": "t_mapping(t_address,t_mapping(t_address,t_bool))"
      },
      {
        "astId": 7,
        "contract": "contracts/indie-skull-contract.sol:skullSyndicate",
        "label": "_owner",
        "offset": 0,
        "slot": "8",
        "type": "t_address"
      },
      {
        "astId": 2477,
        "contract": "contracts/indie-skull-contract.sol:skullSyndicate",
        "label": "MAX_MINTS",
        "offset": 0,
        "slot": "9",
        "type": "t_uint256"
      },
      {
        "astId": 2479,
        "contract": "contracts/indie-skull-contract.sol:skullSyndicate",
        "label": "Public_Mints",
        "offset": 0,
        "slot": "10",
        "type": "t_uint256"
      },
      {
        "astId": 2481,
        "contract": "contracts/indie-skull-contract.sol:skullSyndicate",
        "label": "Skull_Mints",
        "offset": 0,
        "slot": "11",
        "type": "t_uint256"
      },
      {
        "astId": 2483,
        "contract": "contracts/indie-skull-contract.sol:skullSyndicate",
        "label": "WL_Mints",
        "offset": 0,
        "slot": "12",
        "type": "t_uint256"
      },
      {
        "astId": 2486,
        "contract": "contracts/indie-skull-contract.sol:skullSyndicate",
        "label": "MAX_SUPPLY",
        "offset": 0,
        "slot": "13",
        "type": "t_uint256"
      },
      {
        "astId": 2489,
        "contract": "contracts/indie-skull-contract.sol:skullSyndicate",
        "label": "mint_Price",
        "offset": 0,
        "slot": "14",
        "type": "t_uint256"
      },
      {
        "astId": 2492,
        "contract": "contracts/indie-skull-contract.sol:skullSyndicate",
        "label": "skull_List_Mint_Price",
        "offset": 0,
        "slot": "15",
        "type": "t_uint256"
      },
      {
        "astId": 2495,
        "contract": "contracts/indie-skull-contract.sol:skullSyndicate",
        "label": "Skull_List_Time",
        "offset": 0,
        "slot": "16",
        "type": "t_uint32"
      },
      {
        "astId": 2498,
        "contract": "contracts/indie-skull-contract.sol:skullSyndicate",
        "label": "whiteList_Time",
        "offset": 4,
        "slot": "16",
        "type": "t_uint32"
      },
      {
        "astId": 2501,
        "contract": "contracts/indie-skull-contract.sol:skullSyndicate",
        "label": "end_of_WL_mint",
        "offset": 8,
        "slot": "16",
        "type": "t_uint32"
      },
      {
        "astId": 2504,
        "contract": "contracts/indie-skull-contract.sol:skullSyndicate",
        "label": "mint_Time",
        "offset": 12,
        "slot": "16",
        "type": "t_uint32"
      },
      {
        "astId": 2507,
        "contract": "contracts/indie-skull-contract.sol:skullSyndicate",
        "label": "DeveloperAddress",
        "offset": 0,
        "slot": "17",
        "type": "t_address"
      },
      {
        "astId": 2510,
        "contract": "contracts/indie-skull-contract.sol:skullSyndicate",
        "label": "OwnerAddress",
        "offset": 0,
        "slot": "18",
        "type": "t_address"
      },
      {
        "astId": 2512,
        "contract": "contracts/indie-skull-contract.sol:skullSyndicate",
        "label": "royaltyFeesInBips",
        "offset": 20,
        "slot": "18",
        "type": "t_uint96"
      },
      {
        "astId": 2514,
        "contract": "contracts/indie-skull-contract.sol:skullSyndicate",
        "label": "royaltyReceiver",
        "offset": 0,
        "slot": "19",
        "type": "t_address"
      },
      {
        "astId": 2516,
        "contract": "contracts/indie-skull-contract.sol:skullSyndicate",
        "label": "amount",
        "offset": 0,
        "slot": "20",
        "type": "t_uint256"
      },
      {
        "astId": 2518,
        "contract": "contracts/indie-skull-contract.sol:skullSyndicate",
        "label": "contractURI",
        "offset": 0,
        "slot": "21",
        "type": "t_string_storage"
      },
      {
        "astId": 2520,
        "contract": "contracts/indie-skull-contract.sol:skullSyndicate",
        "label": "whiteList_root",
        "offset": 0,
        "slot": "22",
        "type": "t_bytes32"
      },
      {
        "astId": 2522,
        "contract": "contracts/indie-skull-contract.sol:skullSyndicate",
        "label": "skull_root",
        "offset": 0,
        "slot": "23",
        "type": "t_bytes32"
      },
      {
        "astId": 2524,
        "contract": "contracts/indie-skull-contract.sol:skullSyndicate",
        "label": "checkWL",
        "offset": 0,
        "slot": "24",
        "type": "t_bool"
      },
      {
        "astId": 2526,
        "contract": "contracts/indie-skull-contract.sol:skullSyndicate",
        "label": "checkSkull",
        "offset": 1,
        "slot": "24",
        "type": "t_bool"
      },
      {
        "astId": 2529,
        "contract": "contracts/indie-skull-contract.sol:skullSyndicate",
        "label": "baseURI",
        "offset": 0,
        "slot": "25",
        "type": "t_string_storage"
      }
    ],
    "types": {
      "t_address": {
        "encoding": "inplace",
        "label": "address",
        "numberOfBytes": "20"
      },
      "t_bool": {
        "encoding": "inplace",
        "label": "bool",
        "numberOfBytes": "1"
      },
      "t_bytes32": {
        "encoding": "inplace",
        "label": "bytes32",
        "numberOfBytes": "32"
      },
      "t_mapping(t_address,t_bool)": {
        "encoding": "mapping",
        "key": "t_address",
        "label": "mapping(address => bool)",
        "numberOfBytes": "32",
        "value": "t_bool"
      },
      "t_mapping(t_address,t_mapping(t_address,t_bool))": {
        "encoding": "mapping",
        "key": "t_address",
        "label": "mapping(address => mapping(address => bool))",
        "numberOfBytes": "32",
        "value": "t_mapping(t_address,t_bool)"
      },
      "t_mapping(t_address,t_uint256)": {
        "encoding": "mapping",
        "key": "t_address",
        "label": "mapping(address => uint256)",
        "numberOfBytes": "32",
        "value": "t_uint256"
      },
      "t_mapping(t_uint256,t_struct(TokenApprovalRef)660_storage)": {
        "encoding": "mapping",
        "key": "t_uint256",
        "label": "mapping(uint256 => struct ERC721A.TokenApprovalRef)",
        "numberOfBytes": "32",
        "value": "t_struct(TokenApprovalRef)660_storage"
      },
      "t_mapping(t_uint256,t_uint256)": {
        "encoding": "mapping",
        "key": "t_uint256",
        "label": "mapping(uint256 => uint256)",
        "numberOfBytes": "32",
        "value": "t_uint256"
      },
      "t_string_storage": {
        "encoding": "bytes",
        "label": "string",
        "numberOfBytes": "32"
      },
      "t_struct(TokenApprovalRef)660_storage": {
        "encoding": "inplace",
        "label": "struct ERC721A.TokenApprovalRef",
        "members": [
          {
            "astId": 659,
            "contract": "contracts/indie-skull-contract.sol:skullSyndicate",
            "label": "value",
            "offset": 0,
            "slot": "0",
            "type": "t_address"
          }
        ],
        "numberOfBytes": "32"
      },
      "t_uint256": {
        "encoding": "inplace",
        "label": "uint256",
        "numberOfBytes": "32"
      },
      "t_uint32": {
        "encoding": "inplace",
        "label": "uint32",
        "numberOfBytes": "4"
      },
      "t_uint96": {
        "encoding": "inplace",
        "label": "uint96",
        "numberOfBytes": "12"
      }
    }
  }
}