{
  "address": "0x2b04259a891C0055D9178F1E4fddB7D94E554F8e",
  "abi": [
    {
      "inputs": [
        {
          "internalType": "uint96",
          "name": "_royaltyFeesInBips",
          "type": "uint96"
        },
        {
          "internalType": "string",
          "name": "_contractURI",
          "type": "string"
        },
        {
          "internalType": "bytes32",
          "name": "_whiteList_root",
          "type": "bytes32"
        },
        {
          "internalType": "bytes32",
          "name": "_skull_root",
          "type": "bytes32"
        }
      ],
      "stateMutability": "nonpayable",
      "type": "constructor"
    },
    {
      "inputs": [],
      "name": "ApprovalCallerNotOwnerNorApproved",
      "type": "error"
    },
    {
      "inputs": [],
      "name": "ApprovalQueryForNonexistentToken",
      "type": "error"
    },
    {
      "inputs": [],
      "name": "BalanceQueryForZeroAddress",
      "type": "error"
    },
    {
      "inputs": [],
      "name": "MintERC2309QuantityExceedsLimit",
      "type": "error"
    },
    {
      "inputs": [],
      "name": "MintToZeroAddress",
      "type": "error"
    },
    {
      "inputs": [],
      "name": "MintZeroQuantity",
      "type": "error"
    },
    {
      "inputs": [],
      "name": "OwnerQueryForNonexistentToken",
      "type": "error"
    },
    {
      "inputs": [],
      "name": "OwnershipNotInitializedForExtraData",
      "type": "error"
    },
    {
      "inputs": [],
      "name": "TransferCallerNotOwnerNorApproved",
      "type": "error"
    },
    {
      "inputs": [],
      "name": "TransferFromIncorrectOwner",
      "type": "error"
    },
    {
      "inputs": [],
      "name": "TransferToNonERC721ReceiverImplementer",
      "type": "error"
    },
    {
      "inputs": [],
      "name": "TransferToZeroAddress",
      "type": "error"
    },
    {
      "inputs": [],
      "name": "URIQueryForNonexistentToken",
      "type": "error"
    },
    {
      "anonymous": false,
      "inputs": [
        {
          "indexed": true,
          "internalType": "address",
          "name": "owner",
          "type": "address"
        },
        {
          "indexed": true,
          "internalType": "address",
          "name": "approved",
          "type": "address"
        },
        {
          "indexed": true,
          "internalType": "uint256",
          "name": "tokenId",
          "type": "uint256"
        }
      ],
      "name": "Approval",
      "type": "event"
    },
    {
      "anonymous": false,
      "inputs": [
        {
          "indexed": true,
          "internalType": "address",
          "name": "owner",
          "type": "address"
        },
        {
          "indexed": true,
          "internalType": "address",
          "name": "operator",
          "type": "address"
        },
        {
          "indexed": false,
          "internalType": "bool",
          "name": "approved",
          "type": "bool"
        }
      ],
      "name": "ApprovalForAll",
      "type": "event"
    },
    {
      "anonymous": false,
      "inputs": [
        {
          "indexed": true,
          "internalType": "uint256",
          "name": "fromTokenId",
          "type": "uint256"
        },
        {
          "indexed": false,
          "internalType": "uint256",
          "name": "toTokenId",
          "type": "uint256"
        },
        {
          "indexed": true,
          "internalType": "address",
          "name": "from",
          "type": "address"
        },
        {
          "indexed": true,
          "internalType": "address",
          "name": "to",
          "type": "address"
        }
      ],
      "name": "ConsecutiveTransfer",
      "type": "event"
    },
    {
      "anonymous": false,
      "inputs": [
        {
          "indexed": true,
          "internalType": "address",
          "name": "previousOwner",
          "type": "address"
        },
        {
          "indexed": true,
          "internalType": "address",
          "name": "newOwner",
          "type": "address"
        }
      ],
      "name": "OwnershipTransferred",
      "type": "event"
    },
    {
      "anonymous": false,
      "inputs": [
        {
          "indexed": true,
          "internalType": "address",
          "name": "from",
          "type": "address"
        },
        {
          "indexed": true,
          "internalType": "address",
          "name": "to",
          "type": "address"
        },
        {
          "indexed": true,
          "internalType": "uint256",
          "name": "tokenId",
          "type": "uint256"
        }
      ],
      "name": "Transfer",
      "type": "event"
    },
    {
      "inputs": [
        {
          "internalType": "address",
          "name": "_OwnerAddress",
          "type": "address"
        }
      ],
      "name": "ChangeOwner",
      "outputs": [],
      "stateMutability": "nonpayable",
      "type": "function"
    },
    {
      "inputs": [
        {
          "internalType": "bytes32",
          "name": "_root",
          "type": "bytes32"
        }
      ],
      "name": "add_WhiteList_Hash",
      "outputs": [],
      "stateMutability": "nonpayable",
      "type": "function"
    },
    {
      "inputs": [
        {
          "internalType": "bytes32",
          "name": "_root",
          "type": "bytes32"
        }
      ],
      "name": "add_skullList_Hash",
      "outputs": [],
      "stateMutability": "nonpayable",
      "type": "function"
    },
    {
      "inputs": [
        {
          "internalType": "address",
          "name": "to",
          "type": "address"
        },
        {
          "internalType": "uint256",
          "name": "tokenId",
          "type": "uint256"
        }
      ],
      "name": "approve",
      "outputs": [],
      "stateMutability": "payable",
      "type": "function"
    },
    {
      "inputs": [
        {
          "internalType": "address",
          "name": "owner",
          "type": "address"
        }
      ],
      "name": "balanceOf",
      "outputs": [
        {
          "internalType": "uint256",
          "name": "",
          "type": "uint256"
        }
      ],
      "stateMutability": "view",
      "type": "function"
    },
    {
      "inputs": [
        {
          "internalType": "uint256",
          "name": "_salePrice",
          "type": "uint256"
        }
      ],
      "name": "calculateRoyalty",
      "outputs": [
        {
          "internalType": "uint256",
          "name": "",
          "type": "uint256"
        }
      ],
      "stateMutability": "view",
      "type": "function"
    },
    {
      "inputs": [
        {
          "internalType": "uint256",
          "name": "tokenId",
          "type": "uint256"
        }
      ],
      "name": "getApproved",
      "outputs": [
        {
          "internalType": "address",
          "name": "",
          "type": "address"
        }
      ],
      "stateMutability": "view",
      "type": "function"
    },
    {
      "inputs": [
        {
          "internalType": "address",
          "name": "owner",
          "type": "address"
        },
        {
          "internalType": "address",
          "name": "operator",
          "type": "address"
        }
      ],
      "name": "isApprovedForAll",
      "outputs": [
        {
          "internalType": "bool",
          "name": "",
          "type": "bool"
        }
      ],
      "stateMutability": "view",
      "type": "function"
    },
    {
      "inputs": [
        {
          "internalType": "uint256",
          "name": "quantity",
          "type": "uint256"
        },
        {
          "internalType": "bytes32[]",
          "name": "proof",
          "type": "bytes32[]"
        },
        {
          "internalType": "bytes32",
          "name": "leaf",
          "type": "bytes32"
        }
      ],
      "name": "mint",
      "outputs": [],
      "stateMutability": "payable",
      "type": "function"
    },
    {
      "inputs": [],
      "name": "name",
      "outputs": [
        {
          "internalType": "string",
          "name": "",
          "type": "string"
        }
      ],
      "stateMutability": "view",
      "type": "function"
    },
    {
      "inputs": [],
      "name": "owner",
      "outputs": [
        {
          "internalType": "address",
          "name": "",
          "type": "address"
        }
      ],
      "stateMutability": "view",
      "type": "function"
    },
    {
      "inputs": [
        {
          "internalType": "uint256",
          "name": "tokenId",
          "type": "uint256"
        }
      ],
      "name": "ownerOf",
      "outputs": [
        {
          "internalType": "address",
          "name": "",
          "type": "address"
        }
      ],
      "stateMutability": "view",
      "type": "function"
    },
    {
      "inputs": [],
      "name": "renounceOwnership",
      "outputs": [],
      "stateMutability": "nonpayable",
      "type": "function"
    },
    {
      "inputs": [
        {
          "internalType": "uint256",
          "name": "",
          "type": "uint256"
        },
        {
          "internalType": "uint256",
          "name": "_salePrice",
          "type": "uint256"
        }
      ],
      "name": "royaltyInfo",
      "outputs": [
        {
          "internalType": "address",
          "name": "receiver",
          "type": "address"
        },
        {
          "internalType": "uint256",
          "name": "royaltyAmount",
          "type": "uint256"
        }
      ],
      "stateMutability": "view",
      "type": "function"
    },
    {
      "inputs": [
        {
          "internalType": "address",
          "name": "from",
          "type": "address"
        },
        {
          "internalType": "address",
          "name": "to",
          "type": "address"
        },
        {
          "internalType": "uint256",
          "name": "tokenId",
          "type": "uint256"
        }
      ],
      "name": "safeTransferFrom",
      "outputs": [],
      "stateMutability": "payable",
      "type": "function"
    },
    {
      "inputs": [
        {
          "internalType": "address",
          "name": "from",
          "type": "address"
        },
        {
          "internalType": "address",
          "name": "to",
          "type": "address"
        },
        {
          "internalType": "uint256",
          "name": "tokenId",
          "type": "uint256"
        },
        {
          "internalType": "bytes",
          "name": "_data",
          "type": "bytes"
        }
      ],
      "name": "safeTransferFrom",
      "outputs": [],
      "stateMutability": "payable",
      "type": "function"
    },
    {
      "inputs": [
        {
          "internalType": "address",
          "name": "operator",
          "type": "address"
        },
        {
          "internalType": "bool",
          "name": "approved",
          "type": "bool"
        }
      ],
      "name": "setApprovalForAll",
      "outputs": [],
      "stateMutability": "nonpayable",
      "type": "function"
    },
    {
      "inputs": [
        {
          "internalType": "string",
          "name": "_baseUri",
          "type": "string"
        }
      ],
      "name": "setBaseURI",
      "outputs": [],
      "stateMutability": "nonpayable",
      "type": "function"
    },
    {
      "inputs": [
        {
          "internalType": "string",
          "name": "_contractURI",
          "type": "string"
        }
      ],
      "name": "setContractUri",
      "outputs": [],
      "stateMutability": "nonpayable",
      "type": "function"
    },
    {
      "inputs": [
        {
          "internalType": "bytes32",
          "name": "_whiteList_root",
          "type": "bytes32"
        },
        {
          "internalType": "bytes32",
          "name": "_skull_root",
          "type": "bytes32"
        }
      ],
      "name": "setRootHashes",
      "outputs": [],
      "stateMutability": "nonpayable",
      "type": "function"
    },
    {
      "inputs": [
        {
          "internalType": "address",
          "name": "_receiver",
          "type": "address"
        },
        {
          "internalType": "uint96",
          "name": "_royaltyFeesInBips",
          "type": "uint96"
        }
      ],
      "name": "setRoyaltyInfo",
      "outputs": [],
      "stateMutability": "nonpayable",
      "type": "function"
    },
    {
      "inputs": [
        {
          "internalType": "address",
          "name": "_developer",
          "type": "address"
        }
      ],
      "name": "setStakeAddress",
      "outputs": [],
      "stateMutability": "nonpayable",
      "type": "function"
    },
    {
      "inputs": [
        {
          "internalType": "uint32",
          "name": "_stamp",
          "type": "uint32"
        },
        {
          "internalType": "uint32",
          "name": "_Skull_List_Time",
          "type": "uint32"
        },
        {
          "internalType": "uint32",
          "name": "_wl",
          "type": "uint32"
        }
      ],
      "name": "setTimer",
      "outputs": [],
      "stateMutability": "nonpayable",
      "type": "function"
    },
    {
      "inputs": [
        {
          "internalType": "bytes32[]",
          "name": "proof",
          "type": "bytes32[]"
        },
        {
          "internalType": "bytes32",
          "name": "leaf",
          "type": "bytes32"
        }
      ],
      "name": "skullList_MerkleVerify",
      "outputs": [
        {
          "internalType": "bool",
          "name": "",
          "type": "bool"
        }
      ],
      "stateMutability": "view",
      "type": "function"
    },
    {
      "inputs": [],
      "name": "suppliedNFTs",
      "outputs": [
        {
          "internalType": "uint256",
          "name": "",
          "type": "uint256"
        }
      ],
      "stateMutability": "view",
      "type": "function"
    },
    {
      "inputs": [
        {
          "internalType": "bytes4",
          "name": "interfaceId",
          "type": "bytes4"
        }
      ],
      "name": "supportsInterface",
      "outputs": [
        {
          "internalType": "bool",
          "name": "",
          "type": "bool"
        }
      ],
      "stateMutability": "view",
      "type": "function"
    },
    {
      "inputs": [],
      "name": "symbol",
      "outputs": [
        {
          "internalType": "string",
          "name": "",
          "type": "string"
        }
      ],
      "stateMutability": "view",
      "type": "function"
    },
    {
      "inputs": [
        {
          "internalType": "uint256",
          "name": "tokenId",
          "type": "uint256"
        }
      ],
      "name": "tokenURI",
      "outputs": [
        {
          "internalType": "string",
          "name": "",
          "type": "string"
        }
      ],
      "stateMutability": "view",
      "type": "function"
    },
    {
      "inputs": [],
      "name": "totalSupply",
      "outputs": [
        {
          "internalType": "uint256",
          "name": "",
          "type": "uint256"
        }
      ],
      "stateMutability": "view",
      "type": "function"
    },
    {
      "inputs": [
        {
          "internalType": "address",
          "name": "from",
          "type": "address"
        },
        {
          "internalType": "address",
          "name": "to",
          "type": "address"
        },
        {
          "internalType": "uint256",
          "name": "tokenId",
          "type": "uint256"
        }
      ],
      "name": "transferFrom",
      "outputs": [],
      "stateMutability": "payable",
      "type": "function"
    },
    {
      "inputs": [
        {
          "internalType": "address",
          "name": "newOwner",
          "type": "address"
        }
      ],
      "name": "transferOwnership",
      "outputs": [],
      "stateMutability": "nonpayable",
      "type": "function"
    },
    {
      "inputs": [],
      "name": "userMint",
      "outputs": [
        {
          "internalType": "uint256",
          "name": "",
          "type": "uint256"
        }
      ],
      "stateMutability": "view",
      "type": "function"
    },
    {
      "inputs": [
        {
          "internalType": "bytes32[]",
          "name": "proof",
          "type": "bytes32[]"
        },
        {
          "internalType": "bytes32",
          "name": "leaf",
          "type": "bytes32"
        }
      ],
      "name": "whiteList_MerkleVerify",
      "outputs": [
        {
          "internalType": "bool",
          "name": "",
          "type": "bool"
        }
      ],
      "stateMutability": "view",
      "type": "function"
    },
    {
      "inputs": [],
      "name": "withdraw",
      "outputs": [],
      "stateMutability": "payable",
      "type": "function"
    }
  ],
  "transactionHash": "0xab8308b595645f14955034819ac9252e81d28d30c342e6b37ef9d8d6ce4f899f",
  "args": [
    1000,
    "nothing",
    "0x1851855d606db3a0bd811d5a9175b48ecd0f6b8a7666476f5f721b9018682434",
    "0x5b2dd006ca115df682c63afaefb3a977b7d02d084628cf6b3cc879edcdf0dc93"
  ],
  "numDeployments": 10,
  "solcInputHash": "63e3b61e18ad343363b2471b655ce9c3",
  "bytecode": "0x608060405260026009556109c4600d5566354a6ba7a18000600e55661ff973cafa8000600f5563633972b4601060006101000a81548163ffffffff021916908363ffffffff1602179055506363397638601060046101000a81548163ffffffff021916908363ffffffff16021790555063633979bc601060086101000a81548163ffffffff021916908363ffffffff16021790555073b96dfc3e4cbe9da6f072d57c13b5efb44c8b192c6010600c6101000a81548173ffffffffffffffffffffffffffffffffffffffff021916908373ffffffffffffffffffffffffffffffffffffffff160217905550732e3d02c126e75ad3b4c95db3a78e83044d39bf31601160006101000a81548173ffffffffffffffffffffffffffffffffffffffff021916908373ffffffffffffffffffffffffffffffffffffffff160217905550604051806080016040528060518152602001620047f960519139601890805190602001906200016f929190620008bc565b503480156200017d57600080fd5b506040516200484a3803806200484a8339818101604052810190620001a3919062000a4f565b6040518060400160405280601581526020017f496e64696520536b756c6c2053796e64696361746500000000000000000000008152506040518060400160405280600381526020017f4953530000000000000000000000000000000000000000000000000000000000815250816002908051906020019062000227929190620008bc565b50806003908051906020019062000240929190620008bc565b50620002516200032f60201b60201c565b6000819055505050620002796200026d6200033460201b60201c565b6200033c60201b60201c565b83601160146101000a8154816bffffffffffffffffffffffff02191690836bffffffffffffffffffffffff1602179055508260149080519060200190620002c2929190620008bc565b50816015819055508060168190555033601260006101000a81548173ffffffffffffffffffffffffffffffffffffffff021916908373ffffffffffffffffffffffffffffffffffffffff160217905550620003253360146200040260201b60201c565b5050505062000df1565b600090565b600033905090565b6000600860009054906101000a900473ffffffffffffffffffffffffffffffffffffffff16905081600860006101000a81548173ffffffffffffffffffffffffffffffffffffffff021916908373ffffffffffffffffffffffffffffffffffffffff1602179055508173ffffffffffffffffffffffffffffffffffffffff168173ffffffffffffffffffffffffffffffffffffffff167f8be0079c531659141344cd1fd0a4f28419497f9722a3daafe3b4186f6b6457e060405160405180910390a35050565b620004248282604051806020016040528060008152506200042860201b60201c565b5050565b6200043a8383620004d960201b60201c565b60008373ffffffffffffffffffffffffffffffffffffffff163b14620004d457600080549050600083820390505b620004836000868380600101945086620006c260201b60201c565b620004ba576040517fd1a57ed600000000000000000000000000000000000000000000000000000000815260040160405180910390fd5b81811062000468578160005414620004d157600080fd5b50505b505050565b60008054905060008214156200051b576040517fb562e8dd00000000000000000000000000000000000000000000000000000000815260040160405180910390fd5b6200053060008483856200083460201b60201c565b600160406001901b178202600560008573ffffffffffffffffffffffffffffffffffffffff1673ffffffffffffffffffffffffffffffffffffffff16815260200190815260200160002060008282540192505081905550620005bf83620005a160008660006200083a60201b60201c565b620005b2856200086a60201b60201c565b176200087a60201b60201c565b6004600083815260200190815260200160002081905550600080838301905073ffffffffffffffffffffffffffffffffffffffff85169150828260007fddf252ad1be2c89b69c2b068fc378daa952ba7f163c4a11628f55a4df523b3ef600080a4600183015b8181146200066257808360007fddf252ad1be2c89b69c2b068fc378daa952ba7f163c4a11628f55a4df523b3ef600080a460018101905062000625565b5060008214156200069f576040517f2e07630000000000000000000000000000000000000000000000000000000000815260040160405180910390fd5b806000819055505050620006bd6000848385620008a560201b60201c565b505050565b60008373ffffffffffffffffffffffffffffffffffffffff1663150b7a02620006f0620008ab60201b60201c565b8786866040518563ffffffff1660e01b815260040162000714949392919062000b37565b602060405180830381600087803b1580156200072f57600080fd5b505af19250505080156200076357506040513d601f19601f8201168201806040525081019062000760919062000a23565b60015b620007e1573d806000811462000796576040519150601f19603f3d011682016040523d82523d6000602084013e6200079b565b606091505b50600081511415620007d9576040517fd1a57ed600000000000000000000000000000000000000000000000000000000815260040160405180910390fd5b805181602001fd5b63150b7a0260e01b7bffffffffffffffffffffffffffffffffffffffffffffffffffffffff1916817bffffffffffffffffffffffffffffffffffffffffffffffffffffffff191614915050949350505050565b50505050565b60008060e883901c905060e862000859868684620008b360201b60201c565b62ffffff16901b9150509392505050565b60006001821460e11b9050919050565b600073ffffffffffffffffffffffffffffffffffffffff83169250814260a01b178317905092915050565b50505050565b600033905090565b60009392505050565b828054620008ca9062000cc8565b90600052602060002090601f016020900481019282620008ee57600085556200093a565b82601f106200090957805160ff19168380011785556200093a565b828001600101855582156200093a579182015b82811115620009395782518255916020019190600101906200091c565b5b5090506200094991906200094d565b5090565b5b80821115620009685760008160009055506001016200094e565b5090565b6000620009836200097d8462000bb4565b62000b8b565b9050828152602081018484840111156200099c57600080fd5b620009a984828562000c92565b509392505050565b600081519050620009c28162000da3565b92915050565b600081519050620009d98162000dbd565b92915050565b600082601f830112620009f157600080fd5b815162000a038482602086016200096c565b91505092915050565b60008151905062000a1d8162000dd7565b92915050565b60006020828403121562000a3657600080fd5b600062000a4684828501620009c8565b91505092915050565b6000806000806080858703121562000a6657600080fd5b600062000a768782880162000a0c565b945050602085015167ffffffffffffffff81111562000a9457600080fd5b62000aa287828801620009df565b935050604062000ab587828801620009b1565b925050606062000ac887828801620009b1565b91505092959194509250565b62000adf8162000c06565b82525050565b600062000af28262000bea565b62000afe818562000bf5565b935062000b1081856020860162000c92565b62000b1b8162000d92565b840191505092915050565b62000b318162000c70565b82525050565b600060808201905062000b4e600083018762000ad4565b62000b5d602083018662000ad4565b62000b6c604083018562000b26565b818103606083015262000b80818462000ae5565b905095945050505050565b600062000b9762000baa565b905062000ba5828262000cfe565b919050565b6000604051905090565b600067ffffffffffffffff82111562000bd25762000bd162000d63565b5b62000bdd8262000d92565b9050602081019050919050565b600081519050919050565b600082825260208201905092915050565b600062000c138262000c50565b9050919050565b6000819050919050565b60007fffffffff0000000000000000000000000000000000000000000000000000000082169050919050565b600073ffffffffffffffffffffffffffffffffffffffff82169050919050565b6000819050919050565b60006bffffffffffffffffffffffff82169050919050565b60005b8381101562000cb257808201518184015260208101905062000c95565b8381111562000cc2576000848401525b50505050565b6000600282049050600182168062000ce157607f821691505b6020821081141562000cf85762000cf762000d34565b5b50919050565b62000d098262000d92565b810181811067ffffffffffffffff8211171562000d2b5762000d2a62000d63565b5b80604052505050565b7f4e487b7100000000000000000000000000000000000000000000000000000000600052602260045260246000fd5b7f4e487b7100000000000000000000000000000000000000000000000000000000600052604160045260246000fd5b6000601f19601f8301169050919050565b62000dae8162000c1a565b811462000dba57600080fd5b50565b62000dc88162000c24565b811462000dd457600080fd5b50565b62000de28162000c7a565b811462000dee57600080fd5b50565b6139f88062000e016000396000f3fe6080604052600436106101f95760003560e01c806366ec7aa91161010d578063a9dc638e116100a0578063ccb4807b1161006f578063ccb4807b146106f0578063df8f460f14610719578063e985e9c514610744578063f285329214610781578063f2fde38b146107aa576101f9565b8063a9dc638e14610631578063b88d4fde1461065a578063c4d74a2114610676578063c87b56dd146106b3576101f9565b806395d89b41116100dc57806395d89b41146105755780639951f2df146105a0578063a22cb465146105cb578063a2e69613146105f4576101f9565b806366ec7aa9146104cd57806370a08231146104f6578063715018a6146105335780638da5cb5b1461054a576101f9565b806323471d181161019057806342842e0e1161015f57806342842e0e1461040657806355f804b3146104225780635929dbb01461044b5780635b885ed7146104745780636352211e14610490576101f9565b806323471d181461037957806323b872dd146103a25780632a55205a146103be5780633ccfd60b146103fc576101f9565b8063095ea7b3116101cc578063095ea7b3146102cc5780630f3886ef146102e8578063180f11d51461032557806318160ddd1461034e576101f9565b806301ffc9a7146101fe57806302fa7c471461023b57806306fdde0314610264578063081812fc1461028f575b600080fd5b34801561020a57600080fd5b5061022560048036038101906102209190612b9e565b6107d3565b604051610232919061309b565b60405180910390f35b34801561024757600080fd5b50610262600480360381019061025d9190612aa9565b610815565b005b34801561027057600080fd5b50610279610893565b60405161028691906130b6565b60405180910390f35b34801561029b57600080fd5b506102b660048036038101906102b19190612c35565b610925565b6040516102c3919061300b565b60405180910390f35b6102e660048036038101906102e19190612a6d565b6109a4565b005b3480156102f457600080fd5b5061030f600480360381019061030a9190612ae5565b610ae8565b60405161031c919061309b565b60405180910390f35b34801561033157600080fd5b5061034c60048036038101906103479190612b62565b610aff565b005b34801561035a57600080fd5b50610363610b19565b6040516103709190613278565b60405180910390f35b34801561038557600080fd5b506103a0600480360381019061039b9190612902565b610b30565b005b6103bc60048036038101906103b79190612967565b610b7c565b005b3480156103ca57600080fd5b506103e560048036038101906103e09190612cc5565b610ea1565b6040516103f3929190613072565b60405180910390f35b610404610edb565b005b610420600480360381019061041b9190612967565b610fd5565b005b34801561042e57600080fd5b5061044960048036038101906104449190612bf0565b610ff5565b005b34801561045757600080fd5b50610472600480360381019061046d9190612d01565b611013565b005b61048e60048036038101906104899190612c5e565b611083565b005b34801561049c57600080fd5b506104b760048036038101906104b29190612c35565b6116a7565b6040516104c4919061300b565b60405180910390f35b3480156104d957600080fd5b506104f460048036038101906104ef9190612b39565b6116b9565b005b34801561050257600080fd5b5061051d60048036038101906105189190612902565b6116cb565b60405161052a9190613278565b60405180910390f35b34801561053f57600080fd5b50610548611784565b005b34801561055657600080fd5b5061055f611798565b60405161056c919061300b565b60405180910390f35b34801561058157600080fd5b5061058a6117c2565b60405161059791906130b6565b60405180910390f35b3480156105ac57600080fd5b506105b5611854565b6040516105c29190613278565b60405180910390f35b3480156105d757600080fd5b506105f260048036038101906105ed9190612a31565b611863565b005b34801561060057600080fd5b5061061b60048036038101906106169190612c35565b61196e565b6040516106289190613278565b60405180910390f35b34801561063d57600080fd5b5061065860048036038101906106539190612b39565b6119b8565b005b610674600480360381019061066f91906129b6565b6119ca565b005b34801561068257600080fd5b5061069d60048036038101906106989190612ae5565b611a3d565b6040516106aa919061309b565b60405180910390f35b3480156106bf57600080fd5b506106da60048036038101906106d59190612c35565b611a54565b6040516106e791906130b6565b60405180910390f35b3480156106fc57600080fd5b5061071760048036038101906107129190612bf0565b611af3565b005b34801561072557600080fd5b5061072e611b11565b60405161073b9190613278565b60405180910390f35b34801561075057600080fd5b5061076b6004803603810190610766919061292b565b611b21565b604051610778919061309b565b60405180910390f35b34801561078d57600080fd5b506107a860048036038101906107a39190612902565b611bb5565b005b3480156107b657600080fd5b506107d160048036038101906107cc9190612902565b611c01565b005b6000632a55205a60e01b827bffffffffffffffffffffffffffffffffffffffffffffffffffffffff1916148061080e575061080d82611c85565b5b9050919050565b61081d611d17565b81601260006101000a81548173ffffffffffffffffffffffffffffffffffffffff021916908373ffffffffffffffffffffffffffffffffffffffff16021790555080601160146101000a8154816bffffffffffffffffffffffff02191690836bffffffffffffffffffffffff1602179055505050565b6060600280546108a290613521565b80601f01602080910402602001604051908101604052809291908181526020018280546108ce90613521565b801561091b5780601f106108f05761010080835404028352916020019161091b565b820191906000526020600020905b8154815290600101906020018083116108fe57829003601f168201915b5050505050905090565b600061093082611d95565b610966576040517fcf4700e400000000000000000000000000000000000000000000000000000000815260040160405180910390fd5b6006600083815260200190815260200160002060000160009054906101000a900473ffffffffffffffffffffffffffffffffffffffff169050919050565b60006109af826116a7565b90508073ffffffffffffffffffffffffffffffffffffffff166109d0611df4565b73ffffffffffffffffffffffffffffffffffffffff1614610a33576109fc816109f7611df4565b611b21565b610a32576040517fcfb3b94200000000000000000000000000000000000000000000000000000000815260040160405180910390fd5b5b826006600084815260200190815260200160002060000160006101000a81548173ffffffffffffffffffffffffffffffffffffffff021916908373ffffffffffffffffffffffffffffffffffffffff160217905550818373ffffffffffffffffffffffffffffffffffffffff168273ffffffffffffffffffffffffffffffffffffffff167f8c5be1e5ebec7d5bd14f71427d1e84f3dd0314c0f7b2291e5b200ac8c7c3b92560405160405180910390a4505050565b6000610af78360165484611dfc565b905092915050565b610b07611d17565b81601581905550806016819055505050565b6000610b23611e13565b6001546000540303905090565b610b38611d17565b806010600c6101000a81548173ffffffffffffffffffffffffffffffffffffffff021916908373ffffffffffffffffffffffffffffffffffffffff16021790555050565b6000610b8782611e18565b90508373ffffffffffffffffffffffffffffffffffffffff168173ffffffffffffffffffffffffffffffffffffffff1614610bee576040517fa114810000000000000000000000000000000000000000000000000000000000815260040160405180910390fd5b600080610bfa84611ee6565b91509150610c108187610c0b611df4565b611f0d565b610c5c57610c2586610c20611df4565b611b21565b610c5b576040517f59c896be00000000000000000000000000000000000000000000000000000000815260040160405180910390fd5b5b600073ffffffffffffffffffffffffffffffffffffffff168573ffffffffffffffffffffffffffffffffffffffff161415610cc3576040517fea553b3400000000000000000000000000000000000000000000000000000000815260040160405180910390fd5b610cd08686866001611f51565b8015610cdb57600082555b600560008773ffffffffffffffffffffffffffffffffffffffff1673ffffffffffffffffffffffffffffffffffffffff168152602001908152602001600020600081546001900391905081905550600560008673ffffffffffffffffffffffffffffffffffffffff1673ffffffffffffffffffffffffffffffffffffffff1681526020019081526020016000206000815460010191905081905550610da985610d85888887611f57565b7c020000000000000000000000000000000000000000000000000000000017611f7f565b600460008681526020019081526020016000208190555060007c020000000000000000000000000000000000000000000000000000000084161415610e31576000600185019050600060046000838152602001908152602001600020541415610e2f576000548114610e2e578360046000838152602001908152602001600020819055505b5b505b838573ffffffffffffffffffffffffffffffffffffffff168773ffffffffffffffffffffffffffffffffffffffff167fddf252ad1be2c89b69c2b068fc378daa952ba7f163c4a11628f55a4df523b3ef60405160405180910390a4610e998686866001611faa565b505050505050565b600080601260009054906101000a900473ffffffffffffffffffffffffffffffffffffffff16610ed08461196e565b915091509250929050565b610ee3611d17565b60006064601947610ef491906133df565b610efe91906133ae565b90506010600c9054906101000a900473ffffffffffffffffffffffffffffffffffffffff1673ffffffffffffffffffffffffffffffffffffffff166108fc829081150290604051600060405180830381858888f19350505050158015610f68573d6000803e3d6000fd5b50601160009054906101000a900473ffffffffffffffffffffffffffffffffffffffff1673ffffffffffffffffffffffffffffffffffffffff166108fc479081150290604051600060405180830381858888f19350505050158015610fd1573d6000803e3d6000fd5b5050565b610ff0838383604051806020016040528060008152506119ca565b505050565b610ffd611d17565b81816018919061100e92919061266f565b505050565b61101b611d17565b82601060006101000a81548163ffffffff021916908363ffffffff16021790555081601060046101000a81548163ffffffff021916908363ffffffff16021790555080601060086101000a81548163ffffffff021916908363ffffffff160217905550505050565b600d548361108f610b19565b6110999190613358565b11156110da576040517f08c379a00000000000000000000000000000000000000000000000000000000081526004016110d190613238565b60405180910390fd5b6110e48282611a3d565b601760006101000a81548160ff0219169083151502179055506111078282610ae8565b601760016101000a81548160ff02191690831515021790555060011515601760019054906101000a900460ff16151514156111555782600f5461114a91906133df565b601381905550611194565b60011515601760009054906101000a900460ff161515141561117e576000601381905550611193565b82600e5461118c91906133df565b6013819055505b5b60011515601760009054906101000a900460ff16151514156112135760016111bb33611fb0565b141561120e5760016111cc33611fb0565b141561120d576040517f08c379a000000000000000000000000000000000000000000000000000000000815260040161120490613158565b60405180910390fd5b5b611289565b60095461121f33611fb0565b8461122a9190613358565b11156112885760095461123c33611fb0565b846112479190613358565b10611287576040517f08c379a000000000000000000000000000000000000000000000000000000000815260040161127e90613138565b60405180910390fd5b5b5b6013543410156112ce576040517f08c379a00000000000000000000000000000000000000000000000000000000081526004016112c5906131b8565b60405180910390fd5b601060009054906101000a900463ffffffff1663ffffffff16421015611329576040517f08c379a000000000000000000000000000000000000000000000000000000000815260040161132090613258565b60405180910390fd5b611331611798565b73ffffffffffffffffffffffffffffffffffffffff163373ffffffffffffffffffffffffffffffffffffffff16146116a25760011515601760019054906101000a900460ff16151514156114cd576005600b5411156113c5576040517f08c379a00000000000000000000000000000000000000000000000000000000081526004016113bc906130d8565b60405180910390fd5b601060049054906101000a900463ffffffff1663ffffffff16421015806113f4575060196113f1610b19565b10155b15611421576114033384612007565b82600b60008282546114159190613358565b925050819055506114c8565b601961142b610b19565b101561146c576040517f08c379a000000000000000000000000000000000000000000000000000000000815260040161146390613198565b60405180910390fd5b601060049054906101000a900463ffffffff1663ffffffff164210156114c7576040517f08c379a00000000000000000000000000000000000000000000000000000000081526004016114be90613198565b60405180910390fd5b5b6116a1565b60011515601760009054906101000a900460ff1615151415611637576005600c54111561152f576040517f08c379a000000000000000000000000000000000000000000000000000000000815260040161152690613178565b60405180910390fd5b601060089054906101000a900463ffffffff1663ffffffff164210158061155e5750601e61155b610b19565b10155b1561158b5761156d3384612007565b82600c600082825461157f9190613358565b92505081905550611632565b601e611595610b19565b10156115d6576040517f08c379a00000000000000000000000000000000000000000000000000000000081526004016115cd906130f8565b60405180910390fd5b601060089054906101000a900463ffffffff1663ffffffff16421015611631576040517f08c379a000000000000000000000000000000000000000000000000000000000815260040161162890613218565b60405180910390fd5b5b6116a0565b600f600a541061167c576040517f08c379a0000000000000000000000000000000000000000000000000000000008152600401611673906131f8565b60405180910390fd5b6116863384612007565b82600a60008282546116989190613358565b925050819055505b5b5b505050565b60006116b282611e18565b9050919050565b6116c1611d17565b8060158190555050565b60008073ffffffffffffffffffffffffffffffffffffffff168273ffffffffffffffffffffffffffffffffffffffff161415611733576040517f8f4eb60400000000000000000000000000000000000000000000000000000000815260040160405180910390fd5b67ffffffffffffffff600560008473ffffffffffffffffffffffffffffffffffffffff1673ffffffffffffffffffffffffffffffffffffffff16815260200190815260200160002054169050919050565b61178c611d17565b6117966000612025565b565b6000600860009054906101000a900473ffffffffffffffffffffffffffffffffffffffff16905090565b6060600380546117d190613521565b80601f01602080910402602001604051908101604052809291908181526020018280546117fd90613521565b801561184a5780601f1061181f5761010080835404028352916020019161184a565b820191906000526020600020905b81548152906001019060200180831161182d57829003601f168201915b5050505050905090565b600061185e610b19565b905090565b8060076000611870611df4565b73ffffffffffffffffffffffffffffffffffffffff1673ffffffffffffffffffffffffffffffffffffffff16815260200190815260200160002060008473ffffffffffffffffffffffffffffffffffffffff1673ffffffffffffffffffffffffffffffffffffffff16815260200190815260200160002060006101000a81548160ff0219169083151502179055508173ffffffffffffffffffffffffffffffffffffffff1661191d611df4565b73ffffffffffffffffffffffffffffffffffffffff167f17307eab39ab6107e8899845ad3d59bd9653f200f220920489ca2b5937696c3183604051611962919061309b565b60405180910390a35050565b6000601160149054906101000a90046bffffffffffffffffffffffff166bffffffffffffffffffffffff16612710836119a791906133ae565b6119b191906133df565b9050919050565b6119c0611d17565b8060168190555050565b6119d5848484610b7c565b60008373ffffffffffffffffffffffffffffffffffffffff163b14611a3757611a00848484846120eb565b611a36576040517fd1a57ed600000000000000000000000000000000000000000000000000000000815260040160405180910390fd5b5b50505050565b6000611a4c8360155484611dfc565b905092915050565b6060611a5f82611d95565b611a95576040517fa14c4b5000000000000000000000000000000000000000000000000000000000815260040160405180910390fd5b6000611a9f61224b565b9050600081511415611ac05760405180602001604052806000815250611aeb565b80611aca846122dd565b604051602001611adb929190612fe7565b6040516020818303038152906040525b915050919050565b611afb611d17565b818160149190611b0c92919061266f565b505050565b6000611b1c33611fb0565b905090565b6000600760008473ffffffffffffffffffffffffffffffffffffffff1673ffffffffffffffffffffffffffffffffffffffff16815260200190815260200160002060008373ffffffffffffffffffffffffffffffffffffffff1673ffffffffffffffffffffffffffffffffffffffff16815260200190815260200160002060009054906101000a900460ff16905092915050565b611bbd611d17565b80601160006101000a81548173ffffffffffffffffffffffffffffffffffffffff021916908373ffffffffffffffffffffffffffffffffffffffff16021790555050565b611c09611d17565b600073ffffffffffffffffffffffffffffffffffffffff168173ffffffffffffffffffffffffffffffffffffffff161415611c79576040517f08c379a0000000000000000000000000000000000000000000000000000000008152600401611c7090613118565b60405180910390fd5b611c8281612025565b50565b60006301ffc9a760e01b827bffffffffffffffffffffffffffffffffffffffffffffffffffffffff19161480611ce057506380ac58cd60e01b827bffffffffffffffffffffffffffffffffffffffffffffffffffffffff1916145b80611d105750635b5e139f60e01b827bffffffffffffffffffffffffffffffffffffffffffffffffffffffff1916145b9050919050565b611d1f612336565b73ffffffffffffffffffffffffffffffffffffffff16611d3d611798565b73ffffffffffffffffffffffffffffffffffffffff1614611d93576040517f08c379a0000000000000000000000000000000000000000000000000000000008152600401611d8a906131d8565b60405180910390fd5b565b600081611da0611e13565b11158015611daf575060005482105b8015611ded575060007c0100000000000000000000000000000000000000000000000000000000600460008581526020019081526020016000205416145b9050919050565b600033905090565b600082611e09858461233e565b1490509392505050565b600090565b60008082905080611e27611e13565b11611eaf57600054811015611eae5760006004600083815260200190815260200160002054905060007c010000000000000000000000000000000000000000000000000000000082161415611eac575b6000811415611ea2576004600083600190039350838152602001908152602001600020549050611e77565b8092505050611ee1565b505b5b6040517fdf2d9b4200000000000000000000000000000000000000000000000000000000815260040160405180910390fd5b919050565b60008060006006600085815260200190815260200160002090508092508254915050915091565b600073ffffffffffffffffffffffffffffffffffffffff8316925073ffffffffffffffffffffffffffffffffffffffff821691508382148383141790509392505050565b50505050565b60008060e883901c905060e8611f6e8686846123ba565b62ffffff16901b9150509392505050565b600073ffffffffffffffffffffffffffffffffffffffff83169250814260a01b178317905092915050565b50505050565b600067ffffffffffffffff6040600560008573ffffffffffffffffffffffffffffffffffffffff1673ffffffffffffffffffffffffffffffffffffffff16815260200190815260200160002054901c169050919050565b6120218282604051806020016040528060008152506123c3565b5050565b6000600860009054906101000a900473ffffffffffffffffffffffffffffffffffffffff16905081600860006101000a81548173ffffffffffffffffffffffffffffffffffffffff021916908373ffffffffffffffffffffffffffffffffffffffff1602179055508173ffffffffffffffffffffffffffffffffffffffff168173ffffffffffffffffffffffffffffffffffffffff167f8be0079c531659141344cd1fd0a4f28419497f9722a3daafe3b4186f6b6457e060405160405180910390a35050565b60008373ffffffffffffffffffffffffffffffffffffffff1663150b7a02612111611df4565b8786866040518563ffffffff1660e01b81526004016121339493929190613026565b602060405180830381600087803b15801561214d57600080fd5b505af192505050801561217e57506040513d601f19601f8201168201806040525081019061217b9190612bc7565b60015b6121f8573d80600081146121ae576040519150601f19603f3d011682016040523d82523d6000602084013e6121b3565b606091505b506000815114156121f0576040517fd1a57ed600000000000000000000000000000000000000000000000000000000815260040160405180910390fd5b805181602001fd5b63150b7a0260e01b7bffffffffffffffffffffffffffffffffffffffffffffffffffffffff1916817bffffffffffffffffffffffffffffffffffffffffffffffffffffffff191614915050949350505050565b60606018805461225a90613521565b80601f016020809104026020016040519081016040528092919081815260200182805461228690613521565b80156122d35780601f106122a8576101008083540402835291602001916122d3565b820191906000526020600020905b8154815290600101906020018083116122b657829003601f168201915b5050505050905090565b606060a060405101806040526020810391506000825281835b60011561232157600184039350600a81066030018453600a810490508061231c57612321565b6122f6565b50828103602084039350808452505050919050565b600033905090565b60008082905060005b84518110156123af5761239a8286838151811061238d577f4e487b7100000000000000000000000000000000000000000000000000000000600052603260045260246000fd5b6020026020010151612460565b915080806123a790613584565b915050612347565b508091505092915050565b60009392505050565b6123cd838361248b565b60008373ffffffffffffffffffffffffffffffffffffffff163b1461245b57600080549050600083820390505b61240d60008683806001019450866120eb565b612443576040517fd1a57ed600000000000000000000000000000000000000000000000000000000815260040160405180910390fd5b8181106123fa57816000541461245857600080fd5b50505b505050565b6000818310612478576124738284612648565b612483565b6124828383612648565b5b905092915050565b60008054905060008214156124cc576040517fb562e8dd00000000000000000000000000000000000000000000000000000000815260040160405180910390fd5b6124d96000848385611f51565b600160406001901b178202600560008573ffffffffffffffffffffffffffffffffffffffff1673ffffffffffffffffffffffffffffffffffffffff16815260200190815260200160002060008282540192505081905550612550836125416000866000611f57565b61254a8561265f565b17611f7f565b6004600083815260200190815260200160002081905550600080838301905073ffffffffffffffffffffffffffffffffffffffff85169150828260007fddf252ad1be2c89b69c2b068fc378daa952ba7f163c4a11628f55a4df523b3ef600080a4600183015b8181146125f157808360007fddf252ad1be2c89b69c2b068fc378daa952ba7f163c4a11628f55a4df523b3ef600080a46001810190506125b6565b50600082141561262d576040517f2e07630000000000000000000000000000000000000000000000000000000000815260040160405180910390fd5b8060008190555050506126436000848385611faa565b505050565b600082600052816020526040600020905092915050565b60006001821460e11b9050919050565b82805461267b90613521565b90600052602060002090601f01602090048101928261269d57600085556126e4565b82601f106126b657803560ff19168380011785556126e4565b828001600101855582156126e4579182015b828111156126e35782358255916020019190600101906126c8565b5b5090506126f191906126f5565b5090565b5b8082111561270e5760008160009055506001016126f6565b5090565b6000612725612720846132b8565b613293565b9050808382526020820190508285602086028201111561274457600080fd5b60005b85811015612774578161275a8882612810565b845260208401935060208301925050600181019050612747565b5050509392505050565b600061279161278c846132e4565b613293565b9050828152602081018484840111156127a957600080fd5b6127b48482856134df565b509392505050565b6000813590506127cb81613921565b92915050565b600082601f8301126127e257600080fd5b81356127f2848260208601612712565b91505092915050565b60008135905061280a81613938565b92915050565b60008135905061281f8161394f565b92915050565b60008135905061283481613966565b92915050565b60008151905061284981613966565b92915050565b600082601f83011261286057600080fd5b813561287084826020860161277e565b91505092915050565b60008083601f84011261288b57600080fd5b8235905067ffffffffffffffff8111156128a457600080fd5b6020830191508360018202830111156128bc57600080fd5b9250929050565b6000813590506128d28161397d565b92915050565b6000813590506128e781613994565b92915050565b6000813590506128fc816139ab565b92915050565b60006020828403121561291457600080fd5b6000612922848285016127bc565b91505092915050565b6000806040838503121561293e57600080fd5b600061294c858286016127bc565b925050602061295d858286016127bc565b9150509250929050565b60008060006060848603121561297c57600080fd5b600061298a868287016127bc565b935050602061299b868287016127bc565b92505060406129ac868287016128c3565b9150509250925092565b600080600080608085870312156129cc57600080fd5b60006129da878288016127bc565b94505060206129eb878288016127bc565b93505060406129fc878288016128c3565b925050606085013567ffffffffffffffff811115612a1957600080fd5b612a258782880161284f565b91505092959194509250565b60008060408385031215612a4457600080fd5b6000612a52858286016127bc565b9250506020612a63858286016127fb565b9150509250929050565b60008060408385031215612a8057600080fd5b6000612a8e858286016127bc565b9250506020612a9f858286016128c3565b9150509250929050565b60008060408385031215612abc57600080fd5b6000612aca858286016127bc565b9250506020612adb858286016128ed565b9150509250929050565b60008060408385031215612af857600080fd5b600083013567ffffffffffffffff811115612b1257600080fd5b612b1e858286016127d1565b9250506020612b2f85828601612810565b9150509250929050565b600060208284031215612b4b57600080fd5b6000612b5984828501612810565b91505092915050565b60008060408385031215612b7557600080fd5b6000612b8385828601612810565b9250506020612b9485828601612810565b9150509250929050565b600060208284031215612bb057600080fd5b6000612bbe84828501612825565b91505092915050565b600060208284031215612bd957600080fd5b6000612be78482850161283a565b91505092915050565b60008060208385031215612c0357600080fd5b600083013567ffffffffffffffff811115612c1d57600080fd5b612c2985828601612879565b92509250509250929050565b600060208284031215612c4757600080fd5b6000612c55848285016128c3565b91505092915050565b600080600060608486031215612c7357600080fd5b6000612c81868287016128c3565b935050602084013567ffffffffffffffff811115612c9e57600080fd5b612caa868287016127d1565b9250506040612cbb86828701612810565b9150509250925092565b60008060408385031215612cd857600080fd5b6000612ce6858286016128c3565b9250506020612cf7858286016128c3565b9150509250929050565b600080600060608486031215612d1657600080fd5b6000612d24868287016128d8565b9350506020612d35868287016128d8565b9250506040612d46868287016128d8565b9150509250925092565b612d5981613439565b82525050565b612d688161344b565b82525050565b6000612d7982613315565b612d83818561332b565b9350612d938185602086016134ee565b612d9c81613689565b840191505092915050565b6000612db282613320565b612dbc818561333c565b9350612dcc8185602086016134ee565b612dd581613689565b840191505092915050565b6000612deb82613320565b612df5818561334d565b9350612e058185602086016134ee565b80840191505092915050565b6000612e1e60248361333c565b9150612e298261369a565b604082019050919050565b6000612e4160188361333c565b9150612e4c826136e9565b602082019050919050565b6000612e6460268361333c565b9150612e6f82613712565b604082019050919050565b6000612e8760188361333c565b9150612e9282613761565b602082019050919050565b6000612eaa60178361333c565b9150612eb58261378a565b602082019050919050565b6000612ecd601d8361333c565b9150612ed8826137b3565b602082019050919050565b6000612ef060208361333c565b9150612efb826137dc565b602082019050919050565b6000612f1360168361333c565b9150612f1e82613805565b602082019050919050565b6000612f3660208361333c565b9150612f418261382e565b602082019050919050565b6000612f5960218361333c565b9150612f6482613857565b604082019050919050565b6000612f7c601a8361333c565b9150612f87826138a6565b602082019050919050565b6000612f9f60168361333c565b9150612faa826138cf565b602082019050919050565b6000612fc260148361333c565b9150612fcd826138f8565b602082019050919050565b612fe1816134ad565b82525050565b6000612ff38285612de0565b9150612fff8284612de0565b91508190509392505050565b60006020820190506130206000830184612d50565b92915050565b600060808201905061303b6000830187612d50565b6130486020830186612d50565b6130556040830185612fd8565b81810360608301526130678184612d6e565b905095945050505050565b60006040820190506130876000830185612d50565b6130946020830184612fd8565b9392505050565b60006020820190506130b06000830184612d5f565b92915050565b600060208201905081810360008301526130d08184612da7565b905092915050565b600060208201905081810360008301526130f181612e11565b9050919050565b6000602082019050818103600083015261311181612e34565b9050919050565b6000602082019050818103600083015261313181612e57565b9050919050565b6000602082019050818103600083015261315181612e7a565b9050919050565b6000602082019050818103600083015261317181612e9d565b9050919050565b6000602082019050818103600083015261319181612ec0565b9050919050565b600060208201905081810360008301526131b181612ee3565b9050919050565b600060208201905081810360008301526131d181612f06565b9050919050565b600060208201905081810360008301526131f181612f29565b9050919050565b6000602082019050818103600083015261321181612f4c565b9050919050565b6000602082019050818103600083015261323181612f6f565b9050919050565b6000602082019050818103600083015261325181612f92565b9050919050565b6000602082019050818103600083015261327181612fb5565b9050919050565b600060208201905061328d6000830184612fd8565b92915050565b600061329d6132ae565b90506132a98282613553565b919050565b6000604051905090565b600067ffffffffffffffff8211156132d3576132d261365a565b5b602082029050602081019050919050565b600067ffffffffffffffff8211156132ff576132fe61365a565b5b61330882613689565b9050602081019050919050565b600081519050919050565b600081519050919050565b600082825260208201905092915050565b600082825260208201905092915050565b600081905092915050565b6000613363826134ad565b915061336e836134ad565b9250827fffffffffffffffffffffffffffffffffffffffffffffffffffffffffffffffff038211156133a3576133a26135cd565b5b828201905092915050565b60006133b9826134ad565b91506133c4836134ad565b9250826133d4576133d36135fc565b5b828204905092915050565b60006133ea826134ad565b91506133f5836134ad565b9250817fffffffffffffffffffffffffffffffffffffffffffffffffffffffffffffffff048311821515161561342e5761342d6135cd565b5b828202905092915050565b60006134448261348d565b9050919050565b60008115159050919050565b6000819050919050565b60007fffffffff0000000000000000000000000000000000000000000000000000000082169050919050565b600073ffffffffffffffffffffffffffffffffffffffff82169050919050565b6000819050919050565b600063ffffffff82169050919050565b60006bffffffffffffffffffffffff82169050919050565b82818337600083830152505050565b60005b8381101561350c5780820151818401526020810190506134f1565b8381111561351b576000848401525b50505050565b6000600282049050600182168061353957607f821691505b6020821081141561354d5761354c61362b565b5b50919050565b61355c82613689565b810181811067ffffffffffffffff8211171561357b5761357a61365a565b5b80604052505050565b600061358f826134ad565b91507fffffffffffffffffffffffffffffffffffffffffffffffffffffffffffffffff8214156135c2576135c16135cd565b5b600182019050919050565b7f4e487b7100000000000000000000000000000000000000000000000000000000600052601160045260246000fd5b7f4e487b7100000000000000000000000000000000000000000000000000000000600052601260045260246000fd5b7f4e487b7100000000000000000000000000000000000000000000000000000000600052602260045260246000fd5b7f4e487b7100000000000000000000000000000000000000000000000000000000600052604160045260246000fd5b6000601f19601f8301169050919050565b7f4e6f7420456e6f75676820546f6b656e73204c65667420666f7220736b756c6c60008201527f4c69737400000000000000000000000000000000000000000000000000000000602082015250565b7f4f47206d696e74206e6f742073746172746564207965742e0000000000000000600082015250565b7f4f776e61626c653a206e6577206f776e657220697320746865207a65726f206160008201527f6464726573730000000000000000000000000000000000000000000000000000602082015250565b7f596f752063616e206f6e6c79206d696e742032204e4654730000000000000000600082015250565b7f596f752063616e206f6e6c79206d696e742031204e4654000000000000000000600082015250565b7f4e6f7420456e6f75676820546f6b656e73204c65667420666f72204f47000000600082015250565b7f576169742054696c6c20536b756c6c204c697374204d696e7420537461727473600082015250565b7f4e6f7420456e6f756768204574686572732053656e7400000000000000000000600082015250565b7f4f776e61626c653a2063616c6c6572206973206e6f7420746865206f776e6572600082015250565b7f4e6f7420456e6f75676820546f6b656e73204c65667420666f72207075626c6960008201527f6300000000000000000000000000000000000000000000000000000000000000602082015250565b7f4f47205374696c6c20486176652054696d6520546f204d696e74000000000000600082015250565b7f4e6f7420456e6f75676820546f6b656e73204c65667400000000000000000000600082015250565b7f4d696e74204e6f74205965742053746172746564000000000000000000000000600082015250565b61392a81613439565b811461393557600080fd5b50565b6139418161344b565b811461394c57600080fd5b50565b61395881613457565b811461396357600080fd5b50565b61396f81613461565b811461397a57600080fd5b50565b613986816134ad565b811461399157600080fd5b50565b61399d816134b7565b81146139a857600080fd5b50565b6139b4816134c7565b81146139bf57600080fd5b5056fea2646970667358221220149ff0138b5a9765b78e780a8eb24b2cd6f17fb7130fbef91c19c7f4a7eb2d2d64736f6c6343000804003368747470733a2f2f676174657761792e70696e6174612e636c6f75642f697066732f516d6331417a7a3468337a636732665a72546254456d71376a4e66794e6f446d4538553853625157546e3163736f2f",
  "devdoc": {
    "kind": "dev",
    "methods": {
      "approve(address,uint256)": {
        "details": "Gives permission to `to` to transfer `tokenId` token to another account. The approval is cleared when the token is transferred. Only a single account can be approved at a time, so approving the zero address clears previous approvals. Requirements: - The caller must own the token or be an approved operator. - `tokenId` must exist. Emits an {Approval} event."
      },
      "balanceOf(address)": {
        "details": "Returns the number of tokens in `owner`'s account."
      },
      "getApproved(uint256)": {
        "details": "Returns the account approved for `tokenId` token. Requirements: - `tokenId` must exist."
      },
      "isApprovedForAll(address,address)": {
        "details": "Returns if the `operator` is allowed to manage all of the assets of `owner`. See {setApprovalForAll}."
      },
      "name()": {
        "details": "Returns the token collection name."
      },
      "owner()": {
        "details": "Returns the address of the current owner."
      },
      "ownerOf(uint256)": {
        "details": "Returns the owner of the `tokenId` token. Requirements: - `tokenId` must exist."
      },
      "renounceOwnership()": {
        "details": "Leaves the contract without owner. It will not be possible to call `onlyOwner` functions anymore. Can only be called by the current owner. NOTE: Renouncing ownership will leave the contract without an owner, thereby removing any functionality that is only available to the owner."
      },
      "safeTransferFrom(address,address,uint256)": {
        "details": "Equivalent to `safeTransferFrom(from, to, tokenId, '')`."
      },
      "safeTransferFrom(address,address,uint256,bytes)": {
        "details": "Safely transfers `tokenId` token from `from` to `to`. Requirements: - `from` cannot be the zero address. - `to` cannot be the zero address. - `tokenId` token must exist and be owned by `from`. - If the caller is not `from`, it must be approved to move this token by either {approve} or {setApprovalForAll}. - If `to` refers to a smart contract, it must implement {IERC721Receiver-onERC721Received}, which is called upon a safe transfer. Emits a {Transfer} event."
      },
      "setApprovalForAll(address,bool)": {
        "details": "Approve or remove `operator` as an operator for the caller. Operators can call {transferFrom} or {safeTransferFrom} for any token owned by the caller. Requirements: - The `operator` cannot be the caller. Emits an {ApprovalForAll} event."
      },
      "supportsInterface(bytes4)": {
        "details": "Returns true if this contract implements the interface defined by `interfaceId`. See the corresponding [EIP section](https://eips.ethereum.org/EIPS/eip-165#how-interfaces-are-identified) to learn more about how these ids are created. This function call must use less than 30000 gas."
      },
      "symbol()": {
        "details": "Returns the token collection symbol."
      },
      "tokenURI(uint256)": {
        "details": "Returns the Uniform Resource Identifier (URI) for `tokenId` token."
      },
      "totalSupply()": {
        "details": "Returns the total number of tokens in existence. Burned tokens will reduce the count. To get the total number of tokens minted, please see {_totalMinted}."
      },
      "transferFrom(address,address,uint256)": {
        "details": "Transfers `tokenId` from `from` to `to`. Requirements: - `from` cannot be the zero address. - `to` cannot be the zero address. - `tokenId` token must be owned by `from`. - If the caller is not `from`, it must be approved to move this token by either {approve} or {setApprovalForAll}. Emits a {Transfer} event."
      },
      "transferOwnership(address)": {
        "details": "Transfers ownership of the contract to a new account (`newOwner`). Can only be called by the current owner."
      }
    },
    "version": 1
  },
  "userdoc": {
    "errors": {
      "ApprovalCallerNotOwnerNorApproved()": [
        {
          "notice": "The caller must own the token or be an approved operator."
        }
      ],
      "ApprovalQueryForNonexistentToken()": [
        {
          "notice": "The token does not exist."
        }
      ],
      "BalanceQueryForZeroAddress()": [
        {
          "notice": "Cannot query the balance for the zero address."
        }
      ],
      "MintERC2309QuantityExceedsLimit()": [
        {
          "notice": "The `quantity` minted with ERC2309 exceeds the safety limit."
        }
      ],
      "MintToZeroAddress()": [
        {
          "notice": "Cannot mint to the zero address."
        }
      ],
      "MintZeroQuantity()": [
        {
          "notice": "The quantity of tokens minted must be more than zero."
        }
      ],
      "OwnerQueryForNonexistentToken()": [
        {
          "notice": "The token does not exist."
        }
      ],
      "OwnershipNotInitializedForExtraData()": [
        {
          "notice": "The `extraData` cannot be set on an unintialized ownership slot."
        }
      ],
      "TransferCallerNotOwnerNorApproved()": [
        {
          "notice": "The caller must own the token or be an approved operator."
        }
      ],
      "TransferFromIncorrectOwner()": [
        {
          "notice": "The token must be owned by `from`."
        }
      ],
      "TransferToNonERC721ReceiverImplementer()": [
        {
          "notice": "Cannot safely transfer to a contract that does not implement the ERC721Receiver interface."
        }
      ],
      "TransferToZeroAddress()": [
        {
          "notice": "Cannot transfer to the zero address."
        }
      ],
      "URIQueryForNonexistentToken()": [
        {
          "notice": "The token does not exist."
        }
      ]
    },
    "kind": "user",
    "methods": {},
    "version": 1
  },
  "storageLayout": {
    "storage": [
      {
        "astId": 728,
        "contract": "contracts/indie-skull-contract.sol:skullSyndicate",
        "label": "_currentIndex",
        "offset": 0,
        "slot": "0",
        "type": "t_uint256"
      },
      {
        "astId": 730,
        "contract": "contracts/indie-skull-contract.sol:skullSyndicate",
        "label": "_burnCounter",
        "offset": 0,
        "slot": "1",
        "type": "t_uint256"
      },
      {
        "astId": 732,
        "contract": "contracts/indie-skull-contract.sol:skullSyndicate",
        "label": "_name",
        "offset": 0,
        "slot": "2",
        "type": "t_string_storage"
      },
      {
        "astId": 734,
        "contract": "contracts/indie-skull-contract.sol:skullSyndicate",
        "label": "_symbol",
        "offset": 0,
        "slot": "3",
        "type": "t_string_storage"
      },
      {
        "astId": 738,
        "contract": "contracts/indie-skull-contract.sol:skullSyndicate",
        "label": "_packedOwnerships",
        "offset": 0,
        "slot": "4",
        "type": "t_mapping(t_uint256,t_uint256)"
      },
      {
        "astId": 742,
        "contract": "contracts/indie-skull-contract.sol:skullSyndicate",
        "label": "_packedAddressData",
        "offset": 0,
        "slot": "5",
        "type": "t_mapping(t_address,t_uint256)"
      },
      {
        "astId": 747,
        "contract": "contracts/indie-skull-contract.sol:skullSyndicate",
        "label": "_tokenApprovals",
        "offset": 0,
        "slot": "6",
        "type": "t_mapping(t_uint256,t_struct(TokenApprovalRef)660_storage)"
      },
      {
        "astId": 753,
        "contract": "contracts/indie-skull-contract.sol:skullSyndicate",
        "label": "_operatorApprovals",
        "offset": 0,
        "slot": "7",
        "type": "t_mapping(t_address,t_mapping(t_address,t_bool))"
      },
      {
        "astId": 7,
        "contract": "contracts/indie-skull-contract.sol:skullSyndicate",
        "label": "_owner",
        "offset": 0,
        "slot": "8",
        "type": "t_address"
      },
      {
        "astId": 2493,
        "contract": "contracts/indie-skull-contract.sol:skullSyndicate",
        "label": "MAX_MINTS",
        "offset": 0,
        "slot": "9",
        "type": "t_uint256"
      },
      {
        "astId": 2495,
        "contract": "contracts/indie-skull-contract.sol:skullSyndicate",
        "label": "Public_Mints",
        "offset": 0,
        "slot": "10",
        "type": "t_uint256"
      },
      {
        "astId": 2497,
        "contract": "contracts/indie-skull-contract.sol:skullSyndicate",
        "label": "Skull_Mints",
        "offset": 0,
        "slot": "11",
        "type": "t_uint256"
      },
      {
        "astId": 2499,
        "contract": "contracts/indie-skull-contract.sol:skullSyndicate",
        "label": "WL_Mints",
        "offset": 0,
        "slot": "12",
        "type": "t_uint256"
      },
      {
        "astId": 2502,
        "contract": "contracts/indie-skull-contract.sol:skullSyndicate",
        "label": "MAX_SUPPLY",
        "offset": 0,
        "slot": "13",
        "type": "t_uint256"
      },
      {
        "astId": 2505,
        "contract": "contracts/indie-skull-contract.sol:skullSyndicate",
        "label": "mint_Price",
        "offset": 0,
        "slot": "14",
        "type": "t_uint256"
      },
      {
        "astId": 2508,
        "contract": "contracts/indie-skull-contract.sol:skullSyndicate",
        "label": "skull_List_Mint_Price",
        "offset": 0,
        "slot": "15",
        "type": "t_uint256"
      },
      {
        "astId": 2511,
        "contract": "contracts/indie-skull-contract.sol:skullSyndicate",
        "label": "mint_Time",
        "offset": 0,
        "slot": "16",
        "type": "t_uint32"
      },
      {
        "astId": 2514,
        "contract": "contracts/indie-skull-contract.sol:skullSyndicate",
        "label": "Skull_List_Time",
        "offset": 4,
        "slot": "16",
        "type": "t_uint32"
      },
      {
        "astId": 2517,
        "contract": "contracts/indie-skull-contract.sol:skullSyndicate",
        "label": "whiteList_Time",
        "offset": 8,
        "slot": "16",
        "type": "t_uint32"
      },
      {
        "astId": 2520,
        "contract": "contracts/indie-skull-contract.sol:skullSyndicate",
        "label": "DeveloperAddress",
        "offset": 12,
        "slot": "16",
        "type": "t_address"
      },
      {
        "astId": 2523,
        "contract": "contracts/indie-skull-contract.sol:skullSyndicate",
        "label": "OwnerAddress",
        "offset": 0,
        "slot": "17",
        "type": "t_address"
      },
      {
        "astId": 2525,
        "contract": "contracts/indie-skull-contract.sol:skullSyndicate",
        "label": "royaltyFeesInBips",
        "offset": 20,
        "slot": "17",
        "type": "t_uint96"
      },
      {
        "astId": 2527,
        "contract": "contracts/indie-skull-contract.sol:skullSyndicate",
        "label": "royaltyReceiver",
        "offset": 0,
        "slot": "18",
        "type": "t_address"
      },
      {
        "astId": 2529,
        "contract": "contracts/indie-skull-contract.sol:skullSyndicate",
        "label": "amount",
        "offset": 0,
        "slot": "19",
        "type": "t_uint256"
      },
      {
        "astId": 2531,
        "contract": "contracts/indie-skull-contract.sol:skullSyndicate",
        "label": "contractURI",
        "offset": 0,
        "slot": "20",
        "type": "t_string_storage"
      },
      {
        "astId": 2533,
        "contract": "contracts/indie-skull-contract.sol:skullSyndicate",
        "label": "whiteList_root",
        "offset": 0,
        "slot": "21",
        "type": "t_bytes32"
      },
      {
        "astId": 2535,
        "contract": "contracts/indie-skull-contract.sol:skullSyndicate",
        "label": "skull_root",
        "offset": 0,
        "slot": "22",
        "type": "t_bytes32"
      },
      {
        "astId": 2537,
        "contract": "contracts/indie-skull-contract.sol:skullSyndicate",
        "label": "checkWL",
        "offset": 0,
        "slot": "23",
        "type": "t_bool"
      },
      {
        "astId": 2539,
        "contract": "contracts/indie-skull-contract.sol:skullSyndicate",
        "label": "checkSkull",
        "offset": 1,
        "slot": "23",
        "type": "t_bool"
      },
      {
        "astId": 2542,
        "contract": "contracts/indie-skull-contract.sol:skullSyndicate",
        "label": "baseURI",
        "offset": 0,
        "slot": "24",
        "type": "t_string_storage"
      }
    ],
    "types": {
      "t_address": {
        "encoding": "inplace",
        "label": "address",
        "numberOfBytes": "20"
      },
      "t_bool": {
        "encoding": "inplace",
        "label": "bool",
        "numberOfBytes": "1"
      },
      "t_bytes32": {
        "encoding": "inplace",
        "label": "bytes32",
        "numberOfBytes": "32"
      },
      "t_mapping(t_address,t_bool)": {
        "encoding": "mapping",
        "key": "t_address",
        "label": "mapping(address => bool)",
        "numberOfBytes": "32",
        "value": "t_bool"
      },
      "t_mapping(t_address,t_mapping(t_address,t_bool))": {
        "encoding": "mapping",
        "key": "t_address",
        "label": "mapping(address => mapping(address => bool))",
        "numberOfBytes": "32",
        "value": "t_mapping(t_address,t_bool)"
      },
      "t_mapping(t_address,t_uint256)": {
        "encoding": "mapping",
        "key": "t_address",
        "label": "mapping(address => uint256)",
        "numberOfBytes": "32",
        "value": "t_uint256"
      },
      "t_mapping(t_uint256,t_struct(TokenApprovalRef)660_storage)": {
        "encoding": "mapping",
        "key": "t_uint256",
        "label": "mapping(uint256 => struct ERC721A.TokenApprovalRef)",
        "numberOfBytes": "32",
        "value": "t_struct(TokenApprovalRef)660_storage"
      },
      "t_mapping(t_uint256,t_uint256)": {
        "encoding": "mapping",
        "key": "t_uint256",
        "label": "mapping(uint256 => uint256)",
        "numberOfBytes": "32",
        "value": "t_uint256"
      },
      "t_string_storage": {
        "encoding": "bytes",
        "label": "string",
        "numberOfBytes": "32"
      },
      "t_struct(TokenApprovalRef)660_storage": {
        "encoding": "inplace",
        "label": "struct ERC721A.TokenApprovalRef",
        "members": [
          {
            "astId": 659,
            "contract": "contracts/indie-skull-contract.sol:skullSyndicate",
            "label": "value",
            "offset": 0,
            "slot": "0",
            "type": "t_address"
          }
        ],
        "numberOfBytes": "32"
      },
      "t_uint256": {
        "encoding": "inplace",
        "label": "uint256",
        "numberOfBytes": "32"
      },
      "t_uint32": {
        "encoding": "inplace",
        "label": "uint32",
        "numberOfBytes": "4"
      },
      "t_uint96": {
        "encoding": "inplace",
        "label": "uint96",
        "numberOfBytes": "12"
      }
    }
  }
}